:020000040000FA
:100000000C9491000C94B9000C94B9000C94FD0868
:100010000C94B9000C94B9000C94B9000C94B9007C
:100020000C94B9000C94B9000C94B9000C94AD0870
:100030000C94B9000C94B9000C94B9000C94B9005C
:100040000C9446070C94B9000C9414070C94EE061B
:100050000C94B9000C94B9000C94B9000C94B9003C
:100060000C9492070C94B9000C9490070C94900790
:100070000C9490070C9490070C9490070C949007A4
:100080000C9490070C9490070C9490070C94900794
:100090000C9490070C9490070C9490070C94900784
:1000A0000C9490070C9490070C9490070C94900774
:1000B0000C94900700000000240027002A002D0067
:1000C00000000000250028002B002E00000000008A
:1000D0002300260029002C00040404040404040462
:1000E00002020202020203030303030305050505DE
:1000F00001020408102040800102040810200102BF
:100100000408102004080102090C0A08000201007A
:1001100000030407000000000000000000000000D1
:10012000590911241FBECFEFD8E0DEBFCDBF12E0CA
:10013000A0E0B1E0EEE2FEE202C005900D92A23630
:10014000B107D9F724E0A2E6B2E001C01D92AC31BC
:10015000B207E1F710E0C1E9D0E004C02197FE0149
:100160000E940F17C039D107C9F70E9498090C9453
:1001700015170C940000FC01538D448D252F30E0A1
:10018000842F90E0821B930B541710F0CF960895A4
:1001900001970895FC01918D828D981761F0A28DD1
:1001A000AE0FBF2FB11D5D968C91928D9F5F9F7397
:1001B000928F90E008958FEF9FEF0895FC01918D4D
:1001C000828D981731F0828DE80FF11D858D90E0BA
:1001D00008958FEF9FEF0895FC01918D228D892F57
:1001E00090E0805C9F4F821B91098F73992708953F
:1001F000FC01A48DA80FB92FB11DA35ABF4F2C919C
:10020000848D90E001968F739927848FA689B78992
:100210002C93A089B1898C91837080648C93938D89
:10022000848D981306C00288F389E02D80818F7D2C
:1002300080830895EF92FF920F931F93CF93DF93E4
:10024000EC0181E0888F9B8D8C8D98131AC0E88912
:10025000F989808185FF15C09FB7F894EE89FF89E1
:100260006083E889F98980818370806480839FBF7F
:1002700081E090E0DF91CF911F910F91FF90EF907F
:100280000895F62E0B8D10E00F5F1F4F0F7311278F
:10029000E02E8C8D8E110CC00FB607FCFACFE889CA
:1002A000F989808185FFF5CFCE010E94F800F1CF5A
:1002B000EB8DEC0FFD2FF11DE35AFF4FF0829FB73E
:1002C000F8940B8FEA89FB8980818062CFCFCF932E
:1002D000DF93EC01888D8823B9F0AA89BB89E8896E
:1002E000F9898C9185FD03C0808186FD0DC00FB614
:1002F00007FCF7CF8C9185FFF2CF808185FFEDCF92
:10030000CE010E94F800E9CFDF91CF91089581E7F7
:1003100093E00E94EC0021E0892B09F420E0822F79
:10032000089580E090E0892B29F00E9487018111D7
:100330000E94000080E090E0892B49F080E090E08E
:10034000892B29F00E94000081110C94000008956F
:10035000AF92BF92CF92DF92EF92FF920F931F93D3
:10036000CF93DF936C017B018B01040F151FEB0111
:100370005E01AE18BF08C017D10759F06991D601C8
:10038000ED91FC910190F081E02DC6010995892B3A
:1003900079F7C501DF91CF911F910F91FF90EF90F9
:1003A000DF90CF90BF90AF90089581508D3008F0CE
:1003B0003DC0E82FF0E0E152FE4F0C940F17F6011C
:1003C000FA01EC01F20116021602FD010302070216
:1003D0000D02160211021702809180008F77809320
:1003E00080000895809180008F7DF9CF84B58F774C
:1003F00084BD089584B58F7DFBCF8091B0008F7749
:100400008093B00008958091B0008F7DF9CF8091E6
:1004100090008F77809390000895809190008F7D59
:10042000F9CF8091A0008F778093A00008958091EC
:10043000A0008F7DF9CFCF93DF93282F30E0F90113
:10044000E85FFE4F8491F901E051FF4FD491F9012B
:10045000E852FF4FC491CC23A1F081110E94D50135
:10046000EC2FF0E0EE0FFF1FE453FF4FA591B49186
:10047000EC91ED2381E090E009F480E0DF91CF91F1
:10048000089580E090E0FACF1F93CF93DF93282F59
:1004900030E0F901E85FFE4F8491F901E051FF4F30
:1004A000D491F901E852FF4FC491CC23A9F0162F43
:1004B00081110E94D501EC2FF0E0EE0FFF1FE054F8
:1004C000FF4FA591B4918FB7F894EC91111108C02A
:1004D000D095DE23DC938FBFDF91CF911F910895DC
:1004E000DE2BF8CFCF93DF9390E0FC01E051FF4F7C
:1004F000249188529F4FFC0184918823C9F090E099
:10050000880F991FFC01EC54FF4FA591B491FC0199
:10051000E054FF4FC591D49161110DC09FB7F8947D
:100520008C91209582238C938881282328839FBFD8
:10053000DF91CF910895623051F49FB7F8943C91C8
:10054000822F809583238C93E8812E2BEFCF8FB75A
:10055000F894EC912E2B2C938FBFEACF8E508064B1
:1005600080937C0080917A00806480937A008091EF
:100570007A0086FDFCCF80917800909179000895F3
:100580003FB7F8948091AB029091AC02A091AD027C
:10059000B091AE0226B5A89B05C02F3F19F0019679
:1005A000A11DB11D3FBFBA2FA92F982F8827BC01CD
:1005B000CD01620F711D811D911D43E0660F771FF4
:1005C000881F991F4A95D1F708951F93CF93DF9302
:1005D000C1E0C0936602882399F1D091B8001091D0
:1005E000BA008091BC008A7B8093BC0060E082E10D
:1005F0000E94440260E083E10E944402109247039B
:10060000C09346031092210361E082E10E944402FC
:1006100061E083E10E9444028091B9008E7F809363
:10062000B9008091B9008D7F8093B90080E28093FA
:10063000B80085E48093BC001093BA00D093B80052
:10064000DF91CF911F9108958F929F92AF92BF92A9
:10065000CF92DF92EF92FF920F931F93CF93DF938E
:10066000D0917003D13208F0D7C0182FC0916F031A
:100670000E94C0026B017C018091470381116BC015
:1006800082E080934703109346038FEF80934503E6
:1006900010924403D0934303AFE4B3E0E3E2F3E00A
:1006A00080E0D81391C01092220380912203CC0FD6
:1006B000C82BC093220380912103813009F088C0A8
:1006C000109221030E94C0026B017C0180912203E1
:1006D0008093BB008091490390914A03A0914B0302
:1006E000B0914C03892B8A2B8B2BA1F00E94C00266
:1006F0000091490310914A0320914B0330914C0320
:100700006C197D098E099F090617170728073907F5
:1007100008F442C08091BC0083FDD8CF85EC809363
:10072000BC000E94C0026B017C01809147038230B3
:1007300009F450C0809145038F3F09F46FC0809148
:100740004503803209F46CC080914503803309F47D
:1007500069C084E026C08091490390914A03A0912A
:100760004B03B0914C03892B8A2B8B2B09F484CF3C
:100770000E94C0028090490390904A03A0904B03CE
:10078000B0904C036C197D098E099F098616970657
:10079000A806B90608F070CF809148030E94E502D0
:1007A00085E010924E031092700310924D03DF917A
:1007B000CF911F910F91FF90EF90DF90CF90BF905E
:1007C000AF909F908F9008959D9191938F5F69CF87
:1007D00085EEA5CF8091490390914A03A0914B03E8
:1007E000B0914C03892B8A2B8B2B09F49ECF0E944E
:1007F000C0020091490310914A0320914B033091AC
:100800004C036C197D098E099F09061717072807E5
:10081000390708F08ACFC0CF81E0C3CF80E0C1CFD5
:1008200082E0BFCF83E0BDCF20918702260F332720
:10083000331F21323105ECF420914703FC0190E095
:1008400080E0243069F082E00895A0918702219130
:10085000AC0149595D4FA40FB52FB11D2C930196E2
:10086000861798F380918702680F6093870280E073
:10087000089581E008950895E091E0028091DF02FB
:10088000E81730F4F0E0EF51FD4F808190E00895DB
:100890008FEF9FEF08959091E0028091DF022FEF9C
:1008A0003FEF981748F4E92FF0E0EF51FD4F20811A
:1008B00030E09F5F9093E002C90108958091DF02CC
:1008C0009091E002891B990B0895CF92DF92EF92ED
:1008D000FF920F931F93CF93DF937C01CB018A018B
:1008E00020914D03222389F0EB016B01C40ED51E2C
:1008F000CC15DD0569F06991D701ED91FC9101906E
:10090000F081E02DC7010995F3CF642F0E941404F4
:10091000C801DF91CF911F910F91FF90EF90DF9071
:10092000CF900895CF93DF931F92CDB7DEB7698341
:1009300020914D032223F9F020917003203258F0CA
:1009400021E030E0FC013383228390E080E00F90CF
:10095000DF91CF91089580914E03E82FF0E0E15BA5
:10096000FC4F998190838F5F80934E038093700337
:1009700081E090E0ECCF61E0CE0101960E9414048A
:10098000F7CF90E080E00895CF92DF92EF92FF9250
:100990000F931F93CF93DF93D82EF62E142FD22FC1
:1009A00081E080934D0388E680936F0310924E039D
:1009B0001092700360E08EE094E00E949204CAE01E
:1009C0008D2D6C2F0E94CD168295807F682F690F28
:1009D0008EE094E00E9492048F2D6C2F0E94CD1621
:1009E0008295807F682F690F8EE094E00E949204C8
:1009F000812F6C2F0E94CD168295807F682F690F02
:100A00008EE094E00E9492048D2F6C2F0E94CD16F0
:100A10008295807F682F690F8EE094E00E94920497
:100A2000802F6C2F0E94CD168295807F682F690FD2
:100A30008EE094E00E9492048E2D6C2F0E94CD16C1
:100A40008295807F682F690F8EE094E00E94920467
:100A50008C2D6C2F0E94CD168295807F682F690F98
:100A60008EE094E00E94920481E0DF91CF911F918B
:100A70000F91FF90EF90DF90CF900C942403815062
:100A80008730D8F4E82FF0E0E85BFA4F0C940F17AA
:100A90004F055E056B05780583058E0599058EE487
:100AA0008093CF028093D00280E28093D1028FE6C0
:100AB0008093D2028EE68093D302089584E78093D8
:100AC000CF0285E78093D00280E28093D10295E443
:100AD0009093D202F0CF85E58093CF028093D0022D
:100AE00080E28093D10285E48093D20284E6E3CF52
:100AF00084E78093CF0288E68093D00280E28093DF
:100B0000D10295E7E5CF86E48093CF0282E7809318
:100B1000D00280E28093D10299E6DACF83E7809316
:100B2000CF0281E48093D00280E28093D10294E7E7
:100B3000CFCF83E58093CF0285E78093D00280E218
:100B40008093D1029EE6C4CFCF93DF93FC01019046
:100B50000020E9F73197AF01481B590BBC0181E731
:100B600093E00E94A801EC0142E050E06DE372E0E6
:100B700081E793E00E94A8018C0F9D1FDF91CF9128
:100B8000089520911F03309120032F5F3F4F309332
:100B9000200320931F0340911A0450911B04411518
:100BA000510519F04217530734F480E492E00E9493
:100BB000A40580E00895682F80E190E00E948114F0
:100BC00081E00895CF92EF920F93CF93C82FE091D9
:100BD000DD02F091DE023797ED30F10500F5ED50C2
:100BE000FA4F0C940F1700060F067B060F068806B7
:100BF0000F0697060F06A0060F06A7060F06AC06FF
:100C0000C0900703E09006030091050320910403C0
:100C10004091CD026091020380E00E94C40460E034
:100C20008FE00E94440260E08EE00E94440260E097
:100C300088E00E94440260E087E00E94440260E095
:100C400081E00E94440260E082E00E94440260E091
:100C500080E00E94440260E084E00E94440260E080
:100C600086E10E94440260E085E00E94440260E068
:100C700086E00E94440260E085E10E94440281E037
:100C8000809319031092B3021092B4021092B5022D
:100C90001092B6021092B7021092B8021092B902E6
:100CA0001092BA02CC2309F45CC080916800816084
:100CB0008093680080916B00846080936B008091CA
:100CC0007A008093630210927A0085B7982F90661D
:100CD0008F7D80648093620295BF8091620285BFA0
:100CE00010926F0083B7816083BF8895CF910F9179
:100CF000EF90CF900895C0900703E0900603009115
:100D0000050320910403409103036091CD0284CF39
:100D1000C0900703E0900603009105032091CD02E7
:100D200040910303609102038091010376CFC0904C
:100D30000703E09006030091CD0220910403F0CF59
:100D4000C0900703E090CD0200910503F6CFC0905C
:100D5000CD02E0900603F8CF809100010E94C1050A
:100D60005ECF1092680010926B00A9CF85ED809342
:100D7000BC008091490390914A03A0914B03B0912C
:100D80004C030796A11DB11D23E0B695A795979535
:100D900087952A95D1F72091BC0024FD03C01092BD
:100DA000470308954091490350914A0360914B03D2
:100DB00070914C03452B462B472B69F30097A105F7
:100DC000B10541F02AE12A95F1F700C00197A10988
:100DD000B109E1CF809148030C94E5021F920F9274
:100DE0000FB60F9211242F933F934F935F936F93FE
:100DF0007F938F939F93AF93BF93EF93FF9381E77D
:100E000093E00E94F800FF91EF91BF91AF919F9105
:100E10008F917F916F915F914F913F912F910F90A3
:100E20000FBE0F901F9018951F920F920FB60F9242
:100E300011242F938F939F93EF93FF93E09181035E
:100E4000F09182038081E0918703F091880382FD15
:100E50001BC0908180918A038F5F8F7320918B03D9
:100E6000821741F0E0918A03F0E0EF58FC4F958F34
:100E700080938A03FF91EF919F918F912F910F9013
:100E80000FBE0F901F9018958081F4CF1F920F9284
:100E90000FB60F9211242F933F938F939F93AF938D
:100EA000BF938091AF029091B002A091B102B09136
:100EB000B2023091AA0226E0230F2D3758F5029690
:100EC000A11DB11D2093AA028093AF029093B0029E
:100ED000A093B102B093B2028091AB029091AC02A8
:100EE000A091AD02B091AE020196A11DB11D8093FB
:100EF000AB029093AC02A093AD02B093AE02BF914F
:100F0000AF919F918F913F912F910F900FBE0F90B6
:100F10001F90189529E8230F0396A11DB11DD2CF6C
:100F20000C94B9001F920F920FB60F9211242F93B9
:100F30003F934F935F936F937F938F939F93AF9361
:100F4000BF93EF93FF938091B900887F803609F4B7
:100F50004AC0F0F5883209F4A5C018F5803109F4CB
:100F600099C0B8F4882309F4F5C0883009F492C018
:100F7000FF91EF91BF91AF919F918F917F916F9171
:100F80005F914F913F912F910F900FBE0F901F9047
:100F90001895883109F486C0803251F78093450353
:100FA00014C0803409F49BC040F48033B9F3883313
:100FB000F9F68093450385ECAEC0803509F483C013
:100FC000883509F494C0883499F60E94B606D0CFCB
:100FD000883909F48AC038F5883729F050F4883602
:100FE00011F0803729F683E0809347031092A9021D
:100FF00055C0883809F479C0803919F0803809F073
:10100000B7CF8091A902803208F06FC0E091A902A9
:1010100081E08E0F8093A9028091BB00F0E0E7573A
:10102000FD4F80833BC0803B39F0D0F4803A09F417
:1010300077C0883A09F09CCF84E0809347031092F0
:10104000880210928702F0E0E0E009958091870223
:1010500081110FC081E0809387021092670209C05E
:10106000803C09F4A8CF883C09F4A5CF883B09F05F
:101070007FCFE091880281E08E0F80938802F0E0BC
:10108000E959FD4F80818093BB0090918802809147
:10109000870229C0809122038093BB0085EC809356
:1010A000BC0066CF9091440380914303981758F594
:1010B000E091440381E08E0F80934403F0E0ED5D06
:1010C000FC4F8081E9CFE091440381E08E0F809353
:1010D00044038091BB00F0E0ED5DFC4F8083909174
:1010E0004403809143039817C8F285E8D8CFE09174
:1010F000440381E08E0F809344038091BB00F0E0B5
:10110000ED5DFC4F80838091460381115ECF81E0CD
:101110008093210384EA8093BC001092470328CF78
:1011200085EC8093BC00109247038091A902803225
:1011300030F4E091A902F0E0E757FD4F1082609192
:10114000A90270E089E892E0F0E0E0E009951092F1
:10115000A9020ECF1092450338CF1F920F920FB6FF
:101160000F9211242F933F934F935F936F937F932D
:101170008F939F93AF93BF93CF93DF93EF93FF939F
:10118000C0916402D0916502CE010497069718F0D1
:10119000CE30D1051CF160E085E00E94440260E0A1
:1011A00086E00E9444022196C431D10509F1D09312
:1011B0006502C0936402FF91EF91DF91CF91BF91DF
:1011C000AF919F918F917F916F915F914F913F91DF
:1011D0002F910F900FBE0F901F901895C430D1051E
:1011E00014F461E0D9CFCE010A970497E0F6F9CF65
:1011F0001092650210926402DECF1F920F920FB61A
:101200000F9211242F933F934F935F936F937F938C
:101210008F939F93AF93BF93EF93FF9380911903A5
:101220008823B1F181E08093080380931803109222
:10123000190384E080931A0383B78E7F83BF809164
:10124000630280937A001092DE021092DD02809198
:101250001B0390911C03A0911D03B0911E0380936A
:10126000100390931103A0931203B09313031092F1
:10127000BB021092BC021092BD021092BE0280917D
:101280006F00826080936F0061E085E10E944402FC
:10129000FF91EF91BF91AF919F918F917F916F914E
:1012A0005F914F913F912F910F900FBE0F901F9024
:1012B0001895E1E7F3E01382128288EE93E0A0E054
:1012C000B0E084839583A683B7832DE132E0318338
:1012D000208325EC30E03587248724EC30E0378705
:1012E000268720EC30E0318B208B21EC30E0338BF3
:1012F000228B22EC30E0358B248B26EC30E0378BD0
:10130000268B118E128E138E148EEEE0F4E0138273
:10131000128284839583A683B7838FE292E09183C0
:10132000808384E690E090931B0480931A040895D0
:10133000789484B5826084BD84B5816084BD85B5B0
:10134000826085BD85B5816085BD80916E008160BC
:1013500080936E0010928100809181008260809362
:101360008100809181008160809381008091800064
:101370008160809380008091B10084608093B1008F
:101380008091B00081608093B00080919100826074
:101390008093910080919100816080939100809171
:1013A00090008160809390008091A1008260809382
:1013B000A1008091A10081608093A1008091A00094
:1013C00081608093A00080917A00846080937A008D
:1013D00080917A00826080937A0080917A008E7F7B
:1013E00080937A0080917A00806880937A001092CE
:1013F000C10060E084E10E94720280E190E00E94FE
:1014000079148093000162E089E00E94720262E038
:101410008AE00E94720260E080E10E94720261E054
:101420008FE00E94720261E08EE00E94720261E031
:1014300088E00E94720261E087E00E94720261E02F
:1014400086E10E94720260E086E10E94440261E04F
:1014500085E00E94720261E086E00E94720261E013
:1014600080E00E94720261E081E00E94720261E00D
:1014700082E00E94720261E084E00E94720260E0F9
:1014800080E10E94720261E085E10E94720260E0E8
:1014900085E10E944402F89410928000109281002D
:1014A000109285001092840080E190E09093890072
:1014B0008093880080918100886080938100809172
:1014C000810085608093810080916F0082608093AD
:1014D0006F00789483B7817F846083BF81E00E942E
:1014E000E2050AE0202E312C8FB7F894C090AF02AD
:1014F000D090B002E090B102F090B2028FBFC092E3
:101500001B03D0921C03E0921D03F0921E038091F6
:101510001A03843009F0B0C08091BB029091BC02E4
:10152000A091BD02B091BE02A7019601281B390B04
:101530004A0B5B0BDA01C9010B97A105B10568F4F1
:101540008091BB029091BC02A091BD02B091BE02FD
:10155000892B8A2B8B2B09F063C0C092BB02D092DF
:10156000BC02E092BD02F092BE0280E10E94AE0297
:10157000EC01C090B702D090B802E090B902F090B0
:10158000BA028090B3029090B402A090B502B090DD
:10159000B60220E030E040E751E4C701B6010E9406
:1015A000FC1487FF40C080911A03BE0190E080E0E8
:1015B0000E94A915A50194010E9490144B015C01A1
:1015C0008092B3029092B402A092B502B092B60299
:1015D00020E030E040E85FE3C701B6010E949014CC
:1015E0006093B7027093B8028093B9029093BA02E5
:1015F00020E030E040E751E40E94FC14811110C06B
:1016000020E030E040E751E4C501B4010E9401153B
:101610006093B3027093B4028093B5029093B602C4
:101620000E94910161CF20E030E047E953E4C50119
:10163000B4010E945B1618161CF410921A03F0CF26
:1016400020E030E849E853E4C501B4010E945B168C
:10165000181624F481E080931A03E2CF20E030E0F2
:101660004BE753E4C501B4010E945B16181614F44D
:1016700082E0F1CF83E0EFCF80911A03833021F431
:1016800080E00E94E205CCCF80911903811122C035
:10169000809118038823F1F061E086E10E94440202
:1016A00080911A03823021F061E082E00E944402BE
:1016B00010921803C0921403D0921503E0921603FF
:1016C000F0921703C0921003D0921103E09212031C
:1016D000F092130380911A03823011F40C94841356
:1016E0008AE00E941B022091090330910A03892B92
:1016F00041F42F5F3F4F30930A0320930903C0E06A
:1017000008C012161306DCF710920A0310920903A0
:10171000C1E089E00E941B0220910B0330910C0371
:10172000892B41F42F5F3F4F30930C0320930B0321
:1017300040E008C012161306DCF710920C0310925A
:101740000B0341E080910B0390910C03209109035E
:1017500030910A03293E334014F40C946314893EFB
:1017600093400CF492C015E0C12ED12CD0920F03FF
:10177000C0920E0381E08093080381E080934D03C3
:1017800088E680936F0310924E031092700360E01E
:101790008EE094E00E94920481E00E9424030E9463
:1017A000C0026B017C0180914703811193C081E0ED
:1017B00080934703809346039FEF909345031092D5
:1017C000440396E090934303809322038091220385
:1017D000806D8093220380912103813009F084C1C0
:1017E000109221030E94C0026B017C0180912203B0
:1017F0008093BB008091490390914A03A0914B03D1
:10180000B0914C03892B8A2B8B2BA1F00E94C00234
:101810000091490310914A0320914B0330914C03EE
:101820006C197D098E099F090617170728073907C4
:1018300008F471C08091BC0083FDD8CF85EC809303
:10184000BC000E94C0026B017C0180914703813083
:1018500009F44CC180914403873008F069C180913C
:101860004403E3E2F3E0A1EEB2E090E0981709F45C
:1018700057C021912D939F5FF9CFD4E0ED2EF12C2D
:10188000F0920F03E0920E0375CF83E090E0909307
:101890000F0380930E036ECF80910803811113C054
:1018A000CC2309F46ACF80910803811107C041E07D
:1018B00050E050930F0340930E035FCF80910803D5
:1018C000882309F45ACF10920F0310920E0310923E
:1018D000080353CF8091490390914A03A0914B0391
:1018E000B0914C03892B8A2B8B2B09F45CCF0E947F
:1018F000C0020091490310914A0320914B0330919B
:101900004C036C197D098E099F09061717072807D4
:10191000390708F048CF809148030E94E50280E033
:101920001092E0028093DF028EE094E00E944B046C
:10193000AC01C4E055954795CA95E1F74770552726
:101940006AE0649F9001659F300D11248F70992784
:10195000820F931F809301038EE094E00E944B045A
:10196000AC0197FF02C0415F5F4FA4E055954795DA
:10197000AA95E1F7CAE0C49F9001C59F300D1124DC
:1019800060E170E00E94FB16820F931F80930203B8
:101990008EE094E00E944B04AC01B4E0559547956D
:1019A000BA95E1F743705527C49F9001C59F300D4C
:1019B00011248F709927820F931F809303038EE069
:1019C00094E00E944B04AC0197FF02C0415F5F4F5F
:1019D000F4E055954795FA95E1F76AE0649F900128
:1019E000659F300D112460E170E00E94FB16820FAC
:1019F000931F809304038EE094E00E944B04AC019B
:101A000097FF02C0415F5F4FE4E055954795EA9527
:101A1000E1F76AE0649F9001659F300D112460E159
:101A200070E00E94FB16820F931F809305038EE0E7
:101A300094E00E944B04AC0197FF02C0415F5F4FEE
:101A400074E0559547957A95E1F76AE0649F9001B7
:101A5000659F300D112460E170E00E94FB16820F3B
:101A6000931F809306038EE094E00E944B049C0138
:101A700097FF02C0215F3F4F64E0359527956A9537
:101A8000E1F74AE0429F6001439FD00C112460E1DE
:101A900070E00E94FB16C80ED91EC0920703E091A9
:101AA000DD02F091DE02C0910E03D0910F03E5310B
:101AB000F10508F05DC0E15AF24F0C940F179A0D32
:101AC0009C0EBE0EDC0EED0E9C10B910DF100F1137
:101AD000341168118811B211D211231248128312E5
:101AE000A812DE12F912A10F85EEA9CE809149034A
:101AF00090914A03A0914B03B0914C03892B8A2B00
:101B00008B2B09F4A2CE0E94C002009149031091D0
:101B10004A0320914B0330914C036C197D098E09C7
:101B20009F09061717072807390708F08ECEF3CE4E
:101B300087E097CE80910303309102032AE0622F61
:101B40000E94CD168093CF029093D00281E08093C3
:101B5000D102832F0E94CD168093D2029093D3029C
:101B6000C130D10509F022C1D093DE02C093DD025D
:101B700080910E0390910F038430910509F05FC5A9
:101B800025E030E03093DE022093DD0280911A03DD
:101B9000C0901B03D0901C03E0901D03F0901E0327
:101BA000813021F58091140390911503A0911603C3
:101BB000B0911703A7019601281B390B4A0B5B0B49
:101BC000DA01C901803D9740A105B10578F482E4AE
:101BD0008093CF0281E48093D00280E28093D1028F
:101BE0008CE48093D2028FE68093D3028091C50269
:101BF0009091C602A091C702B091C802B701A60198
:101C0000481B590B6A0B7B0B493E5340610571051C
:101C100020F4892B8A2B8B2B91F4C092C502D09291
:101C2000C602E092C702F092C80285E10E94AE02AD
:101C30008436910508F00DC588EC8093C40280912C
:101C4000C302823019F483E08093C3028091BF0203
:101C50009091C002A091C102B091C202C81AD90AE3
:101C6000EA0AFB0AFAEFCF16D104E104F10420F0EE
:101C700020910D03222331F021E08091D1028032A6
:101C800009F420E08091C3029091D202903209F0D1
:101C9000E8C4813009F0E8C490E0FC01E153FD4F55
:101CA000E081D0E0C0E0EA3738F4F0E0EE0FFF1F4B
:101CB000EF5FFE4FC081D181880F991FFC01EB506F
:101CC000FE4F80819181C82BD92B2111C06461E026
:101CD00084E00E94440210E000E0CE01002E02C029
:101CE000969587950A94E2F761E080FF60E080E0D6
:101CF0000E94440260E082E00E94440261E082E0CF
:101D00000E94440261E081E00E94440260E081E0C0
:101D10000E9444020F5F1F4F0C301105F1F6C09175
:101D2000C40261E084E00E947202C111A1C460E0BB
:101D300084E00E944402BAC431E030930D038091E4
:101D40000603409105032AE0622F0E94CD1680937E
:101D5000CF029093D0023093D102842F0E94CD16EF
:101D60008093D2029093D302C130D105F9F482E07E
:101D700090E09093DE028093DD02FACE8091010321
:101D800090E29093CF029093D0029093D1026AE0B8
:101D90000E94CD168093D2029093D302C130D10518
:101DA00029F41092DE021092DD02E2CE83E090E090
:101DB000229709F0DDCEDDCF809104030E943F051C
:101DC000C130D10571F3E4E0F0E0229709F0D0CE04
:101DD000F093DE02E093DD02CBCE80911B03909165
:101DE0001C03A0911D03B0911E034091C9025091A4
:101DF000CA026091CB027091CC028C019D01041B40
:101E0000150B260B370B093E13402105310520F435
:101E1000452B462B472B59F58093C9029093CA0254
:101E2000A093CB02B093CC0284E10E94AE02BC012D
:101E3000990F880B990B0E94AB1523E333E343E51D
:101E400050E40E94601620E030E040E85AE30E942F
:101E5000601620E030E040E05FE30E948F142AE04B
:101E600037ED43E25CE30E9401152B013C01109128
:101E70000001163409F047C020E030E040E151E4B1
:101E8000C301B2010E94601620E030E040EA50E455
:101E90000E94011520E030E040E052E40E949014DE
:101EA0006B017C0120E030E048EC52E40E94011517
:101EB0000E947A156093CF0220E030E040E251E4C6
:101EC000C701B6010E9401150E947315CB01B10133
:101ED0000E94FB168093D00280E28093D102C7015A
:101EE000B6010E947315CB01B1010E94FB168093CD
:101EF000D2021093D302C130D10509F452CF2297F8
:101F000009F036CE4ECF81E080930D0320E030E023
:101F100040E251E4C301B2010E9401150E947A150A
:101F20006093CF02C301B2010E947315CB01B101CE
:101F30000E94FB168093D00280E28093D1028AE255
:101F4000D6CF0091D4021091D502E091D802F09141
:101F5000D902A090D602B090D7024091DC0244236F
:101F600079F18091030390E08E1B9F0B60E17EE08E
:101F7000869F9001879F300D969F300D1124809190
:101F8000020390E08A199B095CE3589FB001599FB6
:101F9000700D1124260F371F8091010390E0801BE4
:101FA000910B280F391FC9016CE370E00E94FB16EA
:101FB000F62E53E6C52EC61664F583E6F82E29C024
:101FC0000115110531F4A114B10419F4309709F485
:101FD0006EC081E080930D0380E19EE0E89F900158
:101FE000E99F300DF89F300D11245CE35A9DC0012C
:101FF0005B9D900D1124280F391F200F311FC9013F
:102000006CE370E00E94FB16F62E93E6D92ED616EE
:10201000A4F2C9016CE370E00E94FB16382F2AE09D
:102020008F2D622F0E94D9168093CF029093D002F9
:1020300081E08093D102832F622F0E94D916809372
:10204000D2029093D302C130D10509F4AACE2297CF
:1020500009F08ECD4423C9F11092DC028091050372
:1020600090E02091DA023091DB02821B930B909377
:10207000DB028093DA028091030390E08E1B9F0BBA
:102080009093D9028093D8028091020390E08A193C
:102090009B099093D7028093D6028091010390E030
:1020A000801B910B9093D5028093D40261CD81E087
:1020B00080930D031092CF021092D0028093D10230
:1020C0001092D2021092D302BECF012B21F5AB2881
:1020D00011F5EF2B01F581E08093DC028091010383
:1020E00090E09093D5028093D4028091020390E017
:1020F0009093D7028093D6028091030390E090934F
:10210000D9028093D8028091050390E09093DB027E
:102110008093DA022DCD1092D5021092D402109243
:10212000D7021092D6021092D9021092D8021092C1
:10213000DB021092DA021CCD83E58093CF0285E4A6
:102140008093D00280E28093D10294E79093D202F0
:102150008093D302C130D10509F423CE229709F030
:1021600007CDB6E0EB2EF12CF092DE02E092DD021C
:10217000FFCC88E48093CF028FE68093D00280E288
:102180008093D10285E78093D20282E78093D302C5
:10219000C130D10571F487E090E09093DE02809326
:1021A000DD028091030390E09093CE028093CD02F4
:1021B000DFCC229709F0DCCC88E090E0DACDE0912A
:1021C000CD02F091CE02CF01B1010E94E7166093DB
:1021D000CF028093D00280E28093D1028093D2021A
:1021E0008093D302C230D10551F43196E831F10524
:1021F00009F455C0F093CE02E093CD02B9CC2197FB
:1022000009F0B6CCE0900603009105032091040389
:102210004E2F6091020380E00E94C404CDCF8EE473
:102220008093CF028093D00280E28093D10289E62E
:102230008093D2028EE68093D302C130D10549F457
:1022400089E090E09093DE028093DD0280910203AA
:10225000AACF229709F08CCC3092DE022092DD02C8
:102260008FE68093D20284CC80E28093CF02809369
:10227000D0028093D102E091CD02F091CE02CF0145
:10228000B1010E94E7166093D2028093D302C2305C
:10229000D10551F43196EC33F10509F0ABCF109232
:1022A000CE021092CD0264CC219709F061CCE0906F
:1022B00006030091050320910403409103036E2F50
:1022C00080E00E94C4043092DE022092DD0250CCF5
:1022D00084E68093CF028FE68093D00280E28093E1
:1022E000D10285E58093D2028093D302C130D1051B
:1022F00049F48BE090E09093DE028093DD028091C0
:10230000040351CF229709F033CC8CE090E031CD1B
:10231000A090CD02B090CE028A2D0E943F05C2301F
:10232000D10569F42FEFA21AB20A38E0A316B1045E
:1023300009F4D0C0B092CE02A092CD0219CC219760
:1023400009F016CCC0900703E09006030091050346
:102350002A2D4091030360910203809101030E94A2
:10236000C404D3CF84E68093CF028FE68093D0025B
:1023700080E28093D1028EE48093D2028093D302D4
:10238000C130D10549F48DE090E09093DE02809356
:10239000DD028091050307CF229709F0E9CB8EE09B
:1023A00090E0E7CC80E28093CF028093D0028093CC
:1023B000D1020091CD021091CE02C801B1010E945C
:1023C000E7166093D2028093D302C230D10559F54B
:1023D0000F5F1F4F1093CE020093CD022091060392
:1023E000E22FF0E0EE0FFF1FE150FE4F8081918160
:1023F00001960817190731F481E090E09093CE021E
:102400008093CD028C2D837009F0B2CB223009F07D
:10241000AFCB8091CD029091CE024D9709F0A8CB21
:10242000E1E0F0E0E7CE219709F0A2CBE0900603CF
:102430002091040340910303609102038091010302
:102440000E94C404ACCF8EE48093CF028093D0026C
:1024500080E28093D1028FE68093D2028EE6809351
:10246000D302C130D10549F48FE090E09093DE02B1
:102470008093DD028091060396CEE0E1CE2ED12C32
:10248000229709F075CBD092DE02C092DD0270CBAC
:10249000E090CD02F090CE02C701B1010E94E71694
:1024A0006093CF028093D00280E28093D102809328
:1024B000D2028093D302C230D10599F42FEFE21AF1
:1024C000F20A3DE0E316F10429F0F092CE02E09228
:1024D000CD024ECB41E050E05093CE024093CD026E
:1024E00047CB219709F044CB0091050320910403C9
:1024F0004091030360910203809101030E94C40490
:1025000080E190E036CC89E58093CF0285E480932A
:10251000D00280E28093D10281E48093D20282E7EC
:102520008093D302C130D10561F4E1E1F0E0F09392
:10253000DE02E093DD02DD24D092CE02C092CD0215
:1025400017CB72E1C72ED12C229709F011CB9BCF6C
:1025500082E38093CF0280E38093D00280E2809375
:10256000D102C090CD02D090CE02C601B1010E942E
:10257000E7166093D2028093D302C230D10551F4A2
:102580002FEFC21AD20A34E6C316D104A9F644E1E9
:1025900050E0A2CF219709F0EBCAE090060300912A
:1025A000050320910403409103036091020380918D
:1025B00001030E94C40482E190E0DBCB84E78093B6
:1025C000CF0285E48093D00280E28093D1028EE630
:1025D0008093D2028093D302C130D10519F4E3E194
:1025E000F0E0F6CB229709F0C3CA66E0C62ED12CE4
:1025F0004ACF80E28093CF028093D0028093D102B1
:102600008AE28093D202809100018093D302C1308C
:10261000D10551F456E0E52EF12CF092DE02E09265
:10262000DD020E94C105A4CA229709F0A1CA833421
:1026300021F486E4809300019BCA83E4FBCF0397D7
:1026400009F0A4CA44E150E05093DE024093DD0259
:102650009DCA883C910510F484E6EFCA1092C4022A
:10266000EECA833009F418CB853000F520E014CB96
:10267000ECE0F1E08491EFEFE80FED3008F057CB9C
:10268000F0E0EB5BFC4E0C940F175213ED13F213BA
:10269000FF13970E970E0C1414141C142914970E84
:1026A0003614481484B5806884BDC7BD8091C302C8
:1026B0008F5F8093C30240911B0350911C03609174
:1026C0001D0370911E030091BF021091C002209162
:1026D000C1023091C2026A017B01C01AD10AE20A2A
:1026E000F30A97018601053F11402105310540F0AD
:1026F0004093BF025093C0026093C1027093C20224
:10270000853011F41092C30280911A03813021F0B8
:1027100080911A03823051F54091140350911503B2
:10272000609116037091170380911B0390911C0315
:10273000841B950B803DE7E09E07C0F46CE271E0DE
:102740000E94E7168639910508F0AFC061E08FE07E
:102750000E94440261E08EE00E94440261E088E051
:102760000E94440261E087E00E94440240911B0302
:1027700050911C0360911D0370911E0380910E0304
:1027800090910F03892B41F0409310035093110354
:10279000609312037093130310920F0310920E03B1
:1027A00010920D038091100390911103A0911203D8
:1027B000B0911303481B590B6A0B7B0B49385341EB
:1027C0006105710510F40C94100B809119038111AF
:1027D0000C94100B81E00C94410B84B5806284BD95
:1027E000C8BD64CF809180008068809380000C2EEB
:1027F000000CDD0BD0938900C093880057CF8091E7
:1028000080008062809380000C2E000CDD0BD09342
:102810008B00C0938A004ACF8091B000806880937B
:10282000B000C093B30042CF8091B000806280932B
:10283000B000C093B4003ACF80919000806880933C
:1028400090000C2E000CDD0BD0939900C0939800E3
:102850002DCF809190008062809390000C2E000C10
:10286000DD0BD0939B00C0939A0020CF8091A000F5
:1028700080688093A0008091A0008F7B8093A0004F
:102880000C2E000CDD0BD093A900C093A8000ECF36
:102890008091A00080628093A0000C2E000CDD0BC4
:1028A000D093AB00C093AA0001CF60E08FE00E94FC
:1028B000440260E08EE00E94440260E088E00E94F2
:1028C000440260E050CF893E934014F00C943D0CDC
:1028D000442311F40C94500C8091080381110C9442
:1028E0004C0C22E030E030930F0320930E030C9445
:1028F000BD0BF999FECF92BD81BDF89A992780B59D
:102900000895262FF999FECF1FBA92BD81BD20BD33
:102910000FB6F894FA9AF99A0FBE01960895505896
:10292000BB27AA270E94A7140C9421160E941316F5
:1029300038F00E941A1620F039F49F3F19F426F45B
:102940000C9410160EF4E095E7FB0C940A16E92F90
:102950000E94321658F3BA17620773078407950767
:1029600020F079F4A6F50C9454160EF4E0950B2E95
:10297000BA2FA02D0B01B90190010C01CA01A001D1
:102980001124FF27591B99F0593F50F4503E68F12C
:102990001A16F040A22F232F342F4427585FF3CF6D
:1029A000469537952795A795F0405395C9F77EF43E
:1029B0001F16BA0B620B730B840BBAF09150A1F087
:1029C000FF0FBB1F661F771F881FC2F70EC0BA0F0D
:1029D000621F731F841F48F4879577956795B79595
:1029E000F7959E3F08F0B0CF9395880F08F0992790
:1029F000EE0F9795879508950E94E61508F481E0FB
:102A000008950E9415150C9421160E941A1658F06C
:102A10000E94131640F029F45F3F29F00C940A1627
:102A200051110C9455160C9410160E94321668F32E
:102A30009923B1F3552391F3951B550BBB27AA2777
:102A400062177307840738F09F5F5F4F220F331FB1
:102A5000441FAA1FA9F335D00E2E3AF0E0E832D079
:102A600091505040E695001CCAF72BD0FE2F29D07C
:102A7000660F771F881FBB1F261737074807AB074E
:102A8000B0E809F0BB0B802DBF01FF2793585F4FC3
:102A90003AF09E3F510578F00C940A160C945516A6
:102AA0005F3FE4F3983ED4F3869577956795B795A5
:102AB000F7959F5FC9F7880F911D9695879597F9B0
:102AC0000895E1E0660F771F881FBB1F6217730729
:102AD0008407BA0720F0621B730B840BBA0BEE1F3E
:102AE00088F7E09508950E947A156894B1110C94C6
:102AF000551608950E943A1688F09F5798F0B92FFE
:102B00009927B751B0F0E1F0660F771F881F991F22
:102B10001AF0BA95C9F714C0B13091F00E9454165A
:102B2000B1E008950C945416672F782F8827B85F6A
:102B300039F0B93FCCF3869577956795B395D9F77A
:102B40003EF490958095709561957F4F8F4F9F4F84
:102B50000895E89409C097FB3EF490958095709590
:102B600061957F4F8F4F9F4F9923A9F0F92F96E9D9
:102B7000BB279395F695879577956795B795F1114E
:102B8000F8CFFAF4BB0F11F460FF1BC06F5F7F4FEB
:102B90008F4F9F4F16C0882311F096E911C07723FD
:102BA00021F09EE8872F762F05C0662371F096E806
:102BB000862F70E060E02AF09A95660F771F881FD5
:102BC000DAF7880F9695879597F90895990F000879
:102BD000550FAA0BE0E8FEEF16161706E807F907EF
:102BE000C0F012161306E407F50798F0621B730B8A
:102BF000840B950B39F40A2661F0232B242B252B0B
:102C000021F408950A2609F4A140A6958FEF811DAD
:102C1000811D089597F99F6780E870E060E008954E
:102C20009FEF80EC089500240A94161617061806E4
:102C30000906089500240A941216130614060506C0
:102C40000895092E0394000C11F4882352F0BB0F51
:102C500040F4BF2B11F460FF04C06F5F7F4F8F4FB4
:102C60009F4F089557FD9058440F551F59F05F3FEF
:102C700071F04795880F97FB991F61F09F3F79F09E
:102C800087950895121613061406551FF2CF469520
:102C9000F1DF08C0161617061806991FF1CF8695A2
:102CA0007105610508940895E894BB276627772786
:102CB000CB0197F908950E94E61508F48FEF089567
:102CC0000E9473160C9421160E94131638F00E946D
:102CD0001A1620F0952311F00C940A160C94101675
:102CE00011240C9455160E94321670F3959FC1F36F
:102CF000950F50E0551F629FF001729FBB27F00DAA
:102D0000B11D639FAA27F00DB11DAA1F649F6627FE
:102D1000B00DA11D661F829F2227B00DA11D621F4D
:102D2000739FB00DA11D621F839FA00D611D221F07
:102D3000749F3327A00D611D231F849F600D211DEB
:102D4000822F762F6A2F11249F5750409AF0F1F06E
:102D500088234AF0EE0FFF1FBB1F661F771F881FD7
:102D600091505040A9F79E3F510580F00C940A16EF
:102D70000C9455165F3FE4F3983ED4F3869577950F
:102D80006795B795F795E7959F5FC1F7FE2B880F7D
:102D9000911D9695879597F90895991B79E004C040
:102DA000991F961708F0961B881F7A95C9F780958A
:102DB000089587FB082E062687FD819567FD61959E
:102DC0000E94CD160EF4919507FC81950895AA1BDB
:102DD000BB1B51E107C0AA1FBB1FA617B70710F006
:102DE000A61BB70B881F991F5A95A9F78095909538
:102DF000BC01CD01089597FB072E16F4009407D06F
:102E000077FD09D00E94E71607FC05D03EF49095A7
:102E100081959F4F0895709561957F4F0895EE0FAE
:102E2000FF1F0590F491E02D0994F894FFCF209DA9
:102E300002080215061906880699049D0409029DD8
:102E400006990600000000000000000000000000DD
:102E50000000000000000000000000000000000072
:102E60000000000000000000000000000000000062
:102E70000000000000000000000000000000000052
:102E80000000008106000000000000000000009D1E
:102E900002080215061906880699049D0409029D78
:102EA000069906000000000000000000000000007D
:102EB000008D069D06950000009504850400008C99
:102EC00006080200000000940009028D029D0285A0
:102ED0000600000000990400009C02000018020097
:102EE0000088060000000000000000000000000054
:102EF0000000009C0414041C069506850400008C48
:102F000004040000000000000008040C041C04007D
:102F10000000000404990494041C00000018000040
:102F20000098062000020040000001000800001F79
:102F3000001D001F001E001F001E001F001F001E9E
:102F4000001F001E001F00000000001A01A801BBA6
:102F5000006701EC00CA00DE00000000009204657A
:102F600004C1043B045E044B043C040D0A00457894
:102F7000636565646564206D6178696D756D206E4B
:102F8000756D626572206F66207772697465730073
:107E0000112484B714BE81FFF1D085E080938100F6
:107E1000589A82E08093C00088E18093C10086E098
:107E20008093C20080E18093C4008EE0C9D0259A7F
:107E300086E028E13EEF91E03093850020938400B6
:107E400096BBB09BFECF1D9AA8958150A9F7CC2474
:107E5000DD2488248394B5E0AB2EA1E19A2EF3E0D3
:107E6000BF2EA2D0813461F49FD0082FAFD002384A
:107E700011F0013811F484E001C083E08DD089C095
:107E8000823411F484E103C0853419F485E0A6D06E
:107E900080C0853579F488D0E82EFF2485D0082F5E
:107EA00010E0102F00270E291F29000F111F8ED060
:107EB00068016FC0863521F484E090D080E0DECF89
:107EC000843609F040C070D06FD0082F6DD080E0AC
:107ED000C81680E7D80618F4F601B7BEE895C0E0EA
:107EE000D1E062D089930C17E1F7F0E0CF16F0E70C
:107EF000DF0618F0F601B7BEE89568D007B600FCBB
:107F0000FDCFA601A0E0B1E02C9130E011968C915C
:107F1000119790E0982F8827822B932B1296FA01C5
:107F20000C0187BEE89511244E5F5F4FF1E0A03849
:107F3000BF0751F7F601A7BEE89507B600FCFDCFD5
:107F400097BEE89526C08437B1F42ED02DD0F82EF8
:107F50002BD03CD0F601EF2C8F010F5F1F4F849187
:107F60001BD0EA94F801C1F70894C11CD11CFA9403
:107F7000CF0CD11C0EC0853739F428D08EE10CD03F
:107F800085E90AD086E17ACF813511F488E018D0EE
:107F90001DD080E101D065CF982F8091C00085FF72
:107FA000FCCF9093C60008958091C00087FFFCCF5E
:107FB0008091C00084FD01C0A8958091C6000895FD
:107FC000E0E6F0E098E1908380830895EDDF803271
:107FD00019F088E0F5DFFFCF84E1DECF1F93182F83
:107FE000E3DF1150E9F7F2DF1F91089580E0E8DF49
:067FF000EE27FF270994B3
:027FFE00040479
:00000001FF
