:100000000C9491000C94B9000C94B9000C94A508C0
:100010000C94B9000C94B9000C94B9000C94B9007C
:100020000C94B9000C94B9000C94B9000C945E08BF
:100030000C94B9000C94B9000C94B9000C94B9005C
:100040000C94F7060C94B9000C94C5060C949F060A
:100050000C94B9000C94B9000C94B9000C94B9003C
:100060000C9443070C94B9000C9441070C9441077D
:100070000C9441070C9441070C9441070C944107E0
:100080000C9441070C9441070C9441070C944107D0
:100090000C9441070C9441070C9441070C944107C0
:1000A0000C9441070C9441070C9441070C944107B0
:1000B0000C94410700000000240027002A002D00B6
:1000C00000000000250028002B002E00000000008A
:1000D0002300260029002C00040404040404040462
:1000E00002020202020203030303030305050505DE
:1000F00001020408102040800102040810200102BF
:100100000408102004080102090C0A08000201007A
:1001100000030407000000000000000000000000D1
:10012000010911241FBECFEFD8E0DEBFCDBF12E022
:10013000A0E0B1E0E2E1FCE202C005900D92AA3C31
:10014000B107D9F724E0AAECB2E001C01D92AF37A5
:10015000B207E1F710E0C1E9D0E004C02197FE0149
:100160000E940116C039D107C9F70E9440090C94BA
:1001700007160C940000EFE7F3E09C012B5F3F4F64
:10018000DC014D91CD014193A217B307C9F7089542
:10019000FC01538D448D252F30E0842F90E0821B8D
:1001A000930B541710F0CF96089501970895FC0112
:1001B000918D828D981761F0A28DAE0FBF2FB11D6A
:1001C0005D968C91928D9F5F9F73928F90E00895C2
:1001D0008FEF9FEF0895FC01918D828D981731F07C
:1001E000828DE80FF11D858D90E008958FEF9FEFD0
:1001F0000895FC01918D228D892F90E0805C9F4FA6
:10020000821B91098F7399270895FC01A48DA80F73
:10021000B92FB11DA35ABF4F2C91848D90E0019648
:100220008F739927848FA689B7892C93A089B18968
:100230008C91837080648C93938D848D981306C009
:100240000288F389E02D80818F7D80830895EF926D
:10025000FF920F931F93CF93DF93EC0181E0888F80
:100260009B8D8C8D98131AC0E889F989808185FF50
:1002700015C09FB7F894EE89FF896083E889F989F2
:1002800080818370806480839FBF81E090E0DF91F4
:10029000CF911F910F91FF90EF900895F62E0B8D47
:1002A00010E00F5F1F4F0F731127E02E8C8D8E1102
:1002B0000CC00FB607FCFACFE889F989808185FF69
:1002C000F5CFCE010E940501F1CFEB8DEC0FFD2F94
:1002D000F11DE35AFF4FF0829FB7F8940B8FEA8924
:1002E000FB8980818062CFCFCF93DF93EC01888D33
:1002F0008823B9F0AA89BB89E889F9898C9185FDA1
:1003000003C0808186FD0DC00FB607FCF7CF8C912E
:1003100085FFF2CF808185FFEDCFCE010E940501E0
:10032000E9CFDF91CF91089584ED93E00E94F90029
:1003300021E0892B09F420E0822F089580E090E0ED
:10034000892B29F00E94940181110E94000080E015
:1003500090E0892B49F080E090E0892B29F00E9401
:10036000000081110C9400000895AF92BF92CF92CB
:10037000DF92EF92FF920F931F93CF93DF936C0165
:100380007B018B01040F151FEB015E01AE18BF0846
:10039000C017D10759F06991D601ED91FC910190F8
:1003A000F081E02DC6010995892B79F7C501DF9110
:1003B000CF911F910F91FF90EF90DF90CF90BF9062
:1003C000AF90089581508D3008F03DC0E82FF0E0E7
:1003D000E451FE4F0C94011603020702F901FF01DC
:1003E000230223020A02100214021A0223021E022E
:1003F0002402809180008F778093800008958091FF
:1004000080008F7DF9CF84B58F7784BD089584B542
:100410008F7DFBCF8091B0008F778093B0000895DF
:100420008091B0008F7DF9CF809190008F7780937D
:1004300090000895809190008F7DF9CF8091A00069
:100440008F778093A00008958091A0008F7DF9CFD1
:10045000CF93DF93282F30E0F901E85FFE4F8491BE
:10046000F901E051FF4FD491F901E852FF4FC491D7
:10047000CC23A1F081110E94E201EC2FF0E0EE0FFD
:10048000FF1FE453FF4FA591B491EC91ED2381E060
:1004900090E009F480E0DF91CF91089580E090E052
:1004A000FACF1F93CF93DF93282F30E0F901E85F55
:1004B000FE4F8491F901E051FF4FD491F901E852C8
:1004C000FF4FC491CC23A9F0162F81110E94E201A5
:1004D000EC2FF0E0EE0FFF1FE054FF4FA591B49119
:1004E0008FB7F894EC91111108C0D095DE23DC93FE
:1004F0008FBFDF91CF911F910895DE2BF8CFCF935F
:10050000DF9390E0FC01E051FF4F249188529F4F10
:10051000FC0184918823C9F090E0880F991FFC01A9
:10052000EC54FF4FA591B491FC01E054FF4FC591ED
:10053000D49161110DC09FB7F8948C9120958223BE
:100540008C938881282328839FBFDF91CF910895C2
:10055000623051F49FB7F8943C91822F80958323A9
:100560008C93E8812E2BEFCF8FB7F894EC912E2B44
:100570002C938FBFEACF8E50806480937C00809153
:100580007A00806480937A0080917A0086FDFCCFA7
:10059000809178009091790008953FB7F894809108
:1005A000130390911403A0911503B091160326B57F
:1005B000A89B05C02F3F19F00196A11DB11D3FBF9B
:1005C000BA2FA92F982F8827BC01CD01620F711D6A
:1005D000811D911D43E0660F771F881F991F4A9563
:1005E000D1F708951F93CF93DF93C1E0C093CE025C
:1005F000882399F1D091B8001091BA008091BC0085
:100600008A7B8093BC0060E082E10E94510260E03E
:1006100083E10E9451021092AA03C093A903109291
:10062000840361E082E10E94510261E083E10E9463
:1006300051028091B9008E7F8093B9008091B900FA
:100640008D7F8093B90080E28093B80085E4809329
:10065000BC001093BA00D093B800DF91CF911F91E6
:100660000895CF92DF92EF92FF920F931F93CF9353
:10067000DF93D091D30381E0D13208F09CC0C091C8
:10068000D2030E94CD026B017C018091AA038111EB
:100690006CC082E08093AA0381E08093A9038FEF6E
:1006A0008093A8031092A703D093A603A2EBB3E014
:1006B000E6E8F3E080E0D8138DC0109285038091C6
:1006C0008503CC0FC82BC0938503809184038130B0
:1006D00009F084C0109284030E94CD026B017C015A
:1006E000809185038093BB008091AC039091AD0312
:1006F000A091AE03B091AF03892B8A2B8B2BA1F075
:100700000E94CD020091AC031091AD032091AE0385
:100710003091AF036C197D098E099F0906171707E1
:100720002807390708F442C08091BC0083FDD8CF68
:1007300085EC8093BC000E94CD026B017C0180910E
:10074000AA03823009F44CC08091A8038F3F09F4BA
:1007500069C08091A803803209F466C08091A80323
:10076000803309F463C084E026C08091AC0390918B
:10077000AD03A091AE03B091AF03892B8A2B8B2BD5
:1007800009F483CF0E94CD020091AC031091AD0318
:100790002091AE033091AF036C197D098E099F093A
:1007A000061717072807390708F06FCF8091AB03AA
:1007B0000E94F20285E01092B1031092D3031092CE
:1007C000B003DF91CF911F910F91FF90EF90DF90D9
:1007D000CF9008959D9191938F5F6DCF85EEA9CFB6
:1007E0008091AC039091AD03A091AE03B091AF03A3
:1007F000892B8A2B8B2B09F4A2CF0E94CD0200916A
:10080000AC031091AD032091AE033091AF036C198E
:100810007D098E099F09061717072807390708F071
:100820008ECFC4CF80E0C7CF82E0C5CF83E0C3CFF7
:100830002091EF02260F3327331F21323105ECF4CC
:100840002091AA03FC0190E080E0243069F082E06E
:100850000895A091EF022191AC0141535D4FA40F87
:10086000B52FB11D2C930196861798F38091EF0256
:10087000680F6093EF0280E0089581E00895089585
:10088000E0913E0380913D03E81730F4F0E0E15C35
:10089000FC4F808190E008958FEF9FEF0895909135
:1008A0003E0380913D032FEF3FEF981748F4E92F67
:1008B000F0E0E15CFC4F208130E09F5F90933E03CD
:1008C000C901089580913D0390913E03891B990BC6
:1008D0000895CF92DF92EF92FF920F931F93CF93E1
:1008E000DF937C01CB018A012091B003222389F0A0
:1008F000EB016B01C40ED51ECC15DD0569F06991C5
:10090000D701ED91FC910190F081E02DC70109958F
:10091000F3CF642F0E941804C801DF91CF911F917B
:100920000F91FF90EF90DF90CF900895CF93DF93DA
:100930001F92CDB7DEB769832091B0032223F9F06F
:100940002091D303203258F021E030E0FC013383C2
:10095000228390E080E00F90DF91CF910895809105
:10096000B103E82FF0E0EE54FC4F998190838F5F44
:100970008093B1038093D30381E090E0ECCF61E0FA
:10098000CE0101960E941804F7CF682F81E794E00A
:100990000C949604CF92DF92EF92FF920F931F93E5
:1009A000CF93DF93C82FD62EF42E122F81E08093A1
:1009B000B00388E68093D2031092B1031092D30360
:1009C00090E080E00E94C5048C2F90E0CAE0D0E067
:1009D000BE010E94ED1524E0660F771F2A95E1F70E
:1009E000860F971F0E94C5048D2D90E0BE010E94C6
:1009F000ED1534E0660F771F3A95E1F7860F971FE4
:100A00000E94C5048F2D90E0BE010E94ED1544E0C8
:100A1000660F771F4A95E1F7860F971F0E94C5045E
:100A2000812F90E0BE010E94ED1554E0660F771F04
:100A30005A95E1F7860F971F0E94C504802F90E01A
:100A4000BE010E94ED15E4E0660F771FEA95E1F71D
:100A5000860F971F0E94C5048E2D90E0BE010E9454
:100A6000ED15F4E0660F771FFA95E1F7860F971FF3
:100A70000E94C5048C2D90E0BE010E94ED15A4E0FB
:100A8000660F771FAA95E1F7860F971F0E94C5048E
:100A9000DF91CF911F910F91FF90EF90DF90CF905A
:100AA0000C94310390E080E00895CF93DF93FC0134
:100AB00001900020E9F73197AF01481B590BBC01A9
:100AC00084ED93E00E94B501EC0142E050E06BE45C
:100AD00072E084ED93E00E94B5018C0F9D1FDF91C1
:100AE000CF91089520917D0330917E032F5F3F4F7A
:100AF00030937E0320937D0340917D0450917E04CA
:100B00004115510519F04217530734F48EE492E071
:100B10000E94550580E00895682F80E190E00E94D2
:100B2000731381E00895CF92EF920F93CF93C82F64
:100B3000E0913B03F0913C033797ED30F10500F570
:100B4000EC55FA4F0C940116B105C0052C06C005F2
:100B50003906C0054806C0055106C0055806C0053F
:100B60005D06C0906503E0906403009163032091EB
:100B70006203409130036091600380E00E94CA04E8
:100B800060E08FE00E94510260E08EE00E9451021E
:100B900060E088E00E94510260E087E00E9451021C
:100BA00060E081E00E94510260E082E00E94510218
:100BB00060E080E00E94510260E084E00E94510207
:100BC00060E086E10E94510260E085E00E945102EF
:100BD00060E086E00E94510260E085E10E945102DF
:100BE00081E08093770310921B0310921C031092F4
:100BF0001D0310921E0310921F03109220031092E7
:100C0000210310922203CC2309F45CC08091680078
:100C100081608093680080916B00846080936B009A
:100C200080917A008093CB0210927A0085B7982F3A
:100C300090668F7D80648093CA0295BF8091CA02BE
:100C400085BF10926F0083B7816083BF8895CF9175
:100C50000F91EF90CF900895C0906503E0906403EA
:100C6000009163032091620340916103609130031E
:100C700084CFC0906503E0906403009163032091EA
:100C80003003409161036091600380915F0376CFF0
:100C9000C0906503E09064030091300320916203EB
:100CA000F0CFC0906503E090300300916303F6CF6E
:100CB000C0903003E0906403F8CF809100010E945F
:100CC00072055ECF1092680010926B00A9CF85ED7F
:100CD0008093BC008091AC039091AD03A091AE03D2
:100CE000B091AF030796A11DB11D23E0B695A7955E
:100CF000979587952A95D1F72091BC0024FD03C0D4
:100D00001092AA0308954091AC035091AD036091F5
:100D1000AE037091AF03452B462B472B69F3009729
:100D2000A105B10541F02AE12A95F1F700C001972C
:100D3000A109B109E1CF8091AB030C94F2021F929B
:100D40000F920FB60F9211242F933F934F935F93FF
:100D50006F937F938F939F93AF93BF93EF93FF9383
:100D600084ED93E00E940501FF91EF91BF91AF9157
:100D70009F918F917F916F915F914F913F912F91B3
:100D80000F900FBE0F901F9018951F920F920FB6E5
:100D90000F9211242F938F939F93EF93FF93E091E2
:100DA000E403F091E5038081E091EA03F091EB0325
:100DB00082FD1BC090818091ED038F5F8F73209126
:100DC000EE03821741F0E091ED03F0E0EC52FC4FAE
:100DD000958F8093ED03FF91EF919F918F912F91CC
:100DE0000F900FBE0F901F9018958081F4CF1F9227
:100DF0000F920FB60F9211242F933F938F939F93CF
:100E0000AF93BF938091170390911803A09119039A
:100E1000B0911A033091120326E0230F2D3758F5B5
:100E20000296A11DB11D2093120380931703909386
:100E30001803A0931903B0931A03809113039091A0
:100E40001403A0911503B09116030196A11DB11DC5
:100E50008093130390931403A0931503B093160388
:100E6000BF91AF919F918F913F912F910F900FBEA6
:100E70000F901F90189529E8230F0396A11DB11D0F
:100E8000D2CF0C94B9001F920F920FB60F9211247B
:100E90002F933F934F935F936F937F938F939F9382
:100EA000AF93BF93EF93FF938091B900887F803613
:100EB00009F44AC0F0F5883209F4A5C018F580316C
:100EC00009F499C0B8F4882309F4F5C0883009F40E
:100ED00092C0FF91EF91BF91AF919F918F917F91C0
:100EE0006F915F914F913F912F910F900FBE0F9097
:100EF0001F901895883109F486C0803251F780938D
:100F0000A80314C0803409F49BC040F48033B9F3C3
:100F10008833F9F68093A80385ECAEC0803509F4D8
:100F200083C0883509F494C0883499F60E94670616
:100F3000D0CF883909F48AC038F5883729F050F4C1
:100F4000883611F0803729F683E08093AA03109247
:100F5000110355C0883809F479C0803919F08038F8
:100F600009F0B7CF80911103803208F06FC0E09193
:100F7000110381E08E0F809311038091BB00F0E09C
:100F8000EF50FD4F80833BC0803B39F0D0F4803A76
:100F900009F477C0883A09F09CCF84E08093AA03D3
:100FA0001092F0021092EF02F0E0E0E009958091DB
:100FB000EF0281110FC081E08093EF021092CF0207
:100FC00009C0803C09F4A8CF883C09F4A5CF883B30
:100FD00009F07FCFE091F00281E08E0F8093F00264
:100FE000F0E0E153FD4F80818093BB009091F002CF
:100FF0008091EF0229C0809185038093BB0085EC2E
:101000008093BC0066CF9091A7038091A6039817A8
:1010100058F5E091A70381E08E0F8093A703F0E0DD
:10102000EA57FC4F8081E9CFE091A70381E08E0F62
:101030008093A7038091BB00F0E0EA57FC4F8083C8
:101040009091A7038091A6039817C8F285E8D8CF9E
:10105000E091A70381E08E0F8093A7038091BB00EE
:10106000F0E0EA57FC4F80838091A90381115ECFA5
:1010700081E08093840384EA8093BC001092AA03E9
:1010800028CF85EC8093BC001092AA0380911103B5
:10109000803230F4E0911103F0E0EF50FD4F108208
:1010A0006091110370E081EF92E0F0E0E0E00995DB
:1010B000109211030ECF1092A80338CF1F920F92F7
:1010C0000FB60F9211242F933F934F935F936F931B
:1010D0007F938F939F93AF93BF93CF93DF93EF93C0
:1010E000FF93C091CC02D091CD02C830D1052CF035
:1010F000CE010A9760E0069708F461E085E00E945F
:10110000510260E086E00E9451022196C431D1056F
:10111000B9F0D093CD02C093CC02FF91EF91DF9153
:10112000CF91BF91AF919F918F917F916F915F917F
:101130004F913F912F910F900FBE0F901F901895D8
:101140001092CD021092CC02E8CF1F920F920FB6F0
:101150000F9211242F933F934F935F936F937F933D
:101160008F939F93AF93BF93EF93FF9380917703F8
:101170008823B1F181E08093660380937603109217
:10118000770384E08093780383B78E7F83BF809159
:10119000CB0280937A0010923C0310923B03809123
:1011A000790390917A03A0917B03B0917C038093A3
:1011B0006E0390936F03A0937003B093710310922A
:1011C000230310922403109225031092260380918A
:1011D0006F00826080936F0061E085E10E945102A0
:1011E000FF91EF91BF91AF919F918F917F916F91FF
:1011F0005F914F913F912F910F900FBE0F901F90D5
:101200001895E4EDF3E01382128288EE93E0A0E0FB
:10121000B0E084839583A683B7832BE232E03183E9
:10122000208325EC30E03587248724EC30E03787B5
:10123000268720EC30E0318B208B21EC30E0338BA3
:10124000228B22EC30E0358B248B26EC30E0378B80
:10125000268B118E128E138E148EE1E7F4E013822A
:10126000128284839583A683B7838DE392E0918372
:10127000808384E690E090937E0480937D040895BB
:10128000CF93DF9300D01F92CDB7DEB7789484B5AB
:10129000826084BD84B5816084BD85B5826085BD72
:1012A00085B5816085BD80916E00816080936E0000
:1012B00010928100809181008260809381008091F2
:1012C00081008160809381008091800081608093A3
:1012D00080008091B10084608093B1008091B00063
:1012E00081608093B0008091910082608093910032
:1012F0008091910081608093910080919000816045
:10130000809390008091A10082608093A1008091E1
:10131000A10081608093A1008091A00081608093F2
:10132000A00080917A00846080937A0080917A0096
:10133000826080937A0080917A008E7F80937A0019
:1013400080917A00806880937A001092C10060E0FA
:1013500084E10E947F0280E190E00E946B13809301
:10136000000162E089E00E947F0262E08AE00E9460
:101370007F0260E080E10E947F0261E08FE00E94D6
:101380007F0261E08EE00E947F0261E088E00E94BF
:101390007F0261E087E00E947F0261E086E10E94B7
:1013A0007F0260E086E10E94510261E085E00E94D8
:1013B0007F0261E086E00E947F0261E080E00E949F
:1013C0007F0261E081E00E947F0261E082E00E9492
:1013D0007F0261E084E00E947F0260E080E10E9481
:1013E0007F0261E085E10E947F0260E085E10E946A
:1013F0005102F894109280001092810010928500A2
:101400001092840080E190E090938900809388009E
:101410008091810088608093810080918100856047
:101420008093810080916F00826080936F00789438
:1014300083B7817F846083BF81E00E949305EAE0E7
:101440002E2E312C8FB7F894C0901703D09018032C
:10145000E0901903F0901A038FBFC0927903D092E5
:101460007A03E0927B03F0927C03809178038430CE
:1014700009F0B3C08091230390912403A091250328
:10148000B0912603A7019601281B390B4A0B5B0B71
:10149000DA01C9010B97A105B10568F48091230316
:1014A00090912403A0912503B0912603892B8A2BC8
:1014B0008B2B09F066C0C0922303D0922403E092E4
:1014C0002503F092260380E10E94BB029B838A835E
:1014D00080901F0390902003A0902103B0902203DE
:1014E000C0901B03D0901C03E0901D03F0901E03DE
:1014F00020E030E040E751E4C501B4010E94EE1362
:1015000087FF42C0809178034A815B81BA0190E0F5
:1015100080E00E949B14A70196010E9482136B0138
:101520007C01C0921B03D0921C03E0921D03F09239
:101530001E0320E030E040E85FE3C501B4010E94F3
:10154000821360931F037093200380932103909371
:10155000220320E030E040E751E40E94EE138111C5
:1015600010C020E030E040E751E4C701B6010E941E
:10157000F31360931B0370931C0380931D039093DC
:101580001E030E949E015ECF20E030E047E953E455
:10159000C701B6010E944D1518161CF4109278036D
:1015A000F0CF20E030E849E853E4C701B6010E94DB
:1015B0004D15181624F481E080937803E2CF20E0E3
:1015C00030E04BE753E4C701B6010E944D151816F1
:1015D00014F482E0F1CF83E0EFCF80917803833081
:1015E00021F480E00E949305CCCF80917703811194
:1015F00022C0809176038823F1F061E086E10E94A9
:10160000510280917803823021F061E082E00E94F3
:10161000510210927603C0927203D0927303E0924B
:101620007403F0927503C0926E03D0926F03E09240
:101630007003F092710380917803823009F41BC328
:101640008AE00E9428022091670330916803892B69
:1016500041F42F5F3F4F3093680320936703198253
:1016600009C012161306DCF7109268031092670384
:1016700051E0598389E00E9428022091690330914A
:101680006A03892B41F42F5F3F4F30936A03209305
:10169000690340E008C012161306DCF710926A03D3
:1016A0001092690341E08091690390916A0320914F
:1016B000670330916803293E334014F40C945813A7
:1016C000893E93400CF48EC025E030E030936D03EA
:1016D00020936C0381E08093660381E08093B003E4
:1016E00088E68093D2031092B1031092D30390E066
:1016F00080E00E94C5040E9431030E94CD026B016C
:101700007C018091AA03811193C081E08093AA0398
:101710008093A9039FEF9093A8031092A70396E0EC
:101720009093A6038093850380918503806D8093B9
:10173000850380918403813009F087C1109284036E
:101740000E94CD026B017C01809185038093BB00D8
:101750008091AC039091AD03A091AE03B091AF0323
:10176000892B8A2B8B2BA1F00E94CD020091AC0318
:101770001091AD032091AE033091AF036C197D0938
:101780008E099F09061717072807390708F471C043
:101790008091BC0083FDD8CF85EC8093BC000E9473
:1017A000CD026B017C018091AA03813009F44FC105
:1017B0008091A703873008F06CC18091A703E6E809
:1017C000F3E0AFE3B3E090E0981709F457C021913C
:1017D0002D939F5FF9CF44E050E050936D03409309
:1017E0006C0378CF83E090E090936D0380936C035B
:1017F00071CF80916603811114C09981992309F4F6
:101800006CCF80916603811107C021E030E03093F6
:101810006D0320936C0361CF80916603882309F4E4
:101820005CCF10926D0310926C031092660355CF3B
:101830008091AC039091AD03A091AE03B091AF0342
:10184000892B8A2B8B2B09F45CCF0E94CD0200914F
:10185000AC031091AD032091AE033091AF036C192E
:101860007D098E099F09061717072807390708F011
:1018700048CF8091AB030E94F20280E010923E03B9
:1018800080933D0381E794E00E944F04AC0174E033
:10189000559547957A95E1F7477055276AE0649F1B
:1018A0009001659F300D11248F709927820F931F2F
:1018B00080935F0381E794E00E944F04AC0197FF9F
:1018C00002C0415F5F4F34E0559547953A95E1F787
:1018D0006AE0649F9001659F300D112460E170E023
:1018E0000E94ED15820F931F8093600381E794E0BF
:1018F0000E944F04AC0164E0559547956A95E1F765
:1019000043705527EAE0E49F9001E59F300D1124D4
:101910008F709927820F931F8093610381E794E072
:101920000E944F04AC0197FF02C0415F5F4F24E06B
:10193000559547952A95E1F76AE0649F9001659F68
:10194000300D112460E170E00E94ED15820F931FAD
:101950008093620381E794E00E944F04AC0197FFFB
:1019600002C0415F5F4F04E0559547950A95E1F746
:101970006AE0649F9001659F300D112460E170E082
:101980000E94ED15820F931F8093630381E794E01B
:101990000E944F04AC0197FF02C0415F5F4F14E00B
:1019A000559547951A95E1F76AE0649F9001659F08
:1019B000300D112460E170E00E94ED15820F931F3D
:1019C0008093640381E794E00E944F049C0197FF99
:1019D00002C0215F3F4FB4E035952795BA95E1F7F6
:1019E0004AE0429F6001439FD00C112460E170E007
:1019F0000E94ED15C80ED91EC0926503E0913B030D
:101A0000F0913C0320916C0330916D033B832A835A
:101A1000E531F10508F05FC0E05FF24F0C9401166C
:101A20004B0DA10ECD0EEE0E070FBD10D310EE1014
:101A3000231142117A119511CD11E71141125C1257
:101A40009B12B512F5120913C00F85EEA6CE809138
:101A5000AC039091AD03A091AE03B091AF03892B7D
:101A60008A2B8B2B09F49FCE0E94CD020091AC03F0
:101A70001091AD032091AE033091AF036C197D0935
:101A80008E099F09061717072807390708F08BCE1C
:101A9000F0CE87E094CE80916103309160032AE01C
:101AA000622F0E94BF1580937F039093800381E093
:101AB00080938103832F0E94BF15809382039093AC
:101AC00083034A815B814130510509F05AC150932B
:101AD0003C0340933B0380916C0390916D038430F1
:101AE000910509F0C0C545E050E050933C03409398
:101AF0003B0380917803C0907903D0907A03E09003
:101B00007B03F0907C038130C9F480917203909143
:101B10007303A0917403B0917503A7019601281B6C
:101B2000390B4A0B5B0BDA01C901803D9740A105D7
:101B3000B10520F480EA92E00E94BB0080912B0363
:101B4000823019F483E080932B03809127039091D6
:101B50002803A0912903B0912A0346015701881A4E
:101B6000990AAA0ABB0A4AEF84169104A104B10497
:101B700020F020916B03222331F021E0809181033A
:101B8000803209F420E050912B0359838091820325
:101B9000803209F072C5513009F073C5E9818E2F8A
:101BA00090E0FC01E158FC4FE081EA3708F06FC596
:101BB000F0E0EE0FFF1FEF5FFE4F408151815B832E
:101BC0004A83880F991FFC01EB50FE4F8081918161
:101BD0004A815B81482B592B5B834A83222319F06E
:101BE00040645B834A8361E084E00E94510210E01C
:101BF00000E08A819B81002E02C0969587950A9409
:101C0000E2F761E080FF60E080E00E94510260E066
:101C100082E00E94510261E082E00E94510261E094
:101C200081E00E94510260E081E00E9451020F5F5A
:101C30001F4F0C301105E9F661E084E00E947F023D
:101C400060E084E00E94510289818F5F80932B03C2
:101C500055EF851651E09506A104B10440F0C092FD
:101C60002703D0922803E0922903F0922A038530BB
:101C700011F410922B0380917803813021F0809130
:101C80007803823051F54091720350917303609153
:101C90007403709175038091790390917A03841B8A
:101CA000950B803D67E09607C0F46CE271E00E94FE
:101CB000D9158639910508F0EDC461E08FE00E94E6
:101CC000510261E08EE00E94510261E088E00E94D2
:101CD000510261E087E00E945102409179035091E6
:101CE0007A0360917B0370917C0380916C039091E7
:101CF0006D03892B41F040936E0350936F03609303
:101D000070037093710310926D0310926C03109224
:101D10006B0380916E0390916F03A0917003B0915B
:101D20007103481B590B6A0B7B0B49385341610502
:101D3000710508F426CC80917703811122CC81E0D3
:101D400051CC31E030936B03809164034091630385
:101D50002AE0622F0E94BF1580937F039093800337
:101D600030938103842F0E94BF1580938203909348
:101D700083032A813B812130310519F442E050E090
:101D8000A6CE8A819B81029709F0A5CE83E090E0E0
:101D900090933C0380933B039ECE80915F0390E23F
:101DA00090937F0390938003909381036AE00E9455
:101DB000BF1580938203909383032A813B81213056
:101DC000310529F410923C0310923B0384CE4A81E2
:101DD0005B814230510509F07ECED8CFE09162039D
:101DE000E150FF0BEE0FFF1FE150FE4F808191810C
:101DF0000E94BB008A819B81019721F32A813B814C
:101E000044E050E02230310509F065CE60CE80918B
:101E1000790390917A03A0917B03B0917C03409168
:101E20002C0350912D0360912E0370912F038C0190
:101E30009D01041B150B260B370B093E1340210592
:101E4000310520F4452B462B472B59F580932C0365
:101E500090932D03A0932E03B0932F0384E10E944F
:101E6000BB02BC01990F880B990B0E949D1423E3C0
:101E700033E343E550E40E94521520E030E040E8AF
:101E80005AE30E94521520E030E040E05FE30E94F8
:101E900081132AE037ED43E25CE30E94F3132B0148
:101EA0003C0110910001163409F04CC020E030E0F4
:101EB00040E151E4C301B2010E94521520E030E03C
:101EC00040EA50E40E94F31320E030E040E052E4A6
:101ED0000E9482136B017C0120E030E048EC52E468
:101EE0000E94F3130E946C1460937F0320E030E0A3
:101EF00040E251E4C701B6010E94F3130E94651449
:101F0000CB01B1010E94ED158093800380E28093A4
:101F10008103C701B6010E946514CB01B1010E9483
:101F2000ED1580938203109383032A813B81213036
:101F3000310509F447CF4A815B814230510509F0F0
:101F4000CACD40CF81E080936B0320E030E040E2D7
:101F500051E4C301B2010E94F3130E946C14609318
:101F60007F03C301B2010E946514CB01B1010E943D
:101F7000ED158093800380E2809381038AE2D1CFC4
:101F8000E0903203F0903303E0913603F091370391
:101F9000009134031091350340913A03442371F1C9
:101FA0008091610390E08E1B9F0B60E17EE0869F35
:101FB0009001879F300D969F300D11248091600312
:101FC00090E0801B910B5CE3589FB001599F700D0E
:101FD0001124260F371F80915F0390E08E199F090F
:101FE000280F391FC9016CE370E00E94ED15D62E51
:101FF00053E656175CF573E6D72E28C0E114F104BA
:1020000031F40115110519F4309709F471C081E01C
:1020100080936B0380E19EE0E89F9001E99F300D83
:10202000F89F300D11245CE3509FC001519F900D2B
:102030001124280F391F2E0D3F1DC9016CE370E0DC
:102040000E94ED15D62E63E66D15ACF2C9016CE366
:1020500070E00E94ED15382F2AE08D2D622F0E942E
:10206000CB1580937F039093800381E0809381035D
:10207000832F622F0E94CB1580938203909383035A
:102080008A819B81019709F49DCE2A813B81223070
:10209000310509F020CD4423C9F110923A03809113
:1020A000630390E02091380330913903821B930B36
:1020B00090933903809338038091610390E08E1BE5
:1020C0009F0B90933703809336038091600390E0D9
:1020D000801B910B909335038093340380915F03B1
:1020E00090E08E199F099093330380933203F3CCD1
:1020F00081E080936B0310927F03109280038093A2
:1021000081031092820310928303BACFEF2821F546
:10211000012B11F5EF2B01F581E080933A038091BB
:102120005F0390E0909333038093320380916003C8
:1021300090E090933503809334038091610390E0A5
:1021400090933703809336038091630390E09093DC
:10215000390380933803BFCC1092330310923203BB
:102160001092350310923403109237031092360305
:102170001092390310923803AECC80E792E00E94AF
:10218000BB004A815B814130510509F41BCE8A8135
:102190009B8126E030E0029709F09DCC30933C0310
:1021A00020933B0398CC86E792E00E94BB004A81D3
:1021B0005B814130510551F487E090E090933C03FE
:1021C00080933B038091610390E043C18A819B81AE
:1021D000029709F080CC88E090E0DACDE0913003FE
:1021E000F0913103CF01B1010E94D91560937F03B3
:1021F0008093800380E280938103809382038093A5
:1022000083032A813B812230310551F43196E83134
:10221000F10509F454C0F0933103E09330035BCC33
:102220004A815B814130510509F055CCE09064034F
:1022300000916303209162034E2F6091600380E060
:102240000E94CA04C8CF8CE792E00E94BB008A813A
:102250009B81019749F489E090E090933C0380933F
:102260003B0380916003B0CF2A813B81223031054E
:1022700009F031CC30923C0320923B038FE68093EF
:10228000820329CCE0913003F091310380E2809306
:102290007F038093800380938103CF01B1010E946B
:1022A000D91560938203809383034A815B81423016
:1022B000510551F43196EC33F10509F0ACCF109291
:1022C00031031092300307CC8A819B81019709F07A
:1022D00002CCE0906403009163032091620340917B
:1022E00061036E2F80E00E94CA0430923C0320926A
:1022F0003B03F1CB82E892E00E94BB002A813B8144
:102300002130310549F48BE090E090933C038093B9
:102310003B038091620358CF4A815B814230510573
:1023200009F0D9CB8CE090E033CDA0903003B09091
:1023300031038A2D8150990BFC01EE0FFF1FE150F4
:10234000FE4F808191810E94BB002A813B81223017
:10235000310569F43FEFA31AB30A48E0A416B104AB
:1023600009F475C0B0923103A0923003B4CB2A8136
:102370003B812130310509F0AECBC0906503E09080
:102380006403009163032A2D40916103609160030F
:1023900080915F030E94CA04C5CF88E892E00E9442
:1023A000BB004A815B814130510549F48DE090E0EA
:1023B00090933C0380933B038091630305CF8A8114
:1023C0009B81029709F087CB8EE090E0E1CC0091F1
:1023D00030031091310380E280937F038093800368
:1023E00080938103C801B1010E94D91560938203D3
:1023F000809383032A813B812230310579F50F5F79
:102400001F4F109331030093300320916403E22F98
:10241000F0E0EE0FFF1FE35FFD4F80819181019699
:102420000817190731F441E050E05093310340930D
:1024300030038C2D837009F04ECB223009F04BCB4A
:1024400080913003909131034D9709F044CB81E0A6
:1024500090E090933103809330033DCB2A813B8100
:102460002130310509F037CBE090640320916203FD
:10247000409161036091600380915F030E94CA04F0
:10248000A3CF8EE892E00E94BB004A815B8141307D
:10249000510549F48FE090E090933C0380933B0317
:1024A0008091640391CE2A813B8140E150E022304B
:1024B000310509F010CB0BCBE0903003F0903103E5
:1024C000C701B1010E94D91560937F0380938003F7
:1024D00080E28093810380938203809383038A81C7
:1024E0009B81029799F49FEFE91AF90AEDE0EE1645
:1024F000F10429F0F0923103E0923003ECCA21E0BC
:1025000030E03093310320933003E5CA4A815B8188
:102510004130510509F0DFCA009163032091620345
:10252000409161036091600380915F030E94CA043F
:1025300080E190E02DCC84E992E00E94BB002A81EA
:102540003B812130310549F441E150E050933C0397
:1025500040933B038091650337CE8A819B8122E1C2
:1025600030E0029709F0B7CA19CEC0903003D0907E
:10257000310382E380937F0380E38093800380E2D2
:1025800080938103C601B1010E94D9156093820333
:10259000809383034A815B814230510579F45FEF78
:1025A000C51AD50A64E6C616D10429F0D0923103C3
:1025B000C092300390CA84E190E04BCF2A813B81E6
:1025C0002130310509F087CAE0906403009163036C
:1025D00020916203409161036091600380915F03E9
:1025E0000E94CA0442E150E072CA8AE992E00E9465
:1025F000BB008A819B81019719F423E130E0CECDA5
:102600004A815B814230510509F065CA86E090E05D
:10261000BFCB8091000190E290937F039093800361
:10262000909381039AE290938203809383032A819B
:102630003B812130310549F446E050E050933C03A2
:1026400040933B030E94720546CA2A813B81223097
:10265000310509F040CA833421F486E480930001F7
:102660003ACA83E4FBCF039709F043CA84E190E0C0
:1026700090933C0380933B033CCA6981633009F427
:102680008DCA8981853008F0DFCA20E087CA1B82A5
:102690001A8297CA60E08FE00E94510260E08EE0EB
:1026A0000E94510260E088E00E94510260E012CB7B
:1026B000893E93400CF08FC8442309F49EC8809152
:1026C0006603811196C882E090E090936D03809339
:1026D0006C030C946D0BF999FECF92BD81BDF89AF5
:1026E000992780B50895262FF999FECF1FBA92BD7C
:1026F00081BD20BD0FB6F894FA9AF99A0FBE0196E3
:1027000008955058BB27AA270E9499130C941315BB
:102710000E94051538F00E940C1520F039F49F3FF7
:1027200019F426F40C9402150EF4E095E7FB0C94D2
:10273000FC14E92F0E94241558F3BA176207730797
:102740008407950720F079F4A6F50C9446150EF44D
:10275000E0950B2EBA2FA02D0B01B90190010C01B1
:10276000CA01A0011124FF27591B99F0593F50F4C9
:10277000503E68F11A16F040A22F232F342F442721
:10278000585FF3CF469537952795A795F040539519
:10279000C9F77EF41F16BA0B620B730B840BBAF0E9
:1027A0009150A1F0FF0FBB1F661F771F881FC2F754
:1027B0000EC0BA0F621F731F841F48F48795779568
:1027C0006795B795F7959E3F08F0B0CF9395880F22
:1027D00008F09927EE0F9795879508950E94D814D1
:1027E00008F481E008950E9407140C9413150E94C8
:1027F0000C1558F00E94051540F029F45F3F29F0B0
:102800000C94FC1451110C9447150C9402150E9461
:10281000241568F39923B1F3552391F3951B550BB8
:10282000BB27AA2762177307840738F09F5F5F4FA3
:10283000220F331F441FAA1FA9F335D00E2E3AF0E2
:10284000E0E832D091505040E695001CCAF72BD0FA
:10285000FE2F29D0660F771F881FBB1F261737074B
:102860004807AB07B0E809F0BB0B802DBF01FF277D
:1028700093585F4F3AF09E3F510578F00C94FC144A
:102880000C9447155F3FE4F3983ED4F38695779513
:102890006795B795F7959F5FC9F7880F911D969536
:1028A000879597F90895E1E0660F771F881FBB1F92
:1028B000621773078407BA0720F0621B730B840B3F
:1028C000BA0BEE1F88F7E09508950E946C14689487
:1028D000B1110C94471508950E942C1588F09F574C
:1028E00098F0B92F9927B751B0F0E1F0660F771F34
:1028F000881F991F1AF0BA95C9F714C0B13091F02A
:102900000E944615B1E008950C944615672F782F64
:102910008827B85F39F0B93FCCF3869577956795EE
:10292000B395D9F73EF490958095709561957F4F5A
:102930008F4F9F4F0895E89409C097FB3EF4909500
:102940008095709561957F4F8F4F9F4F9923A9F088
:10295000F92F96E9BB279395F69587957795679517
:10296000B795F111F8CFFAF4BB0F11F460FF1BC05B
:102970006F5F7F4F8F4F9F4F16C0882311F096E9EE
:1029800011C0772321F09EE8872F762F05C066239C
:1029900071F096E8862F70E060E02AF09A95660F55
:1029A000771F881FDAF7880F9695879597F908950E
:1029B000990F0008550FAA0BE0E8FEEF1616170650
:1029C000E807F907C0F012161306E407F50798F0B8
:1029D000621B730B840B950B39F40A2661F0232BD1
:1029E000242B252B21F408950A2609F4A140A6954D
:1029F0008FEF811D811D089597F99F6780E870E032
:102A000060E008959FEF80EC089500240A94161664
:102A1000170618060906089500240A9412161306CC
:102A2000140605060895092E0394000C11F488235A
:102A300052F0BB0F40F4BF2B11F460FF04C06F5F76
:102A40007F4F8F4F9F4F089557FD9058440F551F4C
:102A500059F05F3F71F04795880F97FB991F61F020
:102A60009F3F79F087950895121613061406551F97
:102A7000F2CF4695F1DF08C0161617061806991F03
:102A8000F1CF86957105610508940895E894BB27F8
:102A900066277727CB0197F908950E94D81408F488
:102AA0008FEF08950E9465150C9413150E9405156B
:102AB00038F00E940C1520F0952311F00C94FC14B2
:102AC0000C94021511240C9447150E94241570F3E0
:102AD000959FC1F3950F50E0551F629FF001729FC3
:102AE000BB27F00DB11D639FAA27F00DB11DAA1FD2
:102AF000649F6627B00DA11D661F829F2227B00D1F
:102B0000A11D621F739FB00DA11D621F839FA00DA9
:102B1000611D221F749F3327A00D611D231F849FF9
:102B2000600D211D822F762F6A2F11249F57504050
:102B30009AF0F1F088234AF0EE0FFF1FBB1F661FCB
:102B4000771F881F91505040A9F79E3F510580F094
:102B50000C94FC140C9447155F3FE4F3983ED4F3B7
:102B6000869577956795B795F795E7959F5FC1F738
:102B7000FE2B880F911D9695879597F90895991BBF
:102B800079E004C0991F961708F0961B881F7A9564
:102B9000C9F78095089587FB082E062687FD819545
:102BA00067FD61950E94BF150EF4919507FC819514
:102BB0000895AA1BBB1B51E107C0AA1FBB1FA61784
:102BC000B70710F0A61BB70B881F991F5A95A9F7D6
:102BD00080959095BC01CD01089597FB072E16F4C2
:102BE000009407D077FD09D00E94D91507FC05D0C5
:102BF0003EF4909581959F4F0895709561957F4F14
:102C00000895EE0FFF1F0590F491E02D0994F894BC
:022C1000FFCFF4
:102C1200209D02080215061906880699049D0409DA
:102C2200029D06990600000000000000000000005E
:102C32000000000000000000000000000000000092
:102C42000000000000000000000000000000000082
:102C52000000000000000000000000000000000072
:102C620000000000008106000000000000000000DB
:102C7200009D02080215061906880699049D04099A
:102C8200029D0699060000000000000000000000FE
:102C92000000008D069D0695000000950485040045
:102CA200008C06080200000000940009028D029DBB
:102CB20002850600000000990400009C0200001832
:102CC2000200008806000000000000000000000072
:102CD20000000000009C0414041C069506850400F4
:102CE200008C04040000000000000008040C041C16
:102CF20004000000000404990494041C000000185D
:102D02000000009806200002004000000100088E2A
:102D120002A602AC02B202B802BE02C40200001F46
:102D2200001D001F001E001F001E001F001F001EAE
:102D3200001F001E001F00000000002701B501C88F
:102D4200007401F900D700EB00000000009604694E
:102D52000452053F0462044F0440040D0A00457802
:102D6200636565646564206D6178696D756D206E5B
:102D7200756D626572206F66207772697465730083
:102D8200534520742000486F207572004E4E206912
:102D92006E00646F20555500646F204E4E004E4EFB
:102DA200206F6E005945204172007445206E6E00FE
:102DB2004241204C6F007475204520005555204536
:102DC2006400746820752000467220692000534117
:0A2DD200207420005375206E2000CD
:00000001FF
