:020000040000FA
:100000000C9491000C94B9000C94B9000C94A608BF
:100010000C94B9000C94B9000C94B9000C94B9007C
:100020000C94B9000C94B9000C94B9000C946008BD
:100030000C94B9000C94B9000C94B9000C94B9005C
:100040000C94F9060C94B9000C94C7060C94A10604
:100050000C94B9000C94B9000C94B9000C94B9003C
:100060000C9445070C94B9000C9443070C94430777
:100070000C9443070C9443070C9443070C944307D8
:100080000C9443070C9443070C9443070C944307C8
:100090000C9443070C9443070C9443070C944307B8
:1000A0000C9443070C9443070C9443070C944307A8
:1000B0000C94430700000000240027002A002D00B4
:1000C00000000000250028002B002E00000000008A
:1000D0002300260029002C00040404040404040462
:1000E00002020202020203030303030305050505DE
:1000F00001020408102040800102040810200102BF
:100100000408102004080102090C0A08000201007A
:1001100000030407000000000000000000000000D1
:10012000020911241FBECFEFD8E0DEBFCDBF12E021
:10013000A0E0B1E0E6E3FBE202C005900D92AA3C2C
:10014000B107D9F724E0AAECB2E001C01D92AB38A8
:10015000B207E1F710E0C1E9D0E004C02197FE0149
:100160000E949315C039D107C9F70E948C090C94DD
:1001700099150C940000E6E8F4E09C012B5F3F4FDA
:10018000DC014D91CD014193A217B307C9F7089542
:10019000FC01538D448D252F30E0842F90E0821B8D
:1001A000930B541710F0CF96089501970895FC0112
:1001B000918D828D981761F0A28DAE0FBF2FB11D6A
:1001C0005D968C91928D9F5F9F73928F90E00895C2
:1001D0008FEF9FEF0895FC01918D828D981731F07C
:1001E000828DE80FF11D858D90E008958FEF9FEFD0
:1001F0000895FC01918D228D892F90E0805C9F4FA6
:10020000821B91098F7399270895FC01A48DA80F73
:10021000B92FB11DA35ABF4F2C91848D90E0019648
:100220008F739927848FA689B7892C93A089B18968
:100230008C91837080648C93938D848D981306C009
:100240000288F389E02D80818F7D80830895EF926D
:10025000FF920F931F93CF93DF93EC0181E0888F80
:100260009B8D8C8D98131AC0E889F989808185FF50
:1002700015C09FB7F894EE89FF896083E889F989F2
:1002800080818370806480839FBF81E090E0DF91F4
:10029000CF911F910F91FF90EF900895F62E0B8D47
:1002A00010E00F5F1F4F0F731127E02E8C8D8E1102
:1002B0000CC00FB607FCFACFE889F989808185FF69
:1002C000F5CFCE010E940501F1CFEB8DEC0FFD2F94
:1002D000F11DE35AFF4FF0829FB7F8940B8FEA8924
:1002E000FB8980818062CFCFCF93DF93EC01888D33
:1002F0008823B9F0AA89BB89E889F9898C9185FDA1
:1003000003C0808186FD0DC00FB607FCF7CF8C912E
:1003100085FFF2CF808185FFEDCFCE010E940501E0
:10032000E9CFDF91CF91089586EC93E00E94F90028
:1003300021E0892B09F420E0822F089580E090E0ED
:10034000892B29F00E94940181110E94000080E015
:1003500090E0892B49F080E090E0892B29F00E9401
:10036000000081110C9400000895AF92BF92CF92CB
:10037000DF92EF92FF920F931F93CF93DF936C0165
:100380007B018B01040F151FEB015E01AE18BF0846
:10039000C017D10759F06991D601ED91FC910190F8
:1003A000F081E02DC6010995892B79F7C501DF9110
:1003B000CF911F910F91FF90EF90DF90CF90BF9062
:1003C000AF90089581508D3008F03DC0E82FF0E0E7
:1003D000E451FE4F0C94931503020702F901FF014B
:1003E000230223020A02100214021A0223021E022E
:1003F0002402809180008F778093800008958091FF
:1004000080008F7DF9CF84B58F7784BD089584B542
:100410008F7DFBCF8091B0008F778093B0000895DF
:100420008091B0008F7DF9CF809190008F7780937D
:1004300090000895809190008F7DF9CF8091A00069
:100440008F778093A00008958091A0008F7DF9CFD1
:10045000CF93DF93282F30E0F901E85FFE4F8491BE
:10046000F901E051FF4FD491F901E852FF4FC491D7
:10047000CC23A1F081110E94E201EC2FF0E0EE0FFD
:10048000FF1FE453FF4FA591B491EC91ED2381E060
:1004900090E009F480E0DF91CF91089580E090E052
:1004A000FACF1F93CF93DF93282F30E0F901E85F55
:1004B000FE4F8491F901E051FF4FD491F901E852C8
:1004C000FF4FC491CC23A9F0162F81110E94E201A5
:1004D000EC2FF0E0EE0FFF1FE054FF4FA591B49119
:1004E0008FB7F894EC91111108C0D095DE23DC93FE
:1004F0008FBFDF91CF911F910895DE2BF8CF60E081
:100500008FE00E94510260E08EE00E94510260E0A4
:1005100088E00E94510260E087E00C945102CF9382
:10052000DF9390E0FC01E051FF4F249188529F4FF0
:10053000FC0184918823C9F090E0880F991FFC0189
:10054000EC54FF4FA591B491FC01E054FF4FC591CD
:10055000D49161110DC09FB7F8948C91209582239E
:100560008C938881282328839FBFDF91CF910895A2
:10057000623051F49FB7F8943C91822F8095832389
:100580008C93E8812E2BEFCF8FB7F894EC912E2B24
:100590002C938FBFEACF8E50806480937C00809133
:1005A0007A00806480937A0080917A0086FDFCCF87
:1005B000809178009091790008953FB7F8948091E8
:1005C000110390911203A0911303B091140326B567
:1005D000A89B05C02F3F19F00196A11DB11D3FBF7B
:1005E000BA2FA92F982F8827BC01CD01620F711D4A
:1005F000811D911D43E0660F771F881F991F4A9543
:10060000D1F708951F93CF93DF93C1E0C093CC023D
:10061000882399F1D091B8001091BA008091BC0064
:100620008A7B8093BC0060E082E10E94510260E01E
:1006300083E10E94510210929C03C0939B0310928D
:10064000760361E082E10E94510261E083E10E9451
:1006500051028091B9008E7F8093B9008091B900DA
:100660008D7F8093B90080E28093B80085E4809309
:10067000BC001093BA00D093B800DF91CF911F91C6
:100680000895CF92DF92EF92FF920F931F93CF9333
:10069000DF93D091C50381E0D13208F09CC0C091B6
:1006A000C4030E94DD026B017C0180919C038111D7
:1006B0006CC082E080939C0381E080939B038FEF6A
:1006C00080939A0310929903D0939803A4EAB3E01D
:1006D000E8E7F3E080E0D8138DC0109277038091B3
:1006E0007703CC0FC82BC0937703809176038130BA
:1006F00009F084C0109276030E94DD026B017C0138
:10070000809177038093BB0080919E0390919F031B
:10071000A091A003B091A103892B8A2B8B2BA1F070
:100720000E94DD0200919E0310919F032091A0037F
:100730003091A1036C197D098E099F0906171707CF
:100740002807390708F442C08091BC0083FDD8CF48
:1007500085EC8093BC000E94DD026B017C018091DE
:100760009C03823009F44CC080919A038F3F09F4B6
:1007700069C080919A03803209F466C080919A031F
:10078000803309F463C084E026C080919E03909179
:100790009F03A091A003B091A103892B8A2B8B2BDF
:1007A00009F483CF0E94DD0200919E0310919F0304
:1007B0002091A0033091A1036C197D098E099F0936
:1007C000061717072807390708F06FCF80919D0398
:1007D0000E94020385E01092A3031092C5031092B9
:1007E000A203DF91CF911F910F91FF90EF90DF90C7
:1007F000CF9008959D9191938F5F6DCF85EEA9CF96
:1008000080919E0390919F03A091A003B091A103BA
:10081000892B8A2B8B2B09F4A2CF0E94DD02009139
:100820009E0310919F032091A0033091A1036C19A6
:100830007D098E099F09061717072807390708F051
:100840008ECFC4CF80E0C7CF82E0C5CF83E0C3CFD7
:100850002091ED02260F3327331F21323105ECF4AE
:1008600020919C03FC0190E080E0243069F082E05C
:100870000895A091ED022191AC0143535D4FA40F67
:10088000B52FB11D2C930196861798F38091ED0238
:10089000680F6093ED0280E0089581E00895089567
:1008A000E091370380913603E81730F4F0E0E85C1C
:1008B000FC4F808190E008958FEF9FEF0895909115
:1008C0003703809136032FEF3FEF981748F4E92F55
:1008D000F0E0E85CFC4F208130E09F5F90933703AD
:1008E000C90108958091360390913703891B990BB4
:1008F0000895CF92DF92EF92FF920F931F93CF93C1
:10090000DF937C01CB018A012091A203222389F08D
:10091000EB016B01C40ED51ECC15DD0569F06991A4
:10092000D701ED91FC910190F081E02DC70109956F
:10093000F3CF642F0E942804C801DF91CF911F914B
:100940000F91FF90EF90DF90CF900895CF93DF93BA
:100950001F92CDB7DEB769832091A2032223F9F05D
:100960002091C503203258F021E030E0FC013383B0
:10097000228390E080E00F90DF91CF9108958091E5
:10098000A303E82FF0E0EC55FC4F998190838F5F33
:100990008093A3038093C50381E090E0ECCF61E0F6
:1009A000CE0101960E942804F7CF682F83E694E0D9
:1009B0000C94A604CF92DF92EF92FF920F931F93B5
:1009C000CF93DF93C82FD62EF42E122F81E0809381
:1009D000A20388E68093C4031092A3031092C50378
:1009E00090E080E00E94D5048C2F90E0CAE0D0E037
:1009F000BE010E947F1524E0660F771F2A95E1F75C
:100A0000860F971F0E94D5048D2D90E0BE010E9495
:100A10007F1534E0660F771F3A95E1F7860F971F31
:100A20000E94D5048F2D90E0BE010E947F1544E006
:100A3000660F771F4A95E1F7860F971F0E94D5042E
:100A4000812F90E0BE010E947F1554E0660F771F52
:100A50005A95E1F7860F971F0E94D504802F90E0EA
:100A6000BE010E947F15E4E0660F771FEA95E1F76B
:100A7000860F971F0E94D5048E2D90E0BE010E9424
:100A80007F15F4E0660F771FFA95E1F7860F971F41
:100A90000E94D5048C2D90E0BE010E947F15A4E039
:100AA000660F771FAA95E1F7860F971F0E94D5045E
:100AB000DF91CF911F910F91FF90EF90DF90CF903A
:100AC0000C94410390E080E00895CF93DF93FC0104
:100AD00001900020E9F73197AF01481B590BBC0189
:100AE00086EC93E00E94B501EC0142E050E06BE43B
:100AF00072E086EC93E00E94B5018C0F9D1FDF91A0
:100B0000CF91089520917403309175032F5F3F4F6B
:100B1000309375032093740340916F0450917004D7
:100B20004115510519F04217530734F48EE492E051
:100B30000E94650580E00895682F80E190E00E94A2
:100B4000051381E00895CF92EF920F93CF93C82FB2
:100B5000E0913403F09135033797ED30F10500F55E
:100B6000EC54FA4F0C949315C105D0052E06D00510
:100B70003B06D0054A06D0055306D0055A06D005D7
:100B80005F06C0905E03E0905D0300915C032091DE
:100B90005B03409129036091590380E00E94DA04CD
:100BA0000E947F0260E081E00E94510260E082E0EA
:100BB0000E94510260E080E00E94510260E084E007
:100BC0000E94510260E086E10E94510260E085E0EF
:100BD0000E94510260E086E00E94510260E085E1DF
:100BE0000E94510281E080936E03109219031092CB
:100BF0001A0310921B0310921C0310921D031092F3
:100C00001E0310921F0310922003CC2309F45CC032
:100C10008091680081608093680080916B0084609F
:100C200080936B0080917A008093CB0210927A00BF
:100C300085B7982F90668F7D80648093CA0295BF98
:100C40008091CA0285BF10926F0083B7816083BF15
:100C50008895CF910F91EF90CF900895C0905E034B
:100C6000E0905D0300915C0320915B0340915A0387
:100C70006091290392CFC0905E03E0905D030091E4
:100C80005C032091290340915A036091590380919C
:100C9000580384CFC0905E03E0905D030091290368
:100CA00020915B03F0CFC0905E03E0902903009198
:100CB0005C03F6CFC0902903E0905D03F8CF8091EC
:100CC00000010E9482056CCF1092680010926B00A8
:100CD000A9CF85ED8093BC0080919E0390919F03E6
:100CE000A091A003B091A1030796A11DB11D23E01F
:100CF000B695A795979587952A95D1F72091BC0031
:100D000024FD03C010929C03089540919E035091CE
:100D10009F036091A0037091A103452B462B472BA5
:100D200069F30097A105B10541F02AE12A95F1F791
:100D300000C00197A109B109E1CF80919D030C94F6
:100D400002031F920F920FB60F9211242F933F931D
:100D50004F935F936F937F938F939F93AF93BF93C3
:100D6000EF93FF9386EC93E00E940501FF91EF91D2
:100D7000BF91AF919F918F917F916F915F914F91B3
:100D80003F912F910F900FBE0F901F9018951F92BB
:100D90000F920FB60F9211242F938F939F93EF937F
:100DA000FF93E091D603F091D7038081E091DC03BB
:100DB000F091DD0382FD1BC090818091DF038F5F86
:100DC0008F732091E003821741F0E091DF03F0E0A0
:100DD000EA53FC4F958F8093DF03FF91EF919F9132
:100DE0008F912F910F900FBE0F901F9018958081BB
:100DF000F4CF1F920F920FB60F9211242F933F93AF
:100E00008F939F93AF93BF93809115039091160397
:100E1000A0911703B09118033091100326E0230F1F
:100E20002D3758F50296A11DB11D20931003809314
:100E3000150390931603A0931703B09318038091A2
:100E4000110390911203A0911303B0911403019622
:100E5000A11DB11D8093110390931203A09313035E
:100E6000B0931403BF91AF919F918F913F912F91B8
:100E70000F900FBE0F901F90189529E8230F03962F
:100E8000A11DB11DD2CF0C94B9001F920F920FB6C5
:100E90000F9211242F933F934F935F936F937F9300
:100EA0008F939F93AF93BF93EF93FF938091B9007C
:100EB000887F803609F44AC0F0F5883209F4A5C06D
:100EC00018F5803109F499C0B8F4882309F4F5C005
:100ED000883009F492C0FF91EF91BF91AF919F913B
:100EE0008F917F916F915F914F913F912F910F90D3
:100EF0000FBE0F901F901895883109F486C080327C
:100F000051F780939A0314C0803409F49BC040F4D5
:100F10008033B9F38833F9F680939A0385ECAEC039
:100F2000803509F483C0883509F494C0883499F673
:100F30000E946906D0CF883909F48AC038F588370D
:100F400029F050F4883611F0803729F683E0809339
:100F50009C0310920F0355C0883809F479C080397A
:100F600019F0803809F0B7CF80910F03803208F074
:100F70006FC0E0910F0381E08E0F80930F0380918B
:100F8000BB00F0E0E151FD4F80833BC0803B39F076
:100F9000D0F4803A09F477C0883A09F09CCF84E015
:100FA00080939C031092EE021092ED02F0E0E0E0DC
:100FB00009958091ED0281110FC081E08093ED02CF
:100FC0001092CD0209C0803C09F4A8CF883C09F4F6
:100FD000A5CF883B09F07FCFE091EE0281E08E0F34
:100FE0008093EE02F0E0E353FD4F80818093BB00DD
:100FF0009091EE028091ED0229C080917703809359
:10100000BB0085EC8093BC0066CF909199038091E2
:101010009803981758F5E091990381E08E0F80931B
:101020009903F0E0E858FC4F8081E9CFE091990303
:1010300081E08E0F809399038091BB00F0E0E85827
:10104000FC4F808390919903809198039817C8F280
:1010500085E8D8CFE091990381E08E0F80939903C2
:101060008091BB00F0E0E858FC4F808380919B03A7
:1010700081115ECF81E08093760384EA8093BC0087
:1010800010929C0328CF85EC8093BC0010929C03A7
:1010900080910F03803230F4E0910F03F0E0E151D2
:1010A000FD4F108260910F0370E08FEE92E0F0E050
:1010B000E0E0099510920F030ECF10929A0338CFFB
:1010C0001F920F920FB60F9211242F933F934F93BD
:1010D0005F936F937F938F939F93AF93BF93EF93A0
:1010E000FF9380918204909183048830910524F0CD
:1010F0000A9760E0069708F461E085E00E945102DB
:1011000060E086E00E945102809182049091830405
:10111000019684319105A9F0909383048093820411
:10112000FF91EF91BF91AF919F918F917F916F91BF
:101130005F914F913F912F910F900FBE0F901F9095
:1011400018951092830410928204EACF1F920F9296
:101150000FB60F9211242F933F934F935F936F938A
:101160007F938F939F93AF93BF93EF93FF93809160
:101170006E038823B1F181E080935F038093840440
:1011800010926E0384E080936F0383B78E7F83BFDA
:101190008091CB0280937A00109235031092340331
:1011A0008091700390917103A0917203B0917303C9
:1011B0008093660390936703A0936803B0936903D9
:1011C0001092210310922203109223031092240301
:1011D00080916F00826080936F0061E085E10E94E2
:1011E0005102FF91EF91BF91AF919F918F917F91AC
:1011F0006F915F914F913F912F910F900FBE0F9084
:101200001F901895CF93DF93E6ECF3E013821282E0
:1012100088EE93E0A0E0B0E084839583A683B78353
:101220002BE232E03183208325EC30E035872487C0
:1012300024EC30E03787268720EC30E0318B208BA0
:1012400021EC30E0338B228B22EC30E0358B248B89
:1012500026EC30E0378B268B118E128E138E148E77
:10126000E3E6F4E01382128284839583A683B78336
:101270008DE392E09183808384E690E09093700404
:1012800080936F048AE0E1E0F1E0A1E7B4E001902F
:101290000D928A95E1F7C1E7D4E08AEF90E09B8751
:1012A0008A8761E085E00E948F0261E086E00E940B
:1012B0008F0261E080E00E948F0261E081E00E9485
:1012C0008F0261E082E00E948F0261E084E00E9470
:1012D0008F0261E086E10E948F0260E086E10E9459
:1012E00051021C861D861E861F86188A1C8A1A8A31
:1012F000198A1B8A61E08FE00E948F0261E08EE014
:101300000E948F0261E088E00E948F0261E087E026
:10131000DF91CF910C948F02789484B5826084BD64
:1013200084B5816084BD85B5826085BD85B58160E9
:1013300085BD80916E00816080936E001092810067
:101340008091810082608093810080918100816022
:1013500080938100809180008160809380008091E3
:10136000B10084608093B1008091B000816080936F
:10137000B0008091910082608093910080919100F3
:1013800081608093910080919000816080939000B3
:101390008091A10082608093A1008091A100816072
:1013A0008093A1008091A00081608093A000809133
:1013B0007A00846080937A0080917A0082608093C2
:1013C0007A0080917A008E7F80937A0080917A00F3
:1013D000806880937A001092C10060E084E10E94EE
:1013E0008F0280E190E00E94FD128093000162E094
:1013F00089E00E948F0262E08AE00E948F0260E032
:1014000080E10E948F0261E085E10E948F0260E02E
:1014100085E10E94510283B7817F846083BF81E0B0
:101420000E94A3057AE0272E312C8FB7F894C09044
:101430001503D0901603E0901703F09018038FBFA8
:10144000C0927003D0927103E0927203F092730322
:1014500080916F03843009F0B0C080912103909196
:101460002203A0912303B0912403A7019601281B16
:10147000390B4A0B5B0BDA01C9010B97A105B105CA
:1014800068F48091210390912203A0912303B091ED
:101490002403892B8A2B8B2B09F063C0C092210374
:1014A000D0922203E0922303F092240380E10E9471
:1014B000CB02EC01C0901D03D0901E03E0901F03EF
:1014C000F09020038090190390901A03A0901B03C2
:1014D000B0901C0320E030E040E751E4C701B601C2
:1014E0000E94801387FF40C080916F03BE0190E08F
:1014F00080E00E942D14A50194010E9414134B0159
:101500005C018092190390921A03A0921B03B0927F
:101510001C0320E030E040E85FE3C701B6010E9411
:10152000141360931D0370931E0380931F03909305
:10153000200320E030E040E751E40E948013811155
:1015400010C020E030E040E751E4C501B4010E9442
:1015500085136093190370931A0380931B03909370
:101560001C030E949E0161CF20E030E047E953E474
:10157000C501B4010E94DF1418161CF410926F0309
:10158000F0CF20E030E849E853E4C501B4010E94FF
:10159000DF14181624F481E080936F03E2CF20E07B
:1015A00030E04BE753E4C501B4010E94DF14181684
:1015B00014F482E0F1CF83E0EFCF80916F038330AA
:1015C00021F480E00E94A305CCCF80916E038111AD
:1015D00022C0809184048823F1F061E086E10E94BA
:1015E000510280916F03823021F061E082E00E941D
:1015F000510210928404C0926A03D0926B03E0926D
:101600006C03F0926D03C0926603D0926703E09280
:101610006803F092690380916F03823009F42BC351
:101620008AE00E9428022091600330916103892B97
:1016300041F42F5F3F4F3093610320936003C0E07C
:1016400008C012161306DCF71092610310926003B3
:10165000C1E089E00E942802209162033091630377
:10166000892B41F42F5F3F4F309363032093620334
:1016700040E008C012161306DCF7109263031092C4
:10168000620341E0809162039091630320916003C3
:1016900030916103293E33400CF49DC7893E93404D
:1016A0000CF48EC025E030E0309365032093640392
:1016B00081E080935F0381E08093A20388E68093BA
:1016C000C4031092A3031092C50390E080E00E942F
:1016D000D5040E9441030E94DD026B017C018091D0
:1016E0009C03811192C081E080939C0380939B03B3
:1016F0009FEF90939A031092990396E0909398032A
:101700008093770380917703806D80937703809136
:101710007603813009F083C1109276030E94DD02C6
:101720006B017C01809177038093BB0080919E03C5
:1017300090919F03A091A003B091A103892B8A2BC4
:101740008B2BA1F00E94DD0200919E0310919F035C
:101750002091A0033091A1036C197D098E099F0986
:10176000061717072807390708F470C08091BC00D6
:1017700083FDD8CF85EC8093BC000E94DD026B0115
:101780007C0180919C03813009F44BC180919903C5
:10179000873008F068C180919903E8E7F3E0A8E397
:1017A000B3E090E0981709F456C021912D939F5F04
:1017B000F9CF44E050E0509365034093640378CF41
:1017C00083E090E0909365038093640371CF8091F0
:1017D0005F03811113C0CC2309F46DCF80915F03A7
:1017E000811107C021E030E030936503209364034A
:1017F00062CF80915F03882309F45DCF1092650367
:101800001092640310925F0356CF80919E039091D3
:101810009F03A091A003B091A103892B8A2B8B2B4E
:1018200009F45DCF0E94DD0200919E0310919F0399
:101830002091A0033091A1036C197D098E099F09A5
:10184000061717072807390708F049CF80919D032D
:101850000E94020380E0109237038093360383E6F0
:1018600094E00E945F04AC0164E0559547956A9549
:10187000E1F7477055276AE0649F9001659F300D3E
:1018800011248F709927820F931F8093580383E64A
:1018900094E00E945F04AC0197FF02C0415F5F4F7C
:1018A00024E0559547952A95E1F7CAE0C49F900139
:1018B000C59F300D112460E170E00E947F15820FFA
:1018C000931F8093590383E694E00E945F04AC0168
:1018D00034E0559547953A95E1F743705527C49FF5
:1018E0009001C59F300D11248F709927820F931F8F
:1018F00080935A0383E694E00E945F04AC0197FF53
:1019000002C0415F5F4F04E0559547950A95E1F7A6
:101910006AE0649F9001659F300D112460E170E0E2
:101920000E947F15820F931F80935B0383E694E0F0
:101930000E945F04AC0197FF02C0415F5F4F14E05B
:10194000559547951A95E1F76AE0649F9001659F68
:10195000300D112460E170E00E947F15820F931F0B
:1019600080935C0383E694E00E945F04AC0197FFE0
:1019700002C0415F5F4FD4E055954795DA95E1F796
:101980006AE0649F9001659F300D112460E170E072
:101990000E947F15820F931F80935D0383E694E07E
:1019A0000E945F049C0197FF02C0215F3F4FC4E08B
:1019B00035952795CA95E1F74AE0429F6001439F1C
:1019C000D00C112460E170E00E947F15C80ED91E72
:1019D000C0925E03E0913403F0913503C09164033B
:1019E000D0916503E531F10508F05DC0E650F34F95
:1019F0000C949315350DA10EC90EE10EF60EA31031
:101A0000B510CC10FC1017114B1161119411AA11D3
:101A1000FF11191252126812A112B112AA0F85EE0B
:101A2000AACE80919E0390919F03A091A003B091B4
:101A3000A103892B8A2B8B2B09F4A3CE0E94DD02F4
:101A400000919E0310919F032091A0033091A10368
:101A50006C197D098E099F09061717072807390792
:101A600008F08FCEF3CE87E098CE80915A03309164
:101A700059032AE0622F0E945115809386049093A7
:101A8000870481E080938804832F0E9451158093FE
:101A9000890490938A04C130D10509F070C1D093B4
:101AA0003503C093340380916403909165038430BF
:101AB000910509F07BC545E050E050933503409314
:101AC000340380916F038090700390907103A09015
:101AD0007203B09073038130C9F480916A039091CE
:101AE0006B03A0916C03B0916D03A5019401281BB9
:101AF000390B4A0B5B0BDA01C901803D9740A10508
:101B0000B10520F480EA92E00E94BB0080917D0440
:101B1000823019F483E080937D0480917E0490915B
:101B20007F04A0918004B0918104B501A401481BF9
:101B3000590B6A0B7B0B80917B0490917C04092EDE
:101B4000000CAA0BBB0B481759076A077B0720F04C
:101B500020918504222331F021E080918804803295
:101B600009F420E080917D0490918904903209F07D
:101B700027C5813009F027C590E0FC01EF58FB4FE5
:101B8000E589D0E0C0E0EA3738F4F0E0EE0FFF1F5F
:101B9000E55FFE4FC081D181880F991FFC01EF588E
:101BA000FB4F80819181C82BD92B222331F080916A
:101BB000750490917604C82BD92B61E084E00E94D3
:101BC000510210E000E0CE01002E02C096958795EC
:101BD0000A94E2F761E080FF60E080E00E94510239
:101BE00060E082E00E94510261E082E00E945102C6
:101BF00061E081E00E94510260E081E00E945102B8
:101C00000F5F1F4F0C301105F1F661E084E00E9478
:101C10008F0260E084E00E94510220917D042F5FDA
:101C200020937D0480917E0490917F04A091800494
:101C3000B0918104B501A401481B590B6A0B7B0BC1
:101C400080917B0490917C04880F991F092E000CD1
:101C5000AA0BBB0B84179507A607B70740F4809221
:101C60007E0490927F04A0928004B092810425307B
:101C700011F410927D0480916F03813021F08091E6
:101C80006F03823051F540916A0350916B0360916C
:101C90006C0370916D038091700390917103841BAC
:101CA000950B803D47E09407C0F46CE271E00E9420
:101CB0006B158639910508F08BC461E08FE00E94B6
:101CC000510261E08EE00E94510261E088E00E94D2
:101CD000510261E087E00E945102409170035091EF
:101CE000710360917203709173038091640390910A
:101CF0006503892B41F0409366035093670360931B
:101D00006803709369031092650310926403109244
:101D100085048091660390916703A0916803B09158
:101D20006903481B590B6A0B7B0B4938534161050A
:101D3000710508F416CC80916E03811112CC81E0FC
:101D400041CC31E03093850480915D0340915C0388
:101D50002AE0622F0E945115809386049093870495
:101D600030938804842F0E945115809389049093A6
:101D70008A0442E050E0C130D10509F455C383E044
:101D800090E0229709F08FCE90933503809334032F
:101D90008ACE8091580390E29093860490938704B2
:101DA000909388046AE00E9451158093890490936F
:101DB0008A04C130D10519F710923503109234030B
:101DC00072CEE0915B03E150FF0BEE0FFF1FE1507D
:101DD000FE4F808191810E94BB00C130D10561F32B
:101DE00084E090E0229709F05ECECECF8091700320
:101DF00090917103A0917203B091730340912503F8
:101E00005091260360912703709128038C019D0156
:101E1000041B150B260B370B093E1340210531051A
:101E200020F4452B462B472B59F58093250390939F
:101E30002603A0932703B093280384E10E94CB02DA
:101E4000BC01990F880B990B0E942F1423E333E3F5
:101E500043E550E40E94E41420E030E040E85AE317
:101E60000E94E41420E030E040E05FE30E9413139E
:101E70002AE037ED43E25CE30E9485132B013C012D
:101E800010910001163409F047C020E030E040E135
:101E900051E4C301B2010E94E41420E030E040EAC2
:101EA00050E40E94851320E030E040E052E40E94BC
:101EB00014136B017C0120E030E048EC52E40E94F6
:101EC00085130E94FE136093860420E030E040E218
:101ED00051E4C701B6010E9485130E94F713CB019C
:101EE000B1010E947F158093870480E2809388046B
:101EF000C701B6010E94F713CB01B1010E947F1503
:101F00008093890410938A04C130D10509F454CF19
:101F1000229709F0C8CD50CF81E08093850420E05E
:101F200030E040E251E4C301B2010E9485130E94F7
:101F3000FE1360938604C301B2010E94F713CB0124
:101F4000B1010E947F158093870480E2809388040A
:101F50008AE2D6CF00912B0310912C03E0912F033E
:101F6000F0913003A0902D03B0902E0340913303E5
:101F7000442371F180915A0390E08E1B9F0B60E126
:101F80007EE0869F9001879F300D969F300D112433
:101F90008091590390E08A199B095CE3589FB00136
:101FA000599F700D1124260F371F8091580390E020
:101FB000801B910B280F391FC9016CE370E00E9450
:101FC0007F15F62E53E656175CF5A3E6FA2E28C0C9
:101FD0000115110531F4A114B10419F4309709F475
:101FE0006DC081E08093850480E19EE0E89F9001D0
:101FF000E99F300DF89F300D11245CE35A9DC0011C
:102000005B9D900D1124280F391F200F311FC9012E
:102010006CE370E00E947F15F62E83E68617ACF223
:10202000C9016CE370E00E947F15382F2AE08F2DE4
:10203000622F0E945D15809386049093870481E04F
:1020400080938804832F622F0E945D1580938904FA
:1020500090938A04C130D10509F4AECE229709F0DD
:1020600022CD4423C9F11092330380915C0390E0A8
:102070002091310330913203821B930B90933203F2
:102080008093310380915A0390E08E1B9F0B9093B5
:10209000300380932F038091590390E08A199B09A4
:1020A00090932E0380932D038091580390E0801B22
:1020B000910B90932C0380932B03F5CC81E08093BC
:1020C00085041092860410928704809388041092ED
:1020D000890410928A04BECF012B21F5AB2811F59B
:1020E000EF2B01F581E0809333038091580390E05A
:1020F00090932C0380932B038091590390E090934D
:102100002E0380932D0380915A0390E09093300327
:1021100080932F0380915C0390E09093320380932F
:102120003103C1CC10922C0310922B0310922E037A
:1021300010922D031092300310922F03109232034D
:1021400010923103B0CC80E792E00E94BB00C13016
:10215000D10509F431CE26E030E0229709F0A3CC76
:1021600030933503209334039ECC86E792E00E949F
:10217000BB00C130D10551F487E090E09093350366
:102180008093340380915A0390E024C1229709F090
:102190008ACC88E090E0F8CDE0912903F0912A0301
:1021A000CF01B1010E946B15609386048093870470
:1021B00080E2809388048093890480938A04C230EB
:1021C000D10551F43196E831F10509F44BC0F09393
:1021D0002A03E093290367CC219709F064CCE090AF
:1021E0005D0300915C0320915B034E2F60915903C6
:1021F00080E00E94DA04CDCF8CE792E00E94BB0021
:10220000C130D10549F489E090E090933503809383
:10221000340380915903B8CF229709F044CC30920F
:102220003503209234038FE6809389043CCCE091FF
:102230002903F0912A0380E2809386048093870427
:1022400080938804CF01B1010E946B1560938904CB
:1022500080938A04C230D10551F43196EC33F105F4
:1022600009F0B5CF10922A03109229031CCC2197B4
:1022700009F019CCE0905D0300915C0320915B03B1
:1022800040915A036E2F80E00E94DA0430923503A9
:102290002092340308CC82E892E00E94BB00C13057
:1022A000D10549F48BE090E090933503809334039B
:1022B00080915B0369CF229709F0F5CB8CE090E029
:1022C00063CDA0902903B0902A034A2D4150550BAD
:1022D000FA01EE0FFF1FE150FE4F808191810E94B5
:1022E000BB00C230D10569F45FEFA51AB50A88E0DA
:1022F000A816B10409F4BFC0B0922A03A092290322
:10230000D2CB219709F0CFCBC0905E03E0905D0364
:1023100000915C032A2D40915A03609159038091EA
:1023200058030E94DA04CACF88E892E00E94BB00FA
:10233000C130D10549F48DE090E09093350380934E
:10234000340380915C0320CF229709F0ACCB8EE060
:1023500090E01ACD0091290310912A0380E2809326
:1023600086048093870480938804C801B1010E9489
:102370006B156093890480938A04C230D10579F586
:102380000F5F1F4F10932A030093290320915D03D1
:10239000E22FF0E0EE0FFF1FE35FFD4F80819181A0
:1023A00001960817190731F441E050E050932A03D1
:1023B000409329038C2D837009F075CB223009F0EE
:1023C00072CB8091290390912A034D9709F06BCB32
:1023D00081E090E090932A038093290364CB2197B6
:1023E00009F061CBE0905D0320915B0340915A03BB
:1023F00060915903809158030E94DA04A8CF8EE8B7
:1024000092E00E94BB00C130D10549F42FE030E0DA
:10241000309335032093340380915D03B5CE22972A
:1024200009F041CB40E150E0509335034093340331
:102430003ACBE0902903F0902A03C701B1010E9432
:102440006B15609386048093870480E280938804F0
:102450008093890480938A04C230D10599F45FEF98
:10246000E51AF50A8DE0E816F10429F0F0922A0346
:10247000E092290318CB21E030E030932A03209327
:10248000290311CB219709F00ECB00915C03209119
:102490005B0340915A0360915903809158030E9455
:1024A000DA04C0CF84E992E00E94BB00C130D105BC
:1024B00049F481E190E09093350380933403809157
:1024C0005E0362CE229709F0EECA22E130E048CEE8
:1024D000C0902903D0902A0382E38093860480E38E
:1024E0008093870480E280938804C601B1010E9432
:1024F0006B156093890480938A04C230D10579F406
:102500003FEFC31AD30A44E6C416D10429F0D0928F
:102510002A03C0922903C7CA84E190E05BCF2197C8
:1025200009F0C1CAE0905D0300915C0320915B0358
:1025300040915A0360915903809158030E94DA0434
:10254000C4CF8AE992E00E94BB0043E150E0C13071
:10255000D10509F469CF229709F0A5CA86E090E079
:1025600013CC8091000190E29093860490938704AD
:10257000909388049AE29093890480938A04C130EE
:10258000D10549F426E030E030933503209334033D
:102590000E94820588CA229709F085CA833421F4F3
:1025A00086E4809300017FCA83E4FBCF039709F0A0
:1025B00088CA84E190E0909335038093340381CA04
:1025C000833009F4D9CA853008F027CB20E0D4CA7B
:1025D0000E947F0282CB893E93400CF0EAC84423DC
:1025E00009F4F9C880915F038111F1C882E090E09D
:1025F00090936503809364035EC8F999FECF92BD02
:1026000081BDF89A992780B50895262FF999FECFB4
:102610001FBA92BD81BD20BD0FB6F894FA9AF99AFF
:102620000FBE019608955058BB27AA270E942B136E
:102630000C94A5140E94971438F00E949E1420F068
:1026400039F49F3F19F426F40C9494140EF4E09599
:10265000E7FB0C948E14E92F0E94B61458F3BA17B6
:10266000620773078407950720F079F4A6F50C94A8
:10267000D8140EF4E0950B2EBA2FA02D0B01B90142
:1026800090010C01CA01A0011124FF27591B99F0E8
:10269000593F50F4503E68F11A16F040A22F232FF4
:1026A000342F4427585FF3CF469537952795A79544
:1026B000F0405395C9F77EF41F16BA0B620B730BEB
:1026C000840BBAF09150A1F0FF0FBB1F661F771F5C
:1026D000881FC2F70EC0BA0F621F731F841F48F411
:1026E000879577956795B795F7959E3F08F0B0CF9A
:1026F0009395880F08F09927EE0F97958795089581
:102700000E946A1408F481E008950E9499130C94C1
:10271000A5140E949E1458F00E94971440F029F4CA
:102720005F3F29F00C948E1451110C94D9140C9421
:1027300094140E94B61468F39923B1F3552391F3CE
:10274000951B550BBB27AA2762177307840738F020
:102750009F5F5F4F220F331F441FAA1FA9F335D07D
:102760000E2E3AF0E0E832D091505040E695001C31
:10277000CAF72BD0FE2F29D0660F771F881FBB1FEB
:10278000261737074807AB07B0E809F0BB0B802DC9
:10279000BF01FF2793585F4F3AF09E3F510578F0F5
:1027A0000C948E140C94D9145F3FE4F3983ED4F348
:1027B000869577956795B795F7959F5FC9F7880FC9
:1027C000911D9695879597F90895E1E0660F771F1B
:1027D000881FBB1F621773078407BA0720F0621BAC
:1027E000730B840BBA0BEE1F88F7E09508950E94D7
:1027F000FE136894B1110C94D91408950E94BE146C
:1028000088F09F5798F0B92F9927B751B0F0E1F0B1
:10281000660F771F881F991F1AF0BA95C9F714C061
:10282000B13091F00E94D814B1E008950C94D814FE
:10283000672F782F8827B85F39F0B93FCCF386959A
:1028400077956795B395D9F73EF4909580957095F7
:1028500061957F4F8F4F9F4F0895E89409C097FB74
:102860003EF490958095709561957F4F8F4F9F4F67
:102870009923A9F0F92F96E9BB279395F6958795AB
:1028800077956795B795F111F8CFFAF4BB0F11F46E
:1028900060FF1BC06F5F7F4F8F4F9F4F16C0882315
:1028A00011F096E911C0772321F09EE8872F762F4B
:1028B00005C0662371F096E8862F70E060E02AF08C
:1028C0009A95660F771F881FDAF7880F9695879578
:1028D00097F90895990F0008550FAA0BE0E8FEEF4D
:1028E00016161706E807F907C0F012161306E407D4
:1028F000F50798F0621B730B840B950B39F40A26CD
:1029000061F0232B242B252B21F408950A2609F4AA
:10291000A140A6958FEF811D811D089597F99F67AE
:1029200080E870E060E008959FEF80EC0895002457
:102930000A941616170618060906089500240A9424
:1029400012161306140605060895092E0394000CAA
:1029500011F4882352F0BB0F40F4BF2B11F460FF39
:1029600004C06F5F7F4F8F4F9F4F089557FD905862
:10297000440F551F59F05F3F71F04795880F97FB43
:10298000991F61F09F3F79F08795089512161306FD
:102990001406551FF2CF4695F1DF08C0161617062C
:1029A0001806991FF1CF8695710561050894089561
:1029B000E894BB2766277727CB0197F908950E94F3
:1029C0006A1408F48FEF08950E94F7140C94A5146C
:1029D0000E94971438F00E949E1420F0952311F065
:1029E0000C948E140C94941411240C94D9140E94F9
:1029F000B61470F3959FC1F3950F50E0551F629F79
:102A0000F001729FBB27F00DB11D639FAA27F00D47
:102A1000B11DAA1F649F6627B00DA11D661F829F6E
:102A20002227B00DA11D621F739FB00DA11D621F53
:102A3000839FA00D611D221F749F3327A00D611D70
:102A4000231F849F600D211D822F762F6A2F112452
:102A50009F5750409AF0F1F088234AF0EE0FFF1F85
:102A6000BB1F661F771F881F91505040A9F79E3FDC
:102A7000510580F00C948E140C94D9145F3FE4F34C
:102A8000983ED4F3869577956795B795F795E79532
:102A90009F5FC1F7FE2B880F911D9695879597F93B
:102AA0000895991B79E004C0991F961708F0961BAA
:102AB000881F7A95C9F78095089587FB082E06260A
:102AC00087FD819567FD61950E9451150EF49195E2
:102AD00007FC81950895AA1BBB1B51E107C0AA1FE3
:102AE000BB1FA617B70710F0A61BB70B881F991FAF
:102AF0005A95A9F780959095BC01CD01089597FB53
:102B0000072E16F4009407D077FD09D00E946B15AC
:102B100007FC05D03EF4909581959F4F08957095E0
:102B200061957F4F0895EE0FFF1F0590F491E02D02
:102B30000994F894FFCF202000020040000001001B
:102B4000089D02080215061906880699049D0409C5
:102B5000029D069906000000000000000000000031
:102B60000000000000000000000000000000000065
:102B70000000000000000000000000000000000055
:102B80000000000000000000000000000000000045
:102B900000000000008106000000000000000000AE
:102BA000009D02080215061906880699049D04096D
:102BB000029D0699060000000000000000000000D1
:102BC0000000008D069D0695000000950485040018
:102BD000008C06080200000000940009028D029D8E
:102BE00002850600000000990400009C0200001805
:102BF0000200008806000000000000000000000045
:102C000000000000009C0414041C069506850400C6
:102C1000008C04040000000000000008040C041CE8
:102C200004000000000404990494041C000000182F
:102C300000000098068E02A602AC02B202B802BEE4
:102C400002C40200001F001D001F001E001F001E06
:102C5000001F001F001E001F001E001F00000000BC
:102C6000002701B501C8007401F900D700EB00008E
:102C7000000000A604790462054F0472045F04504A
:102C8000040D0A004578636565646564206D6178AC
:102C9000696D756D206E756D626572206F66207747
:102CA000726974657300534520742000486F207565
:102CB00072004E4E20696E00646F20555500646F9F
:102CC000204E4E004E4E206F6E005945204172003E
:102CD0007445206E6E004241204C6F007475204593
:102CE0002000555520456400746820752000467208
:102CF000206920005341207420005375206E20006D
:107E0000112484B714BE81FFF1D085E080938100F6
:107E1000589A82E08093C00088E18093C10086E098
:107E20008093C20080E18093C4008EE0C9D0259A7F
:107E300086E028E13EEF91E03093850020938400B6
:107E400096BBB09BFECF1D9AA8958150A9F7CC2474
:107E5000DD2488248394B5E0AB2EA1E19A2EF3E0D3
:107E6000BF2EA2D0813461F49FD0082FAFD002384A
:107E700011F0013811F484E001C083E08DD089C095
:107E8000823411F484E103C0853419F485E0A6D06E
:107E900080C0853579F488D0E82EFF2485D0082F5E
:107EA00010E0102F00270E291F29000F111F8ED060
:107EB00068016FC0863521F484E090D080E0DECF89
:107EC000843609F040C070D06FD0082F6DD080E0AC
:107ED000C81680E7D80618F4F601B7BEE895C0E0EA
:107EE000D1E062D089930C17E1F7F0E0CF16F0E70C
:107EF000DF0618F0F601B7BEE89568D007B600FCBB
:107F0000FDCFA601A0E0B1E02C9130E011968C915C
:107F1000119790E0982F8827822B932B1296FA01C5
:107F20000C0187BEE89511244E5F5F4FF1E0A03849
:107F3000BF0751F7F601A7BEE89507B600FCFDCFD5
:107F400097BEE89526C08437B1F42ED02DD0F82EF8
:107F50002BD03CD0F601EF2C8F010F5F1F4F849187
:107F60001BD0EA94F801C1F70894C11CD11CFA9403
:107F7000CF0CD11C0EC0853739F428D08EE10CD03F
:107F800085E90AD086E17ACF813511F488E018D0EE
:107F90001DD080E101D065CF982F8091C00085FF72
:107FA000FCCF9093C60008958091C00087FFFCCF5E
:107FB0008091C00084FD01C0A8958091C6000895FD
:107FC000E0E6F0E098E1908380830895EDDF803271
:107FD00019F088E0F5DFFFCF84E1DECF1F93182F83
:107FE000E3DF1150E9F7F2DF1F91089580E0E8DF49
:067FF000EE27FF270994B3
:027FFE00040479
:00000001FF
