:100000000C9491000C94B9000C94B9000C94C00DA0
:100010000C94880D0C94B9000C94B9000C940B0D41
:100020000C94B9000C94B9000C94B9000C943E0DDA
:100030000C94B9000C94B9000C94D20B0C94B90038
:100040000C946B0A0C94B9000C94390A0C94130AA2
:100050000C94B9000C94B9000C94B9000C94B9003C
:100060000C94B70A0C94B9000C94B50A0C94B50A18
:100070000C94B50A0C94B50A0C94B50A0C94B50A04
:100080000C94B50A0C94B50A0C94B50A0C94B50AF4
:100090000C94B50A0C94B50A0C94B50A0C94B50AE4
:1000A0000C94B50A0C94B50A0C94B50A0C94B50AD4
:1000B0000C94B50A00000000240027002A002D003F
:1000C00000000000250028002B002E00000000008A
:1000D0002300260029002C00040404040404040462
:1000E00002020202020203030303030305050505DE
:1000F00001020408102040800102040810200102BF
:100100000408102004080102090C0A08000201007A
:1001100000030407000000000000000000000000D1
:10012000CA0D11241FBECFEFD8E0DEBFCDBF12E055
:10013000A0E0B1E0E4EDFDE302C005900D92A2382D
:10014000B107D9F724E0A2E8B2E001C01D92AE35B4
:10015000B207E1F710E0C1E9D0E004C02197FE0149
:100160000E94E21EC039D107C9F70E94090E0C9403
:10017000E81E0C940000FC01538D448D252F30E0C7
:10018000842F90E0821B930B541710F0CF960895A4
:1001900001970895FC01918D828D981761F0A28DD1
:1001A000AE0FBF2FB11D5D968C91928D9F5F9F7397
:1001B000928F90E008958FEF9FEF0895FC01918D4D
:1001C000828D981731F0828DE80FF11D858D90E0BA
:1001D00008958FEF9FEF0895FC01918D228D892F57
:1001E00090E0805C9F4F821B91098F73992708953F
:1001F000FC01A48DA80FB92FB11DA35ABF4F2C919C
:10020000848D90E001968F739927848FA689B78992
:100210002C93A089B1898C91837080648C93938D89
:10022000848D981306C00288F389E02D80818F7D2C
:1002300080830895EF92FF920F931F93CF93DF93E4
:10024000EC0181E0888F9B8D8C8D98131AC0E88912
:10025000F989808185FF15C09FB7F894EE89FF89E1
:100260006083E889F98980818370806480839FBF7F
:1002700081E090E0DF91CF911F910F91FF90EF907F
:100280000895F62E0B8D10E00F5F1F4F0F7311278F
:10029000E02E8C8D8E110CC00FB607FCFACFE889CA
:1002A000F989808185FFF5CFCE010E94F800F1CF5A
:1002B000EB8DEC0FFD2FF11DE35AFF4FF0829FB73E
:1002C000F8940B8FEA89FB8980818062CFCFCF932E
:1002D000DF93EC01888D8823B9F0AA89BB89E8896E
:1002E000F9898C9185FD03C0808186FD0DC00FB614
:1002F00007FCF7CF8C9185FFF2CF808185FFEDCF92
:10030000CE010E94F800E9CFDF91CF91089583EBF1
:1003100093E00E94EC0021E0892B09F420E0822F79
:10032000089580E090E0892B29F00E9487018111D7
:100330000E94000080E090E0892B49F080E090E08E
:10034000892B29F00E94000081110C94000008956F
:10035000AF92BF92CF92DF92EF92FF920F931F93D3
:10036000CF93DF936C017B018B01040F151FEB0111
:100370005E01AE18BF08C017D10759F06991D601C8
:10038000ED91FC910190F081E02DC6010995892B3A
:1003900079F7C501DF91CF911F910F91FF90EF90F9
:1003A000DF90CF90BF90AF90089581508D3008F0CE
:1003B0003DC0E82FF0E0E152FE4F0C94E21EF60142
:1003C000FA01EC01F20116021602FD010302070216
:1003D0000D02160211021702809180008F77809320
:1003E00080000895809180008F7DF9CF84B58F774C
:1003F00084BD089584B58F7DFBCF8091B0008F7749
:100400008093B00008958091B0008F7DF9CF8091E6
:1004100090008F77809390000895809190008F7D59
:10042000F9CF8091A0008F778093A00008958091EC
:10043000A0008F7DF9CFCF93DF93282F30E0F90113
:10044000E85FFE4F8491F901E051FF4FD491F9012B
:10045000E852FF4FC491CC23A1F081110E94D50135
:10046000EC2FF0E0EE0FFF1FE453FF4FA591B49186
:10047000EC91ED2381E090E009F480E0DF91CF91F1
:10048000089580E090E0FACF1F93CF93DF93282F59
:1004900030E0F901E85FFE4F8491F901E051FF4F30
:1004A000D491F901E852FF4FC491CC23A9F0162F43
:1004B00081110E94D501EC2FF0E0EE0FFF1FE054F8
:1004C000FF4FA591B4918FB7F894EC91111108C02A
:1004D000D095DE23DC938FBFDF91CF911F910895DC
:1004E000DE2BF8CF0F931F93CF93C82F0091AB0350
:1004F0001091AC032091AD033091AE036091AF0336
:100500007091B0038091B1039091B203601B710BA5
:10051000820B930B24EF31E040E050E00E94C31EB9
:10052000683C7105810591053CF461E08C2FCF9109
:100530001F910F910C94440260E0F8CF8FE090E09F
:100540000E9472028EE090E00E94720288E090E0C9
:100550000E94720287E090E00C947202CF93DF93C6
:1005600090E0FC01E051FF4F249188529F4FFC0125
:1005700084918823C9F090E0880F991FFC01EC5406
:10058000FF4FA591B491FC01E054FF4FC591D49168
:1005900061110DC09FB7F8948C91209582238C93A4
:1005A0008881282328839FBFDF91CF9108956230EF
:1005B00051F49FB7F8943C91822F809583238C93BC
:1005C000E8812E2BEFCF8FB7F894EC912E2B2C9344
:1005D0008FBFEACF8E50806480937C0080917A0038
:1005E000806480937A0080917A0086FDFCCF8091B0
:1005F00078009091790008953FB7F8948091F402C3
:100600009091F502A091F602B091F70226B5A89B51
:1006100005C02F3F19F00196A11DB11D3FBFBA2F94
:10062000A92F982F8827BC01CD01620F711D811D54
:10063000911D43E0660F771F881F991F4A95D1F7D8
:1006400008958F929F92AF92BF92CF92DF92EF92D6
:10065000FF920E94FC024B015C0188EEC82E83E0F1
:10066000D82EE12CF12C0E94FC02681979098A0924
:100670009B09683E734081059105A8F321E0C21AE9
:10068000D108E108F10888EE880E83E0981EA11CCD
:10069000B11CC114D104E104F10429F7FF90EF90DB
:1006A000DF90CF90BF90AF909F908F9008951F9351
:1006B000CF93DF93C1E0C093AB02882399F1D0912F
:1006C000B8001091BA008091BC008A7B8093BC0076
:1006D00060E082E10E94440260E083E10E94440203
:1006E00010928103C093800310925B0361E082E16A
:1006F0000E94440261E083E10E9444028091B900BB
:100700008E7F8093B9008091B9008D7F8093B9006E
:1007100080E28093B80085E48093BC001093BA0017
:10072000D093B800DF91CF911F910895CF92DF92BF
:10073000EF92FF920F931F93CF93DF93D091AA0371
:1007400081E0D13208F09CC0C091A9030E94FC0254
:100750006B017C018091810381116CC082E08093E8
:10076000810381E0809380038FEF80937F03109259
:100770007E03D0937D03A9E8B3E0EDE5F3E080E0EC
:10078000D8138DC010925C0380915C03CC0FC82BF2
:10079000C0935C0380915B03813009F084C01092A8
:1007A0005B030E94FC026B017C0180915C038093DF
:1007B000BB008091830390918403A0918503B09145
:1007C0008603892B8A2B8B2BA1F00E94FC020091BF
:1007D00083031091840320918503309186036C1963
:1007E0007D098E099F09061717072807390708F49E
:1007F00042C08091BC0083FDD8CF85EC8093BC00C3
:100800000E94FC026B017C0180918103823009F41B
:100810004CC080917F038F3F09F469C080917F03B2
:10082000803209F466C080917F03803309F463C08D
:1008300084E026C08091830390918403A091850376
:10084000B0918603892B8A2B8B2B09F483CF0E94CE
:10085000FC02009183031091840320918503309161
:1008600086036C197D098E099F090617170728074B
:10087000390708F06FCF809182030E94570385E00B
:10088000109288031092AA0310928703DF91CF91F0
:100890001F910F91FF90EF90DF90CF9008959D9161
:1008A00091938F5F6DCF85EEA9CF80918303909157
:1008B0008403A0918503B0918603892B8A2B8B2B0F
:1008C00009F4A2CF0E94FC020091830310918403DB
:1008D00020918503309186036C197D098E099F094B
:1008E000061717072807390708F08ECFC4CF80E016
:1008F000C7CF82E0C5CF83E0C3CFCF92DF92EF9224
:10090000FF920F931F93CF93DF93D82FC62F61329F
:1009100008F098C00E94FC026B017C018091810369
:1009200081116BC081E080938103809380039FEFEE
:1009300090937F0310927E039C0F90937D0380938E
:100940005C0380915C03DD0FD82BD0935C03809116
:100950005B03813009F078C010925B030E94FC02B7
:100960006B017C0180915C038093BB0080918303C9
:1009700090918403A0918503B0918603892B8A2BE3
:100980008B2BA1F00E94FC02009183031091840341
:1009900020918503309186036C197D098E099F098A
:1009A000061717072807390708F448C08091BC00CC
:1009B00083FDD8CF85EC8093BC000E94FC026B01C4
:1009C0007C0180918103813009F440C080917E03D5
:1009D0008C1710F4C0917E03EDE5F3E0ABE3B3E0D8
:1009E00080E08C1355C08C2FDF91CF911F910F9118
:1009F000FF90EF90DF90CF900895809183039091C6
:100A00008403A0918503B0918603892B8A2B8B2BBD
:100A100009F484CF0E94FC020091830310918403A7
:100A200020918503309186036C197D098E099F09F9
:100A3000061717072807390708F070CF809182033F
:100A40000E945703C0E0CFCF85EEB5CF80918303DE
:100A500090918403A0918503B0918603892B8A2B02
:100A60008B2B09F4AECF0E94FC02009183031091FE
:100A7000840320918503309186036C197D098E09CA
:100A80009F09061717072807390708F09ACFD6CF0E
:100A900091919D938F5FA5CF2091CC02260F332794
:100AA000331F21323105ECF420918103FC0190E0E9
:100AB00080E0243069F082E00895A091CC02219179
:100AC000AC0144555D4FA40FB52FB11D2C93019679
:100AD000861798F38091CC02680F6093CC0280E077
:100AE000089581E008950895E0911A038091190313
:100AF000E81730F4F0E0E55CFC4F808190E0089569
:100B00008FEF9FEF089590911A03809119032FEFB3
:100B10003FEF981748F4E92FF0E0E55CFC4F2081A7
:100B200030E09F5F90931A03C901089580911903E3
:100B300090911A03891B990B0895CF92DF92EF923F
:100B4000FF920F931F93CF93DF937C01CB018A0118
:100B500020918703222389F0EB016B01C40ED51E7F
:100B6000CC15DD0569F06991D701ED91FC910190FB
:100B7000F081E02DC7010995F3CF642F0E944C0549
:100B8000C801DF91CF911F910F91FF90EF90DF90FF
:100B9000CF900895CF93DF931F92CDB7DEB76983CF
:100BA000209187032223F9F02091AA03203258F0E4
:100BB00021E030E0FC013383228390E080E00F905D
:100BC000DF91CF91089580918803E82FF0E0E757F7
:100BD000FC4F998190838F5F809388038093AA0351
:100BE00081E090E0ECCF61E0CE0101960E944C05DF
:100BF000F7CF682F80E594E00C94CA0590E080E080
:100C000008950F931F93CF93DF93E82FF0E0EE0F3B
:100C1000FF1FEA5FFD4FC081D181C62BD72B411149
:100C2000C06461E084E00E94440210E000E0CE0174
:100C3000002E02C0969587950A94E2F761E080FF46
:100C400060E080E00E94440260E082E00E94440292
:100C500061E082E00E94440261E081E00E9444027F
:100C600060E081E00E9444020F5F1F4F0C301105CD
:100C7000F1F661E084E00E94AE0260E084E0DF9182
:100C8000CF911F910F910C9444028F929F92AF923B
:100C9000BF92CF92DF92EF92FF92CF93DF93C090FB
:100CA000AF03D090B003E090B103F090B203809115
:100CB000A0029091A102A091A202B091A302B090D3
:100CC0002E03A7019601281B390B4A0B5B0BDA0197
:100CD000C9010B97A105B10578F48091A00290910C
:100CE000A102A091A202B091A302892B8A2B8B2B87
:100CF00019F0BB2009F481C0C092A002D092A102D9
:100D0000E092A202F092A30280E10E94EA02EC01CA
:100D1000BB20E1F0C701B60120E137E240E050E03E
:100D20000E94A11E672B682B692B81F410929C02F4
:100D300010929D0210929E0210929F0210929802B1
:100D40001092990210929A0210929B0280909C023B
:100D500090909D02A0909E02B0909F02C090980239
:100D6000D0909902E0909A02F0909B0220E030E04F
:100D700040EF51E4C501B4010E948E1C87FF48C0BA
:100D800080911101BE0190E080E00E943B1DA7010F
:100D900096010E94221C6B017C01C0929802D092A5
:100DA0009902E0929A02F0929B0220E030E040E843
:100DB0005FE3C501B4010E94221C60939C02709302
:100DC0009D0280939E0290939F0220E030E040EFCE
:100DD00051E40E948E1C811110C020E030E040EFF1
:100DE00051E4C701B6010E94931C6093980270936E
:100DF000990280939A0290939B02DF91CF91FF908A
:100E0000EF90DF90CF90BF90AF909F908F9008951C
:100E100020E030E048EC52E4C701B6010E94ED1D2D
:100E200018161CF410921101E8CF20E030E044EBDA
:100E300052E4C701B6010E94ED1D181624F481E0AA
:100E400080931101DACF20E030E040EA52E4C7019C
:100E5000B6010E94ED1D181614F482E0F1CF83E074
:100E6000EFCF982F92959F708F702AE0929F800D00
:100E7000112408956AE00E945F1E8295807F890F89
:100E80000895CF92EF92FF920F931F93CF93DF932A
:100E9000F82E162FD42FC22F81E08093870388E687
:100EA0008093A903109288031092AA0390E080E037
:100EB0000E94F9058F2D0E943A07682F80E594E083
:100EC0000E94CA05812F0E943A07682F80E594E0AE
:100ED0000E94CA058D2F0E943A07682F80E594E092
:100EE0000E94CA058C2F0E943A07682F80E594E083
:100EF0000E94CA05802F0E943A07682F80E594E07F
:100F00000E94CA058E2D0E943A07682F80E594E062
:100F10000E94CA058C2D0E943A07682F80E594E054
:100F20000E94CA05DF91CF911F910F91FF90EF9022
:100F3000CF900C949603CF93DF93EB0121E02093A5
:100F4000870328E62093A903109288031092AA032E
:100F50000E94F905CE010E94F905DF91CF910C9412
:100F6000960381508730D8F4E82FF0E0E654F84F2C
:100F70000C94E21EC107D007DD07EA07F507000859
:100F80000B088EE4809307038093080380E280932C
:100F900009038FE680930A038EE680930B0308957E
:100FA00084E78093070385E78093080380E28093BA
:100FB000090395E490930A03F0CF85E58093070336
:100FC0008093080380E28093090385E480930A03F9
:100FD00084E6E3CF84E78093070388E680930803E1
:100FE00080E28093090395E7E5CF86E480930703C9
:100FF00082E78093080380E28093090399E6DACFC1
:1010000083E78093070381E48093080380E2809361
:10101000090394E7CFCF83E58093070385E78093A7
:10102000080380E2809309039EE6C4CFEBE1F3E07E
:1010300082813181E7E0F3E02AE0622F0E945F1EA7
:101040008083918381E08283832F0E945F1E83834C
:1010500094830895CF93DF93FC0101900020E9F77A
:101060003197AF01481B590BBC0183EB93E00E9401
:10107000A801EC0142E050E06CE572E083EB93E004
:101080000E94A8018C0F9D1FDF91CF9108952091A0
:10109000390330913A032F5F3F4F30933A03209347
:1010A000390340915C0450915D044115510519F0DC
:1010B0004217530734F48FE592E00E942A0880E03B
:1010C0000895682F80E190E00E94131C81E008954C
:1010D00021E02093870328E62093A9031092880338
:1010E0001092AA030E94F9050E94960361E088E627
:1010F0000E947D0410921A038093190380E594E006
:101100000C948305CF93DF938FE090E00E946808F2
:10111000EC0181E08093870388E68093A903109215
:1011200088031092AA038FE090E00E94F905CE0197
:101130008C7F99270E94F905DF91CF910C9496033B
:10114000CF92EF920F93CF939091380391112EC1CC
:101150009091280391112AC1C82FE0912A03F091A0
:101160002B033797EF30F10510F5E754F74F0C9448
:10117000E21EC808D7088909D7089609D708A50923
:10118000D708AE09D708B509D708BA09D708BF09E3
:10119000C0902103E090200300911F0320911E03C3
:1011A0004091170360911C0380E00E94410760E0BA
:1011B0008FE00E94440260E08EE00E94440260E002
:1011C00088E00E94440260E087E00E94440260E000
:1011D00081E00E94440260E082E00E94440260E0FC
:1011E00080E00E94440260E084E00E94440260E0EB
:1011F00086E10E94440260E085E00E94440260E0D3
:1012000086E00E94440260E085E10E94440281E0A1
:1012100080933803109298021092990210929A02C9
:1012200010929B0210929C0210929D0210929E02BC
:1012300010929F02F894CC2309F4B3C08091680007
:1012400081608093680080916B00846080936B0064
:101250008091680082608093680080916C00886053
:1012600080936C0080917A008093950210927A00AE
:1012700085B7982F90668F7D80648093940295BF88
:101280008091940285BF10926F00789483B781603B
:1012900083BF0E948208889580913803882309F4CF
:1012A00085C084E08093110183B78E7F83BF8091D6
:1012B000950280937A0010922B0310922A0380915A
:1012C000AF039091B003A091B103B091B2038093AA
:1012D0002F0390933003A0933103B0933203109205
:1012E000A0021092A1021092A2021092A302809179
:1012F0006F00826080936F0081E0809333031092CF
:10130000380361E085E1CF910F91EF90CF900C947D
:101310004402C0902103E090200300911F0320911C
:101320001E0340911D03609117033ECFC09021031F
:10133000E090200300911F032091170340911D03AB
:1013400060911C0380911B0330CFC0902103E0907B
:1013500020030091170320911E03F0CFC0902103BA
:10136000E090170300911F03F6CFC0901703E090A1
:101370002003F8CF80910A010E94470818CFE0911E
:101380001703F0911803EE0FFF1FE05FFD4F808100
:1013900091819093100180930F0181E080932E033F
:1013A00006CF1092680010926B0052CFCF910F9130
:1013B000EF90CF90089585ED8093BC0080918303DA
:1013C00090918403A0918503B09186030796A11D97
:1013D000B11D23E0B695A795979587952A95D1F7E6
:1013E0002091BC0024FD03C0109281030895409118
:1013F0008303509184036091850370918603452B8C
:10140000462B472B69F30097A105B10541F02AE16E
:101410002A95F1F700C00197A109B109E1CF8091A8
:1014200082030C9457031F920F920FB60F92112450
:101430002F933F934F935F936F937F938F939F93DC
:10144000AF93BF93EF93FF9383EB93E00E94F80079
:10145000FF91EF91BF91AF919F918F917F916F918C
:101460005F914F913F912F910F900FBE0F901F9062
:1014700018951F920F920FB60F9211242F938F93EE
:101480009F93EF93FF93E091C303F091C403808196
:10149000E091C903F091CA0382FD1BC09081809145
:1014A000CC038F5F8F732091CD03821741F0E091C1
:1014B000CC03F0E0ED54FC4F958F8093CC03FF916B
:1014C000EF919F918F912F910F900FBE0F901F90D2
:1014D00018958081F4CF1F920F920FB60F921124AE
:1014E0002F933F938F939F93AF93BF938091F0027D
:1014F0009091F102A091F202B091F3023091EF02CB
:1015000026E0230F2D3758F50296A11DB11D20931B
:10151000EF028093F0029093F102A093F202B09355
:10152000F3028091F4029091F502A091F602B0913D
:10153000F7020196A11DB11D8093F4029093F5026C
:10154000A093F602B093F702BF91AF919F918F9154
:101550003F912F910F900FBE0F901F90189529E883
:10156000230F0396A11DB11DD2CF0C94B9001F9279
:101570000F920FB60F9211242F933F934F935F93C7
:101580006F937F938F939F93AF93BF93EF93FF934B
:101590008091B900887F803609F44AC0F0F588321E
:1015A00009F4A5C018F5803109F499C0B8F488236E
:1015B00009F4F5C0883009F492C0FF91EF91BF9112
:1015C000AF919F918F917F916F915F914F913F91DB
:1015D0002F910F900FBE0F901F901895883109F42E
:1015E00086C0803251F780937F0314C0803409F4A1
:1015F0009BC040F48033B9F38833F9F680937F03BE
:1016000085ECAEC0803509F483C0883509F494C0F8
:10161000883499F60E94DB09D0CF883909F48AC052
:1016200038F5883729F050F4883611F0803729F6DC
:1016300083E0809381031092EE0255C0883809F44C
:1016400079C0803919F0803809F0B7CF8091EE0267
:10165000803208F06FC0E091EE0281E08E0F80933F
:10166000EE028091BB00F0E0E253FD4F80833BC06F
:10167000803B39F0D0F4803A09F477C0883A09F019
:101680009CCF84E0809381031092CD021092CC0213
:10169000F0E0E0E009958091CC0281110FC081E07B
:1016A0008093CC021092AC0209C0803C09F4A8CF10
:1016B000883C09F4A5CF883B09F07FCFE091CD02AB
:1016C00081E08E0F8093CD02F0E0E455FD4F8081E4
:1016D0008093BB009091CD028091CC0229C0809173
:1016E0005C038093BB0085EC8093BC0066CF909137
:1016F0007E0380917D03981758F5E0917E0381E089
:101700008E0F80937E03F0E0E35AFC4F8081E9CF97
:10171000E0917E0381E08E0F80937E038091BB0079
:10172000F0E0E35AFC4F808390917E0380917D032B
:101730009817C8F285E8D8CFE0917E0381E08E0F3C
:1017400080937E038091BB00F0E0E35AFC4F8083DE
:101750008091800381115ECF81E080935B0384EAF6
:101760008093BC001092810328CF85EC8093BC004D
:10177000109281038091EE02803230F4E091EE020B
:10178000F0E0E253FD4F10826091EE0270E08EECCB
:1017900092E0F0E0E0E009951092EE020ECF109298
:1017A0007F0338CF1F920F920FB60F9211248F92A2
:1017B0009F92AF92BF92CF92DF92EF92FF921F93D0
:1017C0002F933F934F935F936F937F938F939F9349
:1017D000AF93BF93CF93DF93EF93FF938091080173
:1017E00090910901019690930901809308018091DD
:1017F00008019091090183709927892BB9F4809190
:10180000340390913503A0913603B09137030196CC
:10181000A11DB11D8093340390933503A09336032B
:10182000B0933703109209011092080180910801CA
:101830009091090180FD98C080911101823009F4D6
:1018400082C080911101843009F47DC08091AA0288
:10185000811179C08091A802823019F483E08093CD
:10186000A802C090AF03D090B003E090B103F09015
:10187000B2038091A4029091A502A091A602B0911A
:10188000A70246015701881A990AAA0ABB0A8AEFD9
:1018900088169104A104B10420F040912903442347
:1018A00031F041E080910903803209F440E0109169
:1018B000A80280910A03803221F4113021F040E027
:1018C00002C01330E1F7C0910601D09107012097C3
:1018D00009F066C0E12FF0E0E95FFC4FE08170E0C5
:1018E00060E0EA3738F4F0E0EE0FFF1FEE5EFE4FE7
:1018F00060817181153078F4812F0E94010683E0A8
:1019000090E0112321F0143031F484E090E09093C2
:101910000701809306011F5F1093A80285EF8816C8
:1019200081E09806A104B10440F0C092A402D092D4
:10193000A502E092A602F092A7028091A80285304B
:1019400011F41092A80280910E03882369F080910F
:10195000A90291E089278093A9028091A902609150
:10196000A90283E00E944402FF91EF91DF91CF91A1
:10197000BF91AF919F918F917F916F915F914F91A7
:101980003F912F911F91FF90EF90DF90CF90BF90EC
:10199000AF909F908F900F900FBE0F901F90189553
:1019A000111126C0E0910B03C0FD14C070E060E08F
:1019B000EA3738F4F0E0EE0FFF1FEE5EFE4F608175
:1019C000718184E00E9401062197D0930701C093A2
:1019D0000601A4CF70E060E0EA3738F4F0E0EE0FE3
:1019E000FF1FEE5EFE4F6081718169717670E9CFF5
:1019F000113051F7E091070370E060E0EA3738F406
:101A0000F0E0EE0FFF1FEE5EFE4F608171816579A1
:101A1000747080E0D7CF1F920F920FB60F921124EF
:101A20002F933F934F935F936F937F938F939F93E6
:101A3000AF93BF93EF93FF9380910E03882369F0D8
:101A40008091A90291E089278093A9028091A9023F
:101A50006091A90283E00E944402FF91EF91BF913F
:101A6000AF919F918F917F916F915F914F913F9136
:101A70002F910F900FBE0F901F9018951F920F92ED
:101A80000FB60F9211242F933F934F935F936F9351
:101A90007F938F939F93AF93BF93CF93DF93EF93F6
:101AA000FF93C0919602D0919702C930D10574F18D
:101AB000C930D10541F560E085E00E94440260E054
:101AC00086E00E9444022196C431D105B9F0D0933A
:101AD0009702C0939602FF91EF91DF91CF91BF9152
:101AE000AF919F918F917F916F915F914F913F91B6
:101AF0002F910F900FBE0F901F9018951092970284
:101B000010929602E8CFC331D105ACF661E0D4CF94
:101B10001F920F920FB60F9211248F939F93AF9342
:101B2000BF9380912803811122C08091AF039091CF
:101B3000B003A091B103B091B20380930F039093CF
:101B40001003A0931103B09312038FE190E09093E0
:101B50002B0380932A0381E08093280380910C0358
:101B600090910D03019690930D0380930C03BF9108
:101B7000AF919F918F910F900FBE0F901F9018956E
:101B80001F920F920FB60F9211240F900FBE0F905D
:101B90001F901895E3EBF3E01382128288EE93E036
:101BA000A0E0B0E084839583A683B7832CE332E082
:101BB0003183208325EC30E03587248724EC30E026
:101BC0003787268720EC30E0318B208B21EC30E00A
:101BD000338B228B22EC30E0358B248B26EC30E0EB
:101BE000378B268B118E128E138E148EE0E5F4E067
:101BF0001382128284839583A683B7838EE492E056
:101C00009183808384E690E090935D0480935C04EC
:101C10000895CF93DF93CDB7DEB729970FB6F89429
:101C2000DEBF0FBECDBF789484B5826084BD84B51D
:101C3000816084BD85B5826085BD85B5816085BDC7
:101C400080916E00816080936E001092810080917F
:101C50008100826080938100809181008160809307
:101C60008100809180008160809380008091B1002C
:101C700084608093B1008091B00081608093B00057
:101C800080919100826080939100809191008160A9
:101C9000809391008091900081608093900080916A
:101CA000A10082608093A1008091A1008160809357
:101CB000A1008091A00081608093A00080917A00B3
:101CC000846080937A0080917A00826080937A00A9
:101CD00080917A008E7F80937A0080917A0080686C
:101CE00080937A001092C10061E083E00E94AE020E
:101CF00060E083E00E94440260E084E10E94AE0262
:101D000080E190E00E940B1C80930A0162E089E070
:101D10000E94AE0262E08AE00E94AE0260E080E1D2
:101D20000E94AE0261E085E10E94AE0260E085E1C2
:101D30000E94440261E08FE00E94AE0261E08EE00A
:101D40000E94AE0261E088E00E94AE0261E087E09E
:101D50000E94AE0261E086E10E94AE0260E086E190
:101D60000E94440261E085E00E94AE0261E086E0EC
:101D70000E94AE0261E080E00E94AE0261E081E07C
:101D80000E94AE0261E082E00E94AE0261E084E067
:101D90000E94AE0262E081E10E94AE02F8941092CD
:101DA000800010928100109285001092840089EFCB
:101DB00090E09093890080938800809181008860F2
:101DC0008093810080918100836080938100809165
:101DD0006F00826080936F0014BC15BC16BC89EF45
:101DE00087BD84B5826084BD85B5826085BD8091E4
:101DF0006E00826080936E00789483B7817F8460E8
:101E000083BF81E00E94A00866246394712CF2E0F5
:101E10004F2E512CAAE02A2E312C209138032D83ED
:101E200021110C94B41B8090340390903503A09042
:101E30003603B0903703B694A79497948794809212
:101E4000AF039092B003A092B103B092B2030E948C
:101E5000450680911101843029F40E9445060E94B4
:101E60009101DBCF80911101833021F480E00E9449
:101E7000A008F5CF80913803811122C080913303EF
:101E80008823F1F061E086E10E9444028091110113
:101E9000823021F061E082E00E944402109233031C
:101EA0008092AB039092AC03A092AD03B092AE03CC
:101EB00080922F0390923003A0923103B0923203AC
:101EC00080911101823009F457C28AE00E941B02FE
:101ED0002091240330912503892B41F42F5F3F4F3C
:101EE0003093250320932403198609C01216130684
:101EF000DCF7109225031092240331E0398789E042
:101F00000E941B022091260330912703892B09F0A0
:101F1000D4C02F5F3F4F3093270320932603209197
:101F20002403309125038091260390912703293EB5
:101F300053E0350714F40C94C21B893EA3E09A07C2
:101F40000CF4E3C085E090E090932D0380932C0384
:101F5000509223034092220381E08093870388E616
:101F60008093A903109288031092AA0390E080E066
:101F70000E94F9050E94960367E088E60E947D04AE
:101F800010921A038093190380E594E00E94830560
:101F90008F770E94310780931B0380E594E00E94B5
:101FA00083050E94310780931C0380E594E00E9422
:101FB00083058F730E94310780931D0380E594E0B1
:101FC0000E9483050E94310780931E0380E594E000
:101FD0000E9483050E94310780931F0380E594E0EF
:101FE0000E9483050E9431078093200380E594E0DE
:101FF0000E9483050E943107C82E8093210380919F
:102000002C0390912D039E838D83049709F0B4C017
:1020100085E090E090932B0380932A038091110137
:10202000813009F0C9C08091AB039091AC03A091BD
:10203000AD03B091AE03A5019401281B390B4A0BE7
:102040005B0BDA01C901803D9740A105B10508F09D
:10205000B3C080E290E090932B0380932A03E09139
:102060002A03F0912B03E232F10508F0D5C0E55CBC
:10207000FF4E0C94E21ECD12F01230135713711361
:1020800029158C16B816FE162B17681794171118F9
:102090003D180C11DC1836196619AF19D81931140E
:1020A000831A4E15781505164C160C11A918CA1767
:1020B000061A301AE810611BA112121613060CF052
:1020C0002ECF109227031092260341E04D8327CF95
:1020D0001216130614F40C94C71B809122039091DE
:1020E0002303029739F485E090E090932D038093C9
:1020F0002C0332CF24E030E030932D0320932C03C7
:10210000709223036092220327CF1816190614F445
:102110000C94C71B8091220390912303029719F31B
:1021200083E090E090932D0380932C03E9CF80917E
:10213000220390912303892BB1F44985442309F4A8
:102140000BCF8091220390912303892B29F4709265
:102150002D0360922C0300CF8091220390912303E2
:10216000892B09F4F9CE10922D0310922C031092B2
:10217000230310922203F0CEAD81BE81139719F490
:1021800084E190E047CF2D813E812530310509F073
:1021900045CF85E190E090932B0380932A03109222
:1021A0001803109217038092130390921403A092C5
:1021B0001503B092160332CF80912A0390912B031E
:1021C000809709F04CCF10922B0310922A0347CF2F
:1021D0000E9416084D815E814130510509F04DC1C4
:1021E00058E8851A53E1950AA108B10880920F03B7
:1021F00090921003A0921103B09212030E948208E1
:1022000010920E0310920D0310920C0310922B03E8
:1022100010922A03109228038090AF039090B0038D
:10222000A090B103B090B20320910F03309110033E
:1022300040911103509112032D833E834F835887A1
:1022400080912803882309F446C080910C018823DB
:1022500049F180910F0390911003A0911103B09167
:10226000120375016401C81AD90AEA0AFB0A38E8A0
:10227000C31633E1D306E104F10414F00C94721B8D
:10228000C701B60124EF31E040E050E00E94C31ED8
:102290006A3F71058105910514F00C94951B81E04E
:1022A00080930E03D501C4012D813E814F81588555
:1022B000821B930BA40BB50B89389341A105B10583
:1022C00054F0109228030E94820810920E0380910D
:1022D0000C0390910D038091AB039091AC03A091FE
:1022E000AD03B091AE031092FD021092FC0220915A
:1022F0002E03222321F07092FD026092FC022091B5
:102300002803222321F05092FD024092FC022091EA
:102310001101213021F020911101223079F4881A25
:10232000990AAA0ABB0A40ED841647E09406A10464
:10233000B10424F45092FD024092FC028091FC0210
:102340009091FD0281309105A9F08230910591F0C4
:10235000892B91F460E08FE00E94440260E08EE0FF
:102360000E94440260E088E00E94440260E087E04E
:102370000E9444020E949E0280911101813021F04E
:1023800080911101823029F480912E0381111092E5
:102390002E03C090AF03D090B003E090B103F09053
:1023A000B20380912C0390912D03892B41F0C092B0
:1023B0002F03D0923003E0923103F0923203109257
:1023C0002D0310922C0380912A0390912B034497A4
:1023D00011F01092290350912E035D83552311F4BF
:1023E0000C94AD1B80910F019091100185349105E3
:1023F00011F40C94991BA4EFB1E08A9FB0018B9F5C
:10240000700D9A9F700D1124072E000C880B990BEC
:102410000E943D1D20E030E040E752E40E94F21DA2
:102420004B015C0180912F0390913003A091310307
:10243000B0913203A7019601281B390B4A0B5B0BA5
:10244000CA01B9010E943B1DA50194010E94ED1D26
:1024500018160CF004CD80913803811100CD8091C5
:1024600028038111FCCC3D81311110922E03809103
:1024700038038111F4CC81E0FACC8D819E810297E2
:1024800009F0CACE0E94820810920E0380910C03BC
:1024900090910D0304970CF04FC061E08FE00E9413
:1024A000440220911C03A22FB0E0BE83AD83809133
:1024B0001D0390E02B3388F51196BE83AD838C010C
:1024C00061E070E087E090E00E949B07802F0E940F
:1024D0003A07682F70E089E090E00E949B078D81A9
:1024E0000E943A07682F70E088E090E00E949B0706
:1024F00060E870E08AE090E00E949B0765E070E091
:102500008EE090E00E949B0781E290E090932B0385
:1025100080932A03109228037FCE2D813E812B5376
:1025200031093E832D838C010F5F1F4F0831110548
:102530003CF208511109C4CF10920D0310920C0304
:10254000E3CF82E78093070385E48093080380E26A
:102550008093090380930A0380910C0390910D03EB
:10256000039664E070E00E948D1E93E0981B9093A8
:102570000B034D815E814130510529F410922B03EC
:1025800010922A0349CE8D819E81029709F044CE94
:1025900010922B0310922A033FCE0E941608AD81A1
:1025A000BE81A130B10581F4B0932B03A0932A031F
:1025B00080912803882309F42FCE8FE190E0909337
:1025C0002B0380932A0328CE2D813E8122303105B2
:1025D00079F783E090E090932B0380932A03E8CF70
:1025E00081E080932903809120034AE0642F0E94B8
:1025F0005F1E382F292F80911F030E945F1E40917C
:102600000B014423A9F0309307032093080320E231
:102610002093090380930A0390930B034D815E81FD
:102620004130510589F450922B0340922A03F4CD96
:10263000809307039093080380E28093090330930B
:102640000A0320930B03EACF8D819E81029709F044
:10265000E3CD83E090E090932B0380932A03DCCDBD
:1026600080911B0390E2909307039093080391E0FD
:10267000909309036AE00E945F1E80930A0390937F
:102680000B03AD81BE81119729F410922B03109298
:102690002A03C2CD2D813E812230310509F0BCCD07
:1026A00083E090E090932B0380932A03B5CD809133
:1026B0001E030E94B1074D815E814130510529F40E
:1026C00010922B0310922A03A7CD8D819E81029731
:1026D00009F0A2CDA4E0B0E0B0932B03A0932A03AD
:1026E0009BCD8091F8029091F902A091FA02B091ED
:1026F000FB02B501A401481B590B6A0B7B0B493E39
:1027000053406105710520F4892B8A2B8B2B69F5C9
:102710008092F8029092F902A092FA02B092FB0223
:1027200084E10E94EA02BC01990F880B990B0E9478
:102730003D1D23E333E343E550E40E94F21D20E016
:1027400030E040E85AE30E94F21D20E030E040E033
:102750005FE30E94211C2AE037ED43E25CE30E9424
:10276000931C69837A838B839C8310910A011634AE
:1027700009F04BC020E030E040E151E469817A810A
:102780008B819C810E94F21D20E030E040EA50E401
:102790000E94931C20E030E040E052E40E94221CA2
:1027A0006B017C0120E030E048EC52E40E94931C75
:1027B0000E940C1D6093070320E030E040E251E4EA
:1027C000C701B6010E94931C0E94051DCB01B101F7
:1027D0000E948D1E8093080380E280930903C70145
:1027E000B6010E94051DCB01B1010E948D1E809390
:1027F0000A0310930B034D815E814130510539F579
:1028000010922B0310922A0307CD81E080932903B5
:1028100020E030E040E251E469817A818B819C8143
:102820000E94931C0E940C1D6093070369817A81AA
:102830008B819C810E94051DCB01B1010E948D1EE0
:102840008093080380E2809309038AE2D0CF8D81D0
:102850009E81029709F0E0CC10922B0310922A037C
:10286000DBCCE091FE02F091FF0200910203109197
:102870000303A0900003B09001034091060344239A
:1028800081F11092290380911D0390E0801B910B30
:1028900060E17EE0869F9001879F300D969F300D0E
:1028A000112480911C0390E08A199B095CE3589FD6
:1028B000B001599F700D1124260F371F80911B0303
:1028C00090E08E1B9F0B280F391FC9016CE370E04D
:1028D0000E948D1EF62E93E696175CF563E6F62EA3
:1028E00028C0309739F4A114B10421F40115110561
:1028F00009F443C081E08093290380E19EE0089FB2
:102900009001099F300D189F300D11245CE35A9DF2
:10291000C0015B9D900D1124280F391F2E0F3F1F02
:10292000C9016CE370E00E948D1EF62EA3E6A61787
:10293000ACF2C9016CE370E00E948D1E382F2AE0D2
:102940008F2D622F0E946B1E8093070390930803C4
:1029500081E080930903832F622F0E946B1E809376
:102960000A0390930B032D813E812130310599F4A8
:1029700010922B0310922A034FCC81E080932903FD
:1029800010920703109208038093090310920A0320
:1029900010920B03E8CF8D819E81029709F041C010
:1029A00020911F0330E08091040390910503281BC0
:1029B000390B60911D0370E0601B710BA0911C032B
:1029C000B0E0AA19BB0980911B0390E08E1B9F0BFE
:1029D000442399F0109206033093050320930403D7
:1029E0007093030360930203B0930103A093000369
:1029F0009093FF028093FE020FCC41E040930603C8
:102A00003093050320930403709303036093020340
:102A1000B0930103A09300039093FF028093FE0202
:102A2000FBCBAD81BE81139709F0F6CB1092060364
:102A30001092FF021092FE02109201031092000306
:102A400010920303109202031092050310920403E4
:102A5000E3CB83E58093070385E48093080380E25A
:102A60008093090394E790930A0380930B032D81CD
:102A70003E812130310529F410922B0310922A0354
:102A8000CBCB4D815E814230510509F0C5CB86E14B
:102A900090E090932B0380932A03BECB81E4809334
:102AA00007039CE49093080390E2909309038093BA
:102AB0000A0382E780930B03AD81BE81119759F41D
:102AC00087E190E090932B0380932A0310921803E0
:102AD00010921703A1CB2D813E812230310509F0E0
:102AE0009BCB86E090E090932B0380932A0394CBBA
:102AF00080911703909118030097C1F42FE420935D
:102B000007032EE62093080320E220930903209375
:102B10000A0320930B034D815E8142305105E9F594
:102B20000196909318038093170376CB813091051B
:102B300071F423E52093070329E62093080320E29C
:102B4000209309032CE420930A0325E4E2CF82308A
:102B50009105C1F48FE48093070396E490930803F2
:102B600080E28093090390930A0380930B034D81C5
:102B70005E814230510509F025C61092180310926B
:102B800017034ACBAD81BE81129709F013C6019697
:102B900090931803809317033FCB2D813E81213002
:102BA000310509F039CB8230910559F410922B038D
:102BB00010922A0364E070E08EE090E00E949B0790
:102BC0002BCB0097E9F481E080930C0166E070E084
:102BD0008EE090E00E949B070E94820888E190E0CE
:102BE00090932B0380932A038CE090E00E94680866
:102BF0000E94310790E090931803809317030CCB49
:102C0000019721F710920C01E1CF20911703309129
:102C10001803C901B1010E94791E609307038093D4
:102C2000080380E28093090380930A0380930B03D7
:102C30004D815E814230510579F42F5F3F4F28313D
:102C4000310529F03093180320931703E5CA109239
:102C5000180310921703E0CA8D819E81019709F035
:102C6000DBCA89E190E090932B0380932A03822FA3
:102C70000E943A07682F70E08CE090E00E949B076A
:102C80008BE090E00E9468080E94310790E09093EA
:102C9000180380931703C0CA80E2809307038093D0
:102CA0000803809309032091170330911803C90189
:102CB000B1010E94791E60930A0380930B03AD81DA
:102CC000BE81129779F42F5F3F4F2C33310529F0E5
:102CD00030931803209317039FCA10921803109281
:102CE00017039ACA4D815E814130510509F094CA9B
:102CF00010922B0310922A03822F0E943A07682F0A
:102D000070E08BE090E00E949B0760E870E08DE04F
:102D100090E00E949B0780CA84E78093070389E6BE
:102D20008093080380E2809309038EE680930A0370
:102D300080930B038D819E81019771F487E090E071
:102D400090932B0380932A0380911D0390E090932E
:102D500018038093170360CAAD81BE81129709F0F2
:102D60005BCA8BE190E090932B0380932A0354CAB3
:102D7000E0911703F0911803CF01B1010E94791E71
:102D8000609307038093080380E280930903809394
:102D90000A0380930B032D813E812230310571F4AB
:102DA0003196E831F10529F0F0931803E093170309
:102DB00033CA10921803109217032ECA4D815E81F8
:102DC0004130510509F028CAE090200300911F030B
:102DD00020911E034E2F60911C0380E00E9441074A
:102DE00089E090E090932B0380932A0380911C0349
:102DF00090E090931803809317030ECA8EE480939B
:102E000007038093080380E28093090389E6809397
:102E10000A038EE680930B038D819E81019771F4E6
:102E200089E090E090932B0380932A0380911C0308
:102E300090E09093180380931703EEC9AD81BE8193
:102E4000129709F0E9C930922B0320922A038FE6EA
:102E500080930A03E1C980E280930703809308030B
:102E600080930903E0911703F0911803CF01B1019A
:102E70000E94791E60930A0380930B032D813E818B
:102E80002230310571F43196EC33F10529F0F093DD
:102E90001803E0931703C0C9109218031092170388
:102EA000BBC94D815E814130510509F0B5C9E09043
:102EB000200300911F0320911E0340911D036E2FDC
:102EC00080E00E94410710922B0310922A03A4C9AC
:102ED00084E6809307038FE68093080380E2809363
:102EE000090385E580930A0380930B038D819E81FE
:102EF000019771F48BE090E090932B0380932A0369
:102F000080911E0390E0909318038093170384C967
:102F1000AD81BE81129709F07FC980E190E0909366
:102F20002B0380932A0378C9A0901703B09018034D
:102F30008A2D0E94B1072D813E812230310589F40E
:102F40003FEFA31AB30A48E0A416B10429F0B092E7
:102F50001803A092170360C97092180360921703B8
:102F60005BC98D819E81019709F056C9C0902103EC
:102F7000E090200300911F032A2D40911D036091D2
:102F80001C0380911B030E94410710922B03109297
:102F90002A0342C98091170390911803813091054B
:102FA000C9F48EE6809307038093080380E2809340
:102FB000090384E680930A0380930B03AD81BE81ED
:102FC000129709F007C48D819E8190931803809316
:102FD000170322C982309105C1F484E68093070368
:102FE0008093080380E2809309038EE680930A03AE
:102FF00080930B032D813E812230310509F002C4FC
:10300000709218036092170307C94D815E814230A8
:10301000510509F0F7C301969093180380931703A5
:10302000FBC884E6809307038FE68093080380E261
:10303000809309038EE480930A0380930B038D81B0
:103040009E81019771F48DE090E090932B03809323
:103050002A0380911F0390E0909318038093170335
:10306000DBC8AD81BE81129709F0D6C88BE190E034
:1030700090932B0380932A03CFC82091170330919C
:103080001803C901B1010E94791E90910B01992387
:10309000E1F190E290930703909308039093090362
:1030A00060930A0380930B034D815E81423051058A
:1030B000B1F52F5F3F4F30931803209317034091D2
:1030C0002003E42FF0E0EE0FFF1FE25EFD4F808152
:1030D000918101962817390721F4709218036092A4
:1030E000170380912103837009F096C8423009F0DC
:1030F00093C880911703909118034D9709F08CC8DD
:10310000709218036092170387C860930703809337
:10311000080380E28093090380930A03C3CF8D8163
:103120009E81019709F078C8C0902103E0902003A8
:103130000091170320911E0340911D0360911C0311
:1031400080911B030E94410710922B0310922A03C7
:1031500063C884E68093070381E48093080380E2D8
:103160008093090384E780930A0385E480930B032B
:10317000AD81BE81A130B105A1F48CE190E09093C6
:103180002B0380932A0380910B01882329F0B093AD
:103190001803A093170340C85092180340921703D6
:1031A0003BC82D813E812230310509F035C830926F
:1031B0002B0320922A0330C8209117033091180363
:1031C000C901B1010E94791E90910B019923D1F0A0
:1031D000609307038093080380E280930903809340
:1031E0000A0380930B034D815E8142305105D1F477
:1031F0002F5F3F4F2D30310579F030931803209326
:1032000017030AC890E290930703909308039093E2
:10321000090360930A03E5CF7092180360921703C5
:103220000C940C118D819E81019711F00C940C115E
:10323000C0902103E090170300911F0320911E030B
:1032400040911D0360911C0380911B030E94410764
:103250008DE090E090932B0380932A03AD81BE8193
:10326000B0931803A09317030C940C1189E5809375
:10327000070385E48093080380E28093090381E4D7
:1032800080930A0382E780930B032D813E812130D6
:10329000310569F481E190E090932B0380932A0338
:1032A000D12CD0921803C09217030C940C114D81AD
:1032B0005E814230510511F00C940C1182E190E0D6
:1032C00090932B0380932A030C940C1182E3809338
:1032D000070380E38093080380E280930903C09092
:1032E0001703D0901803C601B1010E94791E6093A4
:1032F0000A0380930B038D819E810297A9F49FEFAF
:10330000C91AD90AA4E6CA16D10431F0D09218031A
:10331000C09217030C940C1184E190E09093180371
:10332000809317030C940C112D813E8121303105BF
:1033300011F00C940C11E090200300911F032091D8
:103340001E0340911D0360911C0380911B030E948A
:10335000410710922B0310922A030C940C1184E75E
:103360008093070385E48093080380E28093090338
:103370008EE680930A0380930B034D815E8141307A
:10338000510541F483E190E090932B0380932A034D
:103390000C940C118D819E81029711F00C940C11EC
:1033A000ADE1B0E0B0932B03A0932A030C940C1171
:1033B00080E28093070380930803809309038AE2E5
:1033C00080930A0380910A0180930B032D813E8133
:1033D0002130310541F410922B0310922A030E94F0
:1033E00047080C940C114D815E814230510511F05B
:1033F0000C940C11833429F486E480930A010C9414
:103400000C1183E480930A010C940C118CE48093DA
:10341000070389E48093080380E28093090389E32A
:1034200080930A0388E480930B038D819E8101972A
:1034300041F4AEE1B0E0B0932B03A0932A030C94C7
:103440000C112D813E812230310511F00C940C11AC
:1034500046E150E050932B0340932A030C940C1147
:1034600080E28093070380930803809309032091EF
:103470000D0130910E01C90168E873E10E94791EC7
:1034800060930A03C90164EF71E00E94791ECB01C9
:10349000B1010E94791E80930B038D819E8101975B
:1034A00031F410922B0310922A030C940C11AD816D
:1034B000BE81129711F00C940C118091170390911A
:1034C000180301968B309105C8F4909318038093EC
:1034D0001703209117033091180348EE53E0249FFF
:1034E000C001259F900D349F900D112488579C4E4C
:1034F00090930E0180930D010C940C1110921803FF
:1035000010921703E6CF8091130390911403A091BA
:103510001503B0911603A5019401281B390B4A0B22
:103520005B0BDA01C901883E9340A105B10588F51E
:1035300080E58093070382E78093080380E280930D
:10354000090384E780930A0389E580930B034D8187
:103550005E814230510509F05AC058EE851A53E099
:10356000950AA108B1088092130390921403A092C7
:103570001503B092160380911703909118030196DA
:1035800088309105F0F590931803809317030C94FD
:103590000C1180911703909118038730910561F405
:1035A0008FE48093070396E49093080380E280936E
:1035B000090390930A03C9CF8630910571F483E41F
:1035C000809307038FE48093080380E280930903CC
:1035D0008EE480930A0384E7B8CF880F991FFC011B
:1035E000E05FFD4F8081918120E2209307032093CB
:1035F000080320930903B1010E94791E60930A0316
:10360000A4CF10921803109217030C940C118D8103
:103610009E810197A9F080912F0390913003A09192
:103620003103B0913203881A990AAA0ABB0A95E9B4
:10363000891691E19906A104B10410F40C940C11BF
:1036400080911703909118038730910561F41092CF
:103650002E031092FD021092FC0210922B03109286
:103660002A030C940C118630910599F4A5E4B0E07E
:10367000B0931001A0930F0181E080932E0370920C
:10368000FD026092FC0210922B0310922A030C940C
:103690000C11880F991FFC01E05FFD4F8081918123
:1036A0009093100180930F0181E080932E0370921C
:1036B000FD026092FC0210922B0310922A030C94DC
:1036C0000C1182E48093070381E48093080380E275
:1036D000809309038CE480930A038FE680930B03A5
:1036E0000C940C1140E1C41647E2D406E104F10445
:1036F000E4F4C701B60124EF31E040E050E00E945D
:10370000C31E6A3F7105810591057CF4C701B601AE
:103710002FE330E040E050E00E94C31E6F3171059E
:103720008105910514F40C944F1110920E030C9422
:10373000521180912F0390913003A0913103B091E9
:103740003203A7019601281B390B4A0B5B0BCA01F8
:10375000B9010E943B1D0C94101260910D017091F3
:103760000E0190E080E0F5CF61E08FE00E9444021E
:103770000E94210360E08FE00E9444020E94210326
:103780000C942F0F893E934014F00C9468103D81E7
:10379000332311F40C949D10809122039091230304
:1037A000892B11F00C94971050922D0340922C030A
:1037B0000C94AC0F2D813E812130310511F00C9419
:1037C0000C1104CA4D815E814130510511F00C94F9
:1037D0000C11ECC98D819E81019711F00C940C1194
:1037E00081E080930B018FE090E090932B03809316
:1037F0002A038091200390E090931803809317038D
:103800000C940C11AD81BE81119711F00C940C1128
:1038100010920B01E8CFF999FECF92BD81BDF89AC5
:10382000992780B50895262FF999FECF1FBA92BD2A
:1038300081BD20BD0FB6F894FA9AF99A0FBE019691
:1038400008955058BB27AA270E94391C0C94B31D19
:103850000E94A51D38F00E94AC1D20F039F49F3F56
:1038600019F426F40C94A21D0EF4E095E7FB0C94D9
:103870009C1DE92F0E94C41D58F3BA1762077307F5
:103880008407950720F079F4A6F50C94E61D0EF454
:10389000E0950B2EBA2FA02D0B01B90190010C0160
:1038A000CA01A0011124FF27591B99F0593F50F478
:1038B000503E68F11A16F040A22F232F342F4427D0
:1038C000585FF3CF469537952795A795F0405395C8
:1038D000C9F77EF41F16BA0B620B730B840BBAF098
:1038E0009150A1F0FF0FBB1F661F771F881FC2F703
:1038F0000EC0BA0F621F731F841F48F48795779517
:103900006795B795F7959E3F08F0B0CF9395880FD0
:1039100008F09927EE0F9795879508950E94781DD6
:1039200008F481E008950E94A71C0C94B31D0E9426
:10393000AC1D58F00E94A51D40F029F45F3F29F00E
:103940000C949C1D51110C94E71D0C94A21D0E9417
:10395000C41D68F39923B1F3552391F3951B550BBF
:10396000BB27AA2762177307840738F09F5F5F4F52
:10397000220F331F441FAA1FA9F335D00E2E3AF091
:10398000E0E832D091505040E695001CCAF72BD0A9
:10399000FE2F29D0660F771F881FBB1F26173707FA
:1039A0004807AB07B0E809F0BB0B802DBF01FF272C
:1039B00093585F4F3AF09E3F510578F00C949C1D50
:1039C0000C94E71D5F3FE4F3983ED4F3869577951A
:1039D0006795B795F7959F5FC9F7880F911D9695E5
:1039E000879597F90895E1E0660F771F881FBB1F41
:1039F000621773078407BA0720F0621B730B840BEE
:103A0000BA0BEE1F88F7E09508950E940C1D68948C
:103A1000B1110C94E71D08950E94CC1D88F09F57AA
:103A200098F0B92F9927B751B0F0E1F0660F771FE2
:103A3000881F991F1AF0BA95C9F714C0B13091F0D8
:103A40000E94E61DB1E008950C94E61D672F782FC3
:103A50008827B85F39F0B93FCCF38695779567959D
:103A6000B395D9F73EF490958095709561957F4F09
:103A70008F4F9F4F0895E89409C097FB3EF49095AF
:103A80008095709561957F4F8F4F9F4F9923A9F037
:103A9000F92F96E9BB279395F695879577956795C6
:103AA000B795F111F8CFFAF4BB0F11F460FF1BC00A
:103AB0006F5F7F4F8F4F9F4F16C0882311F096E99D
:103AC00011C0772321F09EE8872F762F05C066234B
:103AD00071F096E8862F70E060E02AF09A95660F04
:103AE000771F881FDAF7880F9695879597F90895BD
:103AF000990F0008550FAA0BE0E8FEEF16161706FF
:103B0000E807F907C0F012161306E407F50798F066
:103B1000621B730B840B950B39F40A2661F0232B7F
:103B2000242B252B21F408950A2609F4A140A695FB
:103B30008FEF811D811D089597F99F6780E870E0E0
:103B400060E008959FEF80EC089500240A94161613
:103B5000170618060906089500240A94121613067B
:103B6000140605060895092E0394000C11F4882309
:103B700052F0BB0F40F4BF2B11F460FF04C06F5F25
:103B80007F4F8F4F9F4F089557FD9058440F551FFB
:103B900059F05F3F71F04795880F97FB991F61F0CF
:103BA0009F3F79F087950895121613061406551F46
:103BB000F2CF4695F1DF08C0161617061806991FB2
:103BC000F1CF86957105610508940895E894BB27A7
:103BD00066277727CB0197F908950E94781D08F48E
:103BE0008FEF08950E94051E0C94B31D0E94A51D21
:103BF00038F00E94AC1D20F0952311F00C949C1D10
:103C00000C94A21D11240C94E71D0E94C41D70F396
:103C1000959FC1F3950F50E0551F629FF001729F71
:103C2000BB27F00DB11D639FAA27F00DB11DAA1F80
:103C3000649F6627B00DA11D661F829F2227B00DCD
:103C4000A11D621F739FB00DA11D621F839FA00D58
:103C5000611D221F749F3327A00D611D231F849FA8
:103C6000600D211D822F762F6A2F11249F575040FF
:103C70009AF0F1F088234AF0EE0FFF1FBB1F661F7A
:103C8000771F881F91505040A9F79E3F510580F043
:103C90000C949C1D0C94E71D5F3FE4F3983ED4F315
:103CA000869577956795B795F795E7959F5FC1F7E7
:103CB000FE2B880F911D9695879597F90895991B6E
:103CC00079E004C0991F961708F0961B881F7A9513
:103CD000C9F78095089587FB082E062687FD8195F4
:103CE00067FD61950E945F1E0EF4919507FC81951A
:103CF0000895AA1BBB1B51E107C0AA1FBB1FA61733
:103D0000B70710F0A61BB70B881F991F5A95A9F784
:103D100080959095BC01CD01089597FB072E16F470
:103D2000009407D077FD09D00E94791E07FC05D0CA
:103D30003EF4909581959F4F0895709561957F4FC2
:103D40000895A1E21A2EAA1BBB1BFD010DC0AA1FDC
:103D5000BB1FEE1FFF1FA217B307E407F50720F0F4
:103D6000A21BB30BE40BF50B661F771F881F991F6F
:103D70001A9469F760957095809590959B01AC01B8
:103D8000BD01CF010895052E97FB1EF400940E94FB
:103D9000DA1E57FD07D00E94A11E07FC03D04EF487
:103DA0000C94DA1E50954095309521953F4F4F4F1A
:103DB0005F4F089590958095709561957F4F8F4FD7
:103DC0009F4F0895EE0FFF1F0590F491E02D099489
:043DD000F894FFCF95
:103DD40000409A44010003000400200101881301FB
:103DE40000049D02080215061906880699049D041C
:103DF40009029D0699060000000000000000000072
:103E040000000000000000000000000000000000AE
:103E1400000000000000000000000000000000009E
:103E2400000000000000000000000000000000008E
:103E340000000000000081060000000000000000F7
:103E440000009D02080215061906880699049D04BF
:103E540009029D0699060000000000000000000011
:103E6400000000008D069D06950000009504850461
:103E740000008C06080200000000940009028D0274
:103E84009D02850600000000990400009C020000C9
:103E94001802000088060000000000000000000076
:103EA4000000000000009C0414041C069506850410
:103EB40000008C04040000000000000008040C044E
:103EC4001C04000000000404990494041C00000075
:103ED40018000000980620000200400000010008BD
:103EE400010005000A0014001E002D003C00000023
:103EF4001F001D001F001E001F001E001F001F00CA
:103F04001E001F001E001F00000000001A01A8016F
:103F1400BB006701EC00CA00DE0000000000CA0517
:103F24009D05FE0573059605830574050D0A004578
:103F340078636565646564206D6178696D756D206D
:103F44006E756D626572206F662077726974657331
:023F540000006B
:00000001FF
