:020000040000FA
:100000000C9491000C94B9000C94B9000C94EA0D76
:100010000C94B20D0C94B9000C94B9000C942F0DF3
:100020000C94B9000C94B9000C94B9000C94620DB6
:100030000C94B9000C94B9000C94F60B0C94B90014
:100040000C948F0A0C94B9000C945D0A0C94370A36
:100050000C94B9000C94B9000C94B9000C94B9003C
:100060000C94DB0A0C94B9000C94D90A0C94D90AAC
:100070000C94D90A0C94D90A0C94D90A0C94D90A74
:100080000C94D90A0C94D90A0C94D90A0C94D90A64
:100090000C94D90A0C94D90A0C94D90A0C94D90A54
:1000A0000C94D90A0C94D90A0C94D90A0C94D90A44
:1000B0000C94D90A00000000240027002A002D001B
:1000C00000000000250028002B002E00000000008A
:1000D0002300260029002C00040404040404040462
:1000E00002020202020203030303030305050505DE
:1000F00001020408102040800102040810200102BF
:100100000408102004080102090C0A08000201007A
:1001100000030407000000000000000000000000D1
:10012000F40D11241FBECFEFD8E0DEBFCDBF12E02B
:10013000A0E0B1E0EAE3FEE302C005900D92A23830
:10014000B107D9F724E0A2E8B2E001C01D92AE35B4
:10015000B207E1F710E0C1E9D0E004C02197FE0149
:100160000E94151FC039D107C9F70E94330E0C94A5
:100170001B1F0C940000FC01538D448D252F30E093
:10018000842F90E0821B930B541710F0CF960895A4
:1001900001970895FC01918D828D981761F0A28DD1
:1001A000AE0FBF2FB11D5D968C91928D9F5F9F7397
:1001B000928F90E008958FEF9FEF0895FC01918D4D
:1001C000828D981731F0828DE80FF11D858D90E0BA
:1001D00008958FEF9FEF0895FC01918D228D892F57
:1001E00090E0805C9F4F821B91098F73992708953F
:1001F000FC01A48DA80FB92FB11DA35ABF4F2C919C
:10020000848D90E001968F739927848FA689B78992
:100210002C93A089B1898C91837080648C93938D89
:10022000848D981306C00288F389E02D80818F7D2C
:1002300080830895EF92FF920F931F93CF93DF93E4
:10024000EC0181E0888F9B8D8C8D98131AC0E88912
:10025000F989808185FF15C09FB7F894EE89FF89E1
:100260006083E889F98980818370806480839FBF7F
:1002700081E090E0DF91CF911F910F91FF90EF907F
:100280000895F62E0B8D10E00F5F1F4F0F7311278F
:10029000E02E8C8D8E110CC00FB607FCFACFE889CA
:1002A000F989808185FFF5CFCE010E94F800F1CF5A
:1002B000EB8DEC0FFD2FF11DE35AFF4FF0829FB73E
:1002C000F8940B8FEA89FB8980818062CFCFCF932E
:1002D000DF93EC01888D8823B9F0AA89BB89E8896E
:1002E000F9898C9185FD03C0808186FD0DC00FB614
:1002F00007FCF7CF8C9185FFF2CF808185FFEDCF92
:10030000CE010E94F800E9CFDF91CF91089583EBF1
:1003100093E00E94EC0021E0892B09F420E0822F79
:10032000089580E090E0892B29F00E9487018111D7
:100330000E94000080E090E0892B49F080E090E08E
:10034000892B29F00E94000081110C94000008956F
:10035000AF92BF92CF92DF92EF92FF920F931F93D3
:10036000CF93DF936C017B018B01040F151FEB0111
:100370005E01AE18BF08C017D10759F06991D601C8
:10038000ED91FC910190F081E02DC6010995892B3A
:1003900079F7C501DF91CF911F910F91FF90EF90F9
:1003A000DF90CF90BF90AF90089581508D3008F0CE
:1003B0003DC0E82FF0E0E152FE4F0C94151FF6010E
:1003C000FA01EC01F20116021602FD010302070216
:1003D0000D02160211021702809180008F77809320
:1003E00080000895809180008F7DF9CF84B58F774C
:1003F00084BD089584B58F7DFBCF8091B0008F7749
:100400008093B00008958091B0008F7DF9CF8091E6
:1004100090008F77809390000895809190008F7D59
:10042000F9CF8091A0008F778093A00008958091EC
:10043000A0008F7DF9CFCF93DF93282F30E0F90113
:10044000E85FFE4F8491F901E051FF4FD491F9012B
:10045000E852FF4FC491CC23A1F081110E94D50135
:10046000EC2FF0E0EE0FFF1FE453FF4FA591B49186
:10047000EC91ED2381E090E009F480E0DF91CF91F1
:10048000089580E090E0FACF1F93CF93DF93282F59
:1004900030E0F901E85FFE4F8491F901E051FF4F30
:1004A000D491F901E852FF4FC491CC23A9F0162F43
:1004B00081110E94D501EC2FF0E0EE0FFF1FE054F8
:1004C000FF4FA591B4918FB7F894EC91111108C02A
:1004D000D095DE23DC938FBFDF91CF911F910895DC
:1004E000DE2BF8CFCF92DF92EF92FF920F931F9304
:1004F000CF93C82F8B01C090AB03D090AC03E0909A
:10050000AD03F090AE036091AF037091B0038091A2
:10051000B1039091B2036C197D098E099F09012ED8
:10052000000C220B330B600F711F821F931F24EFEF
:1005300031E040E050E00E94F61E6436710581050E
:1005400091055CF461E08C2FCF911F910F91FF908A
:10055000EF90DF90CF900C94440260E0F4CF0F93C3
:100560001F93CF93DF938C0170E060E08FE090E009
:100570000E947202B8018EE090E00E947202E801CF
:10058000CC0FDD1FBE0188E090E00E947202BE0128
:10059000600F711F87E090E0DF91CF911F910F9165
:1005A0000C947202CF93DF9390E0FC01E051FF4F77
:1005B000249188529F4FFC0184918823C9F090E0D8
:1005C000880F991FFC01EC54FF4FA591B491FC01D9
:1005D000E054FF4FC591D49161110DC09FB7F894BD
:1005E0008C91209582238C938881282328839FBF18
:1005F000DF91CF910895623051F49FB7F8943C9108
:10060000822F809583238C93E8812E2BEFCF8FB799
:10061000F894EC912E2B2C938FBFEACF8E508064F0
:1006200080937C0080917A00806480937A0080912E
:100630007A0086FDFCCF8091780090917900089532
:100640003FB7F8948091F4029091F502A091F602E0
:10065000B091F70226B5A89B05C02F3F19F001966F
:10066000A11DB11D3FBFBA2FA92F982F8827BC010C
:10067000CD01620F711D811D911D43E0660F771F33
:10068000881F991F4A95D1F708958F929F92AF9234
:10069000BF92CF92DF92EF92FF920E9420034B0114
:1006A0005C0188EEC82E83E0D82EE12CF12C0E944C
:1006B0002003681979098A099B09683E73408105FE
:1006C0009105A8F321E0C21AD108E108F10888EEEB
:1006D000880E83E0981EA11CB11CC114D104E10452
:1006E000F10429F7FF90EF90DF90CF90BF90AF908B
:1006F0009F908F9008951F93CF93DF93C1E0C09395
:10070000AB02882399F1D091B8001091BA00809182
:10071000BC008A7B8093BC0060E082E10E944402BE
:1007200060E083E10E94440210928103C093800341
:1007300010925B0361E082E10E94440261E083E188
:100740000E9444028091B9008E7F8093B90080910D
:10075000B9008D7F8093B90080E28093B80085E472
:100760008093BC001093BA00D093B800DF91CF9172
:100770001F910895CF92DF92EF92FF920F931F93F4
:10078000CF93DF93D091AA0381E0D13208F09CC0CF
:10079000C091A9030E9420036B017C018091810319
:1007A00081116CC082E08093810381E0809380039B
:1007B0008FEF80937F0310927E03D0937D03A9E88F
:1007C000B3E0EDE5F3E080E0D8138DC010925C0358
:1007D00080915C03CC0FC82BC0935C0380915B03BA
:1007E000813009F084C010925B030E9420036B01EA
:1007F0007C0180915C038093BB0080918303909186
:100800008403A0918503B0918603892B8A2B8B2BBF
:10081000A1F00E9420030091830310918403209192
:100820008503309186036C197D098E099F0906178F
:1008300017072807390708F442C08091BC0083FDE0
:10084000D8CF85EC8093BC000E9420036B017C0113
:1008500080918103823009F44CC080917F038F3FE7
:1008600009F469C080917F03803209F466C08091E9
:100870007F03803309F463C084E026C08091830342
:1008800090918403A0918503B0918603892B8A2BD4
:100890008B2B09F483CF0E942003009183031091D6
:1008A000840320918503309186036C197D098E099C
:1008B0009F09061717072807390708F06FCF80919F
:1008C00082030E947B0385E0109288031092AA03A2
:1008D00010928703DF91CF911F910F91FF90EF90BE
:1008E000DF90CF9008959D9191938F5F6DCF85EEAE
:1008F000A9CF8091830390918403A0918503B09147
:100900008603892B8A2B8B2B09F4A2CF0E9420030C
:100910000091830310918403209185033091860315
:100920006C197D098E099F090617170728073907D3
:1009300008F08ECFC4CF80E0C7CF82E0C5CF83E080
:10094000C3CFCF92DF92EF92FF920F931F93CF937B
:10095000DF93D82FC62F613208F098C00E94200381
:100960006B017C018091810381116BC081E08093D8
:100970008103809380039FEF90937F0310927E0307
:100980009C0F90937D0380935C0380915C03DD0F4B
:10099000D82BD0935C0380915B03813009F078C041
:1009A00010925B030E9420036B017C0180915C0329
:1009B0008093BB008091830390918403A091850371
:1009C000B0918603892B8A2B8B2BA1F00E942003E8
:1009D0000091830310918403209185033091860355
:1009E0006C197D098E099F09061717072807390713
:1009F00008F448C08091BC0083FDD8CF85EC80937B
:100A0000BC000E9420036B017C0180918103813036
:100A100009F440C080917E038C1710F4C0917E03CE
:100A2000EDE5F3E0ABE3B3E080E08C1355C08C2F31
:100A3000DF91CF911F910F91FF90EF90DF90CF90BA
:100A400008958091830390918403A0918503B091D0
:100A50008603892B8A2B8B2B09F484CF0E942003D9
:100A600000918303109184032091850330918603C4
:100A70006C197D098E099F09061717072807390782
:100A800008F070CF809182030E947B03C0E0CFCF3B
:100A900085EEB5CF8091830390918403A091850367
:100AA000B0918603892B8A2B8B2B09F4AECF0E9441
:100AB00020030091830310918403209185033091DA
:100AC00086036C197D098E099F09061717072807E9
:100AD000390708F09ACFD6CF91919D938F5FA5CF1C
:100AE0002091CC02260F3327331F21323105ECF43D
:100AF00020918103FC0190E080E0243069F082E0E5
:100B00000895A091CC022191AC0144555D4FA40FF2
:100B1000B52FB11D2C930196861798F38091CC02C6
:100B2000680F6093CC0280E0089581E008950895F5
:100B3000E0911A0380911903E81730F4F0E0E55CC6
:100B4000FC4F808190E008958FEF9FEF0895909182
:100B50001A03809119032FEF3FEF981748F4E92FFC
:100B6000F0E0E55CFC4F208130E09F5F90931A033A
:100B7000C90108958091190390911A03891B990B5B
:100B80000895CF92DF92EF92FF920F931F93CF932E
:100B9000DF937C01CB018A0120918703222389F016
:100BA000EB016B01C40ED51ECC15DD0569F0699112
:100BB000D701ED91FC910190F081E02DC7010995DD
:100BC000F3CF642F0E947005C801DF91CF911F9170
:100BD0000F91FF90EF90DF90CF900895CF93DF9328
:100BE0001F92CDB7DEB76983209187032223F9F0E6
:100BF0002091AA03203258F021E030E0FC01338339
:100C0000228390E080E00F90DF91CF910895809152
:100C10008803E82FF0E0E757FC4F998190838F5FBE
:100C2000809388038093AA0381E090E0ECCF61E099
:100C3000CE0101960E947005F7CF682F80E594E001
:100C40000C94EE0590E080E008950F931F93CF93EE
:100C5000DF93E82FF0E0EE0FFF1FEA5FFD4FC0814A
:100C6000D181C62BD72B4111C06461E084E00E9482
:100C7000440210E000E0CE01002E02C09695879558
:100C80000A94E2F761E080FF60E080E00E944402A5
:100C900060E082E00E94440261E082E00E9444023F
:100CA00061E081E00E94440260E081E00E94440231
:100CB0000F5F1F4F0C301105F1F661E084E00E94D8
:100CC000D20260E084E0DF91CF911F910F910C94EC
:100CD00044028F929F92AF92BF92CF92DF92EF9297
:100CE000FF92CF93DF93C090AF03D090B003E0901A
:100CF000B103F090B2038091A0029091A102A09163
:100D0000A202B091A302B0902E03A7019601281B66
:100D1000390B4A0B5B0BDA01C9010B97A105B10531
:100D200078F48091A0029091A102A091A202B091CA
:100D3000A302892B8A2B8B2B19F0BB2009F481C0CD
:100D4000C092A002D092A102E092A202F092A3026D
:100D500080E10E940E03EC01BB20E1F0C701B60167
:100D600020E137E240E050E00E94D41E672B682B60
:100D7000692B81F410929C0210929D0210929E02A7
:100D800010929F02109298021092990210929A0269
:100D900010929B0280909C0290909D02A0909E02D7
:100DA000B0909F02C0909802D0909902E0909A0271
:100DB000F0909B0220E030E040EF51E4C501B40127
:100DC0000E94C11C87FF48C080911101BE0190E0C4
:100DD00080E00E946E1DA70196010E94551C6B01C8
:100DE0007C01C0929802D0929902E0929A02F0920D
:100DF0009B0220E030E040E85FE3C501B4010E94BF
:100E0000551C60939C0270939D0280939E02909368
:100E10009F0220E030E040EF51E40E94C11C8111AC
:100E200010C020E030E040EF51E4C701B6010E945D
:100E3000C61C609398027093990280939A029093D3
:100E40009B02DF91CF91FF90EF90DF90CF90BF900A
:100E5000AF909F908F90089520E030E048EC52E4EE
:100E6000C701B6010E94201E18161CF41092110131
:100E7000E8CF20E030E044EB52E4C701B6010E9425
:100E8000201E181624F481E080931101DACF20E0AF
:100E900030E040EA52E4C701B6010E94201E181655
:100EA00014F482E0F1CF83E0EFCF982F92959F70FA
:100EB0008F702AE0929F800D112408956AE00E94AD
:100EC000921E8295807F890F0895CF92EF92FF92B4
:100ED0000F931F93CF93DF93F82E162FD42FC22F8B
:100EE00081E08093870388E68093A90310928803AA
:100EF0001092AA0390E080E00E941D068F2D0E94B0
:100F00005E07682F80E594E00E94EE05812F0E9425
:100F10005E07682F80E594E00E94EE058D2F0E9409
:100F20005E07682F80E594E00E94EE058C2F0E94FA
:100F30005E07682F80E594E00E94EE05802F0E94F6
:100F40005E07682F80E594E00E94EE058E2D0E94DA
:100F50005E07682F80E594E00E94EE058C2D0E94CC
:100F60005E07682F80E594E00E94EE05DF91CF9147
:100F70001F910F91FF90EF90CF900C94BA03CF93F5
:100F8000DF93EB0121E02093870328E62093A90358
:100F9000109288031092AA030E941D06CE010E949F
:100FA0001D06DF91CF910C94BA0381508730D8F49D
:100FB000E82FF0E0E252F84F0C94151FE507F40714
:100FC00001080E08190824082F088EE480930703EF
:100FD0008093080380E2809309038FE680930A03DD
:100FE0008EE680930B03089584E78093070385E7DB
:100FF0008093080380E28093090395E490930A03A9
:10100000F0CF85E5809307038093080380E2809307
:10101000090385E480930A0384E6E3CF84E78093A1
:10102000070388E68093080380E28093090395E72D
:10103000E5CF86E48093070382E78093080380E28C
:101040008093090399E6DACF83E78093070381E46D
:101050008093080380E28093090394E7CFCF83E570
:101060008093070385E78093080380E28093090358
:101070009EE6C4CFEBE1F3E082813181E7E0F3E06B
:101080002AE0622F0E94921E8083918381E08283F6
:10109000832F0E94921E838394830895CF93DF93BE
:1010A000FC0101900020E9F73197AF01481B590B73
:1010B000BC0183EB93E00E94A801EC0142E050E008
:1010C0006CE572E083EB93E00E94A8018C0F9D1FFA
:1010D000DF91CF9108952091390330913A032F5F2A
:1010E0003F4F30933A032093390340915C04509171
:1010F0005D044115510519F04217530734F48FE58B
:1011000092E00E944E0880E00895682F80E190E010
:101110000E94461C81E0089521E02093870328E681
:101120002093A903109288031092AA030E941D061F
:101130000E94BA0361E088E60E94A10410921A039B
:101140008093190380E594E00C94A705CF93DF9377
:101150008FE090E00E948C08EC0181E0809387038F
:1011600088E68093A903109288031092AA038FE067
:1011700090E00E941D06CE018C7F99270E941D06DB
:10118000DF91CF910C94BA03CF92EF920F93CF934C
:101190009091380391112EC19091280391112AC189
:1011A000C82FE0912A03F0912B033797EF30F10518
:1011B00010F5E352F74F0C94151FEC08FB08AD092E
:1011C000FB08BA09FB08C909FB08D209FB08D909C1
:1011D000FB08DE09FB08E309C0902103E09020032F
:1011E00000911F0320911E034091170360911C037F
:1011F00080E00E94650760E08FE00E94440260E0AA
:101200008EE00E94440260E088E00E94440260E0B8
:1012100087E00E94440260E081E00E94440260E0B6
:1012200082E00E94440260E080E00E94440260E0AC
:1012300084E00E94440260E086E10E94440260E093
:1012400085E00E94440260E086E00E94440260E083
:1012500085E10E94440281E0809338031092980255
:101260001092990210929A0210929B0210929C0284
:1012700010929D0210929E0210929F02F894CC232D
:1012800009F4B3C080916800816080936800809108
:101290006B00846080936B00809168008260809313
:1012A000680080916C00886080936C0080917A0067
:1012B0008093950210927A0085B7982F90668F7D63
:1012C00080648093940295BF8091940285BF1092B0
:1012D0006F00789483B7816083BF0E94A6088895C9
:1012E00080913803882309F485C084E0809311013C
:1012F00083B78E7F83BF8091950280937A0010928E
:101300002B0310922A038091AF039091B003A09118
:10131000B103B091B20380932F0390933003A09355
:101320003103B09332031092A0021092A1021092E6
:10133000A2021092A30280916F00826080936F00DE
:1013400081E0809333031092380361E085E1CF910F
:101350000F91EF90CF900C944402C0902103E09045
:10136000200300911F0320911E0340911D036091F3
:1013700017033ECFC0902103E090200300911F038C
:101380002091170340911D0360911C0380911B0362
:1013900030CFC0902103E0902003009117032091EB
:1013A0001E03F0CFC0902103E090170300911F03AC
:1013B000F6CFC0901703E0902003F8CF80910A0188
:1013C0000E946B0818CFE0911703F0911803EE0FFD
:1013D000FF1FE05FFD4F808191819093100180930A
:1013E0000F0181E080932E0306CF109268001092C7
:1013F0006B0052CFCF910F91EF90CF90089585ED74
:101400008093BC008091830390918403A091850315
:10141000B09186030796A11DB11D23E0B695A7954F
:10142000979587952A95D1F72091BC0024FD03C09C
:101430001092810308954091830350918403609139
:10144000850370918603452B462B472B69F3009744
:10145000A105B10541F02AE12A95F1F700C00197F5
:10146000A109B109E1CF809182030C947B031F9203
:101470000F920FB60F9211242F933F934F935F93C8
:101480006F937F938F939F93AF93BF93EF93FF934C
:1014900083EB93E00E94F800FF91EF91BF91AF9131
:1014A0009F918F917F916F915F914F913F912F917C
:1014B0000F900FBE0F901F9018951F920F920FB6AE
:1014C0000F9211242F938F939F93EF93FF93E091AB
:1014D000C303F091C4038081E091C903F091CA0372
:1014E00082FD1BC090818091CC038F5F8F73209110
:1014F000CD03821741F0E091CC03F0E0ED54FC4FB6
:10150000958F8093CC03FF91EF919F918F912F91B5
:101510000F900FBE0F901F9018958081F4CF1F92EF
:101520000F920FB60F9211242F933F938F939F9397
:10153000AF93BF938091F0029091F102A091F202DB
:10154000B091F3023091EF0226E0230F2D3758F5CA
:101550000296A11DB11D2093EF028093F00290939B
:10156000F102A093F202B093F3028091F402909101
:10157000F502A091F602B091F7020196A11DB11DEE
:101580008093F4029093F502A093F602B093F702D1
:10159000BF91AF919F918F913F912F910F900FBE6F
:1015A0000F901F90189529E8230F0396A11DB11DD8
:1015B000D2CF0C94B9001F920F920FB60F92112444
:1015C0002F933F934F935F936F937F938F939F934B
:1015D000AF93BF93EF93FF938091B900887F8036DC
:1015E00009F44AC0F0F5883209F4A5C018F5803135
:1015F00009F499C0B8F4882309F4F5C0883009F4D7
:1016000092C0FF91EF91BF91AF919F918F917F9188
:101610006F915F914F913F912F910F900FBE0F905F
:101620001F901895883109F486C0803251F7809355
:101630007F0314C0803409F49BC040F48033B9F3B5
:101640008833F9F680937F0385ECAEC0803509F4CA
:1016500083C0883509F494C0883499F60E94FF0944
:10166000D0CF883909F48AC038F5883729F050F48A
:10167000883611F0803729F683E080938103109239
:10168000EE0255C0883809F479C0803919F08038E5
:1016900009F0B7CF8091EE02803208F06FC0E09180
:1016A000EE0281E08E0F8093EE028091BB00F0E0AD
:1016B000E253FD4F80833BC0803B39F0D0F4803A49
:1016C00009F477C0883A09F09CCF84E080938103C5
:1016D0001092CD021092CC02F0E0E0E009958091EA
:1016E000CC0281110FC081E08093CC021092AC0239
:1016F00009C0803C09F4A8CF883C09F4A5CF883BF9
:1017000009F07FCFE091CD0281E08E0F8093CD0272
:10171000F0E0E455FD4F80818093BB009091CD02B5
:101720008091CC0229C080915C038093BB0085EC42
:101730008093BC0066CF90917E0380917D039817C3
:1017400058F5E0917E0381E08E0F80937E03F0E0F8
:10175000E35AFC4F8081E9CFE0917E0381E08E0F58
:1017600080937E038091BB00F0E0E35AFC4F8083BE
:1017700090917E0380917D039817C8F285E8D8CFB9
:10178000E0917E0381E08E0F80937E038091BB0009
:10179000F0E0E35AFC4F80838091800381115ECF9B
:1017A00081E080935B0384EA8093BC001092810304
:1017B00028CF85EC8093BC00109281038091EE02CB
:1017C000803230F4E091EE02F0E0E253FD4F1082FF
:1017D0006091EE0270E08EEC92E0F0E0E0E00995BE
:1017E0001092EE020ECF10927F0338CF1F920F920D
:1017F0000FB60F9211248F929F92AF92BF92CF9209
:10180000DF92EF92FF921F932F933F934F935F933B
:101810006F937F938F939F93AF93BF93CF93DF93F8
:10182000EF93FF93809108019091090101969093A5
:10183000090180930801809108019091090183704A
:101840009927892BB9F48091340390913503A091A5
:101850003603B09137030196A11DB11D8093340367
:1018600090933503A0933603B09337031092090188
:1018700010920801809108019091090180FD98C0A3
:1018800080911101823009F482C08091110184306D
:1018900009F47DC08091AA02811179C08091A802CB
:1018A000823019F483E08093A802C090AF03D090F7
:1018B000B003E090B103F090B2038091A402909144
:1018C000A502A091A602B091A70246015701881A6D
:1018D000990AAA0ABB0A8AEF88169104A104B104E6
:1018E00020F040912903442331F041E08091090325
:1018F000803209F440E01091A80280910A038032FE
:1019000021F4113021F040E002C01330E1F7C09122
:101910000601D0910701209709F066C0E12FF0E0A1
:10192000E95FFC4FE08170E060E0EA3738F4F0E016
:10193000EE0FFF1FEE5EFE4F60817181153078F46F
:10194000812F0E94250683E090E0112321F01430BE
:1019500031F484E090E090930701809306011F5FCB
:101960001093A80285EF881681E09806A104B104BF
:1019700040F0C092A402D092A502E092A602F0929A
:10198000A7028091A802853011F41092A8028091DC
:101990000E03882369F08091A90291E08927809342
:1019A000A9028091A9026091A90283E00E944402E9
:1019B000FF91EF91DF91CF91BF91AF919F918F9167
:1019C0007F916F915F914F913F912F911F91FF9068
:1019D000EF90DF90CF90BF90AF909F908F900F903F
:1019E0000FBE0F901F901895111126C0E0910B03A8
:1019F000C0FD14C070E060E0EA3738F4F0E0EE0FAC
:101A0000FF1FEE5EFE4F6081718184E00E9425061B
:101A10002197D0930701C0930601A4CF70E060E046
:101A2000EA3738F4F0E0EE0FFF1FEE5EFE4F608104
:101A3000718169717670E9CF113051F7E091070338
:101A400070E060E0EA3738F4F0E0EE0FFF1FEE5E82
:101A5000FE4F608171816579747080E0D7CF1F92ED
:101A60000F920FB60F9211242F933F934F935F93D2
:101A70006F937F938F939F93AF93BF93EF93FF9356
:101A800080910E03882369F08091A90291E0892753
:101A90008093A9028091A9026091A90283E00E942B
:101AA0004402FF91EF91BF91AF919F918F917F91F0
:101AB0006F915F914F913F912F910F900FBE0F90BB
:101AC0001F9018951F920F920FB60F9211242F930B
:101AD0003F934F935F936F937F938F939F93AF93B6
:101AE000BF93CF93DF93EF93FF93C0919602D09172
:101AF0009702CE010497069718F0CE30D1051CF15D
:101B000060E085E00E94440260E086E00E944402BA
:101B10002196C431D10509F1D0939702C093960262
:101B2000FF91EF91DF91CF91BF91AF919F918F91F5
:101B30007F916F915F914F913F912F910F900FBEC9
:101B40000F901F901895C430D10514F461E0D9CFDF
:101B5000CE010A970497E0F6F9CF109297021092FF
:101B60009602DECF1F920F920FB60F9211248F9321
:101B70009F93AF93BF9380912803811122C08091DE
:101B8000AF039091B003A091B103B091B2038093E1
:101B90000F0390931003A0931103B09312038FE1EE
:101BA00090E090932B0380932A0381E08093280395
:101BB00080910C0390910D03019690930D038093F7
:101BC0000C03BF91AF919F918F910F900FBE0F901B
:101BD0001F9018951F920F920FB60F9211240F901D
:101BE0000FBE0F901F901895E3EBF3E01382128263
:101BF00088EE93E0A0E0B0E084839583A683B7836A
:101C00002CE332E03183208325EC30E035872487D4
:101C100024EC30E03787268720EC30E0318B208BB6
:101C200021EC30E0338B228B22EC30E0358B248B9F
:101C300026EC30E0378B268B118E128E138E148E8D
:101C4000E0E5F4E01382128284839583A683B78350
:101C50008EE492E09183808384E690E090935D042B
:101C600080935C040895CF93DF93CDB7DEB72997B7
:101C70000FB6F894DEBF0FBECDBF789484B58260F6
:101C800084BD84B5816084BD85B5826085BD85B520
:101C9000816085BD80916E00816080936E0010929E
:101CA0008100809181008260809381008091810019
:101CB00081608093810080918000816080938000AA
:101CC0008091B10084608093B1008091B000816008
:101CD0008093B00080919100826080939100809108
:101CE0009100816080939100809190008160809349
:101CF00090008091A10082608093A1008091A1005A
:101D000081608093A1008091A00081608093A000F9
:101D100080917A00846080937A0080917A0082605A
:101D200080937A0080917A008E7F80937A008091F0
:101D30007A00806880937A001092C10061E083E0AD
:101D40000E94D20260E083E00E94440260E084E1ED
:101D50000E94D20280E190E00E943E1C80930A0122
:101D600062E089E00E94D20262E08AE00E94D20230
:101D700060E080E10E94D20261E085E10E94D2022F
:101D800060E085E10E94440261E08FE00E94D2029F
:101D900061E08EE00E94D20261E088E00E94D202FF
:101DA00061E087E00E94D20261E086E10E94D202F7
:101DB00060E086E10E94440261E085E00E94D20278
:101DC00061E086E00E94D20261E080E00E94D202DF
:101DD00061E081E00E94D20261E082E00E94D202D2
:101DE00061E084E00E94D20262E081E10E94D202BE
:101DF000F894109280001092810010928500109249
:101E0000840089EF90E0909389008093880080910E
:101E1000810088608093810080918100836080933D
:101E2000810080916F00826080936F0014BC15BCAC
:101E300016BC89EF87BD84B5826084BD85B582609C
:101E400085BD80916E00826080936E00789483B728
:101E5000817F846083BF81E00E94C408662463940C
:101E6000712CF2E04F2E512CAAE02A2E312C209119
:101E700038032D8321110C94E71B8090340390903C
:101E80003503A0903603B0903703B694A794979487
:101E900087948092AF039092B003A092B103B09266
:101EA000B2030E94690680911101843029F40E94D6
:101EB00069060E949101DBCF80911101833021F4EA
:101EC00080E00E94C408F5CF80913803811122C0C0
:101ED000809133038823F1F061E086E10E9444029F
:101EE00080911101823021F061E082E00E94440281
:101EF000109233038092AB039092AC03A092AD0397
:101F0000B092AE0380922F0390923003A0923103DF
:101F1000B092320380911101823009F45BC28AE0F1
:101F20000E941B022091240330912503892B41F448
:101F30002F5F3F4F3093250320932403198609C058
:101F400012161306DCF7109225031092240331E0D9
:101F5000398789E00E941B022091260330912703D4
:101F6000892B09F0D4C02F5F3F4F30932703209374
:101F7000260320912403309125038091260390911C
:101F80002703293E53E0350714F40C94F51B893ED2
:101F9000A3E09A070CF4E3C085E090E090932D0352
:101FA00080932C03509223034092220381E080937C
:101FB000870388E68093A903109288031092AA03EE
:101FC00090E080E00E941D060E94BA0367E088E668
:101FD0000E94A10410921A038093190380E594E0F3
:101FE0000E94A7058F770E94550780931B0380E509
:101FF00094E00E94A7050E94550780931C0380E58A
:1020000094E00E94A7058F730E94550780931D03DB
:1020100080E594E00E94A7050E94550780931E0367
:1020200080E594E00E94A7050E94550780931F0356
:1020300080E594E00E94A7050E9455078093200345
:1020400080E594E00E94A7050E945507C82E809362
:10205000210380912C0390912D039E838D830497FF
:1020600009F0B4C085E090E090932B0380932A039D
:1020700080911101813009F0C9C08091AB0390912A
:10208000AC03A091AD03B091AE03A5019401281B50
:10209000390B4A0B5B0BDA01C901803D9740A10562
:1020A000B10508F0B3C080E290E090932B038093D9
:1020B0002A03E0912A03F0912B03E232F10508F0A4
:1020C000D5C0EB59FF4E0C94151FFB121E135E1367
:1020D00085139F135715BA16E6162C17591796171E
:1020E000C2173F186B1836110A1965199519DE19B0
:1020F000071A5F14B21A7C15A61533167A16361114
:10210000D718F817351A5F1A1211901BCF12121632
:1021100013060CF02ECF109227031092260341E0F5
:102120004D8327CF1216130614F40C94FA1B8091DA
:10213000220390912303029739F485E090E0909375
:102140002D0380932C0332CF24E030E030932D0315
:1021500020932C03709223036092220327CF18163A
:10216000190614F40C94FA1B809122039091230316
:10217000029719F383E090E090932D0380932C0352
:10218000E9CF8091220390912303892BB1F44985F3
:10219000442309F40BCF8091220390912303892BD0
:1021A00029F470922D0360922C0300CF80912203BA
:1021B00090912303892B09F4F9CE10922D031092EC
:1021C0002C031092230310922203F0CEAD81BE8126
:1021D000139719F484E190E047CF2D813E8125309B
:1021E000310509F045CF85E190E090932B03809372
:1021F0002A031092180310921703809213039092EF
:102200001403A0921503B092160332CF80912A03D3
:1022100090912B03809709F04CCF10922B031092D2
:102220002A0347CF0E943A084D815E814130510513
:1022300009F051C158E8851A53E1950AA108B1087F
:1022400080920F0390921003A0921103B092120398
:102250000E94A60810920E0310920D0310920C0318
:1022600010922B0310922A03109228038090AF0340
:102270009090B003A090B103B090B20320910F03EF
:102280003091100340911103509112032D833E832E
:102290004F83588780912803882309F446C0809192
:1022A0000C01882349F180910F0390911003A091B4
:1022B0001103B091120375016401C81AD90AEA0A20
:1022C000FB0A38E8C31633E1D306E104F10414F045
:1022D0000C94A11BC701B60124EF31E040E050E0AF
:1022E0000E94F61E6A3F71058105910514F00C9459
:1022F000C41B81E080930E03D501C4012D813E8172
:102300004F815885821B930BA40BB50B89389341E1
:10231000A105B10554F0109228030E94A60810925E
:102320000E0380910C0390910D038091AB0390916B
:10233000AC03A091AD03B091AE031092FD021092D8
:10234000FC0220912E03222321F07092FD02609264
:10235000FC0220912803222321F05092FD0240929A
:10236000FC0220911101213021F020911101223035
:1023700079F4881A990AAA0ABB0A40ED841647E044
:102380009406A104B10424F45092FD024092FC0290
:102390008091FC029091FD0281309105B9F082306C
:1023A000910511F40C94C81B892BA1F460E08FE017
:1023B0000E94440260E08EE00E94440260E088E0F7
:1023C0000E94440260E087E00E94440287EE9FEF93
:1023D0000E94AF0280911101813021F080911101A2
:1023E000823029F480912E03811110922E03C09027
:1023F000AF03D090B003E090B103F090B2038091AE
:102400002C0390912D03892B41F0C0922F03D09281
:102410003003E0923103F092320310922D031092B8
:102420002C0380912A0390912B03449711F0109272
:10243000290350912E035D83552311F40C94E01B66
:1024400080910F01909110018534910511F40C9445
:10245000CC1BA4EFB1E08A9FB0018B9F700D9A9FB7
:10246000700D1124072E000C880B990B0E94701D13
:1024700020E030E040E752E40E94251E4B015C0161
:1024800080912F0390913003A0913103B0913203DA
:10249000A7019601281B390B4A0B5B0BCA01B90136
:1024A0000E946E1DA50194010E94201E18160CF0BA
:1024B00000CD809138038111FCCC809128038111DB
:1024C000F8CC3D81311110922E0380913803811197
:1024D000F0CC81E0F6CC8D819E81029709F0C6CECA
:1024E0000E94A60810920E0380910C0390910D0398
:1024F00004970CF04FC061E08FE00E9444022091ED
:102500001C03A22FB0E0BE83AD8380911D0390E039
:102510002B3388F51196BE83AD838C0161E070E0AA
:1025200087E090E00E94BF07802F0E945E07682F1F
:1025300070E089E090E00E94BF078D810E945E07F5
:10254000682F70E088E090E00E94BF0760E870E0CC
:102550008AE090E00E94BF0765E070E08EE090E0C6
:102560000E94BF0781E290E090932B0380932A039F
:10257000109228037BCE2D813E812B5331093E835F
:102580002D838C010F5F1F4F083111053CF208515C
:102590001109C4CF10920D0310920C03E3CF82E710
:1025A0008093070385E48093080380E28093090306
:1025B00080930A0380910C0390910D03039664E0CD
:1025C00070E00E94C01E93E0981B90930B034D8116
:1025D0005E814130510529F410922B0310922A0399
:1025E00045CE8D819E81029709F040CE10922B033B
:1025F00010922A033BCE0E943A08AD81BE81A130E1
:10260000B10581F4B0932B03A0932A038091280392
:10261000882309F42BCE8FE190E090932B038093D5
:102620002A0324CE2D813E812230310579F783E0C3
:1026300090E090932B0380932A03E8CF81E080936E
:102640002903809120034AE0642F0E94921E382FB4
:10265000292F80911F030E94921E40910B01442359
:10266000A9F0309307032093080320E22093090385
:1026700080930A0390930B034D815E814130510595
:1026800089F450922B0340922A03F0CD80930703E4
:102690009093080380E28093090330930A03209308
:1026A0000B03EACF8D819E81029709F0DFCD83E095
:1026B00090E090932B0380932A03D8CD80911B0345
:1026C00090E2909307039093080391E0909309039D
:1026D0006AE00E94921E80930A0390930B03AD81DF
:1026E000BE81119729F410922B0310922A03BECDBC
:1026F0002D813E812230310509F0B8CD83E090E094
:1027000090932B0380932A03B1CD80911E030E94E6
:10271000D5074D815E814130510529F410922B037C
:1027200010922A03A3CD8D819E81029709F09ECD40
:10273000A4E0B0E0B0932B03A0932A0397CD80913F
:10274000F8029091F902A091FA02B091FB02B50152
:10275000A401481B590B6A0B7B0B493E5340610592
:10276000710520F4892B8A2B8B2B69F58092F80256
:102770009092F902A092FA02B092FB0284E10E94C8
:102780000E03BC01990F880B990B0E94701D23E367
:1027900033E343E550E40E94251E20E030E040E8AA
:1027A0005AE30E94251E20E030E040E05FE30E94F3
:1027B000541C2AE037ED43E25CE30E94C61C6983A7
:1027C0007A838B839C8310910A01163409F04BC0E5
:1027D00020E030E040E151E469817A818B819C8185
:1027E0000E94251E20E030E040EA50E40E94C61C12
:1027F00020E030E040E052E40E94551C6B017C0177
:1028000020E030E048EC52E40E94C61C0E943F1DCC
:102810006093070320E030E040E251E4C701B601D5
:102820000E94C61C0E94381DCB01B1010E94C01E2F
:102830008093080380E280930903C701B6010E94D8
:10284000381DCB01B1010E94C01E80930A03109372
:102850000B034D815E814130510539F510922B03F8
:1028600010922A0303CD81E08093290320E030E019
:1028700040E251E469817A818B819C810E94C61C6F
:102880000E943F1D6093070369817A818B819C813F
:102890000E94381DCB01B1010E94C01E8093080325
:1028A00080E2809309038AE2D0CF8D819E810297D6
:1028B00009F0DCCC10922B0310922A03D7CCE091C4
:1028C000FE02F091FF020091020310910303A09019
:1028D0000003B090010340910603442381F110925C
:1028E000290380911D0390E0801B910B60E17EE045
:1028F000869F9001879F300D969F300D1124809107
:102900001C0390E08A199B095CE3589FB001599F12
:10291000700D1124260F371F80911B0390E08E1B32
:102920009F0B280F391FC9016CE370E00E94C01E85
:10293000F62E93E696175CF563E6F62E28C03097E0
:1029400039F4A114B10421F40115110509F443C0AF
:1029500081E08093290380E19EE0089F9001099F18
:10296000300D189F300D11245CE35A9DC0015B9D12
:10297000900D1124280F391F2E0F3F1FC9016CE342
:1029800070E00E94C01EF62EA3E6A617ACF2C901A5
:102990006CE370E00E94C01E382F2AE08F2D622F5A
:1029A0000E949E1E809307039093080381E080930A
:1029B0000903832F622F0E949E1E80930A03909327
:1029C0000B032D813E812130310599F410922B03A8
:1029D00010922A034BCC81E08093290310920703C5
:1029E000109208038093090310920A0310920B03BC
:1029F000E8CF8D819E81029709F041C020911F038D
:102A000030E08091040390910503281B390B6091FD
:102A10001D0370E0601B710BA0911C03B0E0AA19AC
:102A2000BB0980911B0390E08E1B9F0B442399F000
:102A3000109206033093050320930403709303035D
:102A400060930203B0930103A09300039093FF02ED
:102A50008093FE020BCC41E04093060330930503C4
:102A6000209304037093030360930203B093010364
:102A7000A09300039093FF028093FE02F7CBAD81F9
:102A8000BE81139709F0F2CB109206031092FF0259
:102A90001092FE02109201031092000310920303A1
:102AA000109202031092050310920403DFCB83E51A
:102AB0008093070385E48093080380E280930903F1
:102AC00094E790930A0380930B032D813E8121307C
:102AD000310529F410922B0310922A03C7CB4D81A4
:102AE0005E814230510509F0C1CB86E190E09093C0
:102AF0002B0380932A03BACB81E4809307039CE4E1
:102B00009093080390E29093090380930A0382E76D
:102B100080930B03AD81BE81119759F487E190E05A
:102B200090932B0380932A0310921803109217039B
:102B30009DCB2D813E812230310509F097CB86E077
:102B400090E090932B0380932A0390CB80911703FE
:102B5000909118030097C1F42FE4209307032EE609
:102B60002093080320E22093090320930A03209373
:102B70000B034D815E8142305105E9F5019690933A
:102B800018038093170372CB8130910571F423E50C
:102B90002093070329E62093080320E220930903EA
:102BA0002CE420930A0325E4E2CF82309105C1F49E
:102BB0008FE48093070396E49093080380E2809368
:102BC000090390930A0380930B034D815E81423089
:102BD000510509F02AC6109218031092170346CB2C
:102BE000AD81BE81129709F018C601969093180323
:102BF000809317033BCB2D813E812130310509F0B5
:102C000035CB8230910559F410922B0310922A0390
:102C100064E070E08EE090E00E94BF0727CB009751
:102C2000E9F481E080930C0166E070E08EE090E0D2
:102C30000E94BF070E94A60888E190E090932B03B2
:102C400080932A038CE090E00E948C080E94550734
:102C500090E0909318038093170308CB019721F716
:102C600010920C01E1CF2091170330911803C90194
:102C7000B1010E94AC1E609307038093080380E2B9
:102C80008093090380930A0380930B034D815E8137
:102C90004230510579F42F5F3F4F2831310529F03B
:102CA0003093180320931703E1CA1092180310926F
:102CB0001703DCCA8D819E81019709F0D7CA89E18B
:102CC00090E090932B0380932A03822F0E945E074B
:102CD000682F70E08CE090E00E94BF078BE090E0EE
:102CE0000E948C080E94550790E0909318038093EF
:102CF0001703BCCA80E28093070380930803809384
:102D000009032091170330911803C901B1010E94F2
:102D1000AC1E60930A0380930B03AD81BE811297B2
:102D200079F42F5F3F4F2C33310529F0309318038E
:102D3000209317039BCA109218031092170396CA88
:102D40004D815E814130510509F090CA10922B03EC
:102D500010922A03822F0E945E07682F70E08BE09A
:102D600090E00E94BF0760E870E08DE090E00E9474
:102D7000BF077CCA84E78093070389E68093080332
:102D800080E2809309038EE680930A0380930B030D
:102D90008D819E81019771F487E090E090932B03E1
:102DA00080932A0380911D0390E0909318038093F1
:102DB00017035CCAAD81BE81129709F057CA8BE137
:102DC00090E090932B0380932A0350CAE09117035D
:102DD000F0911803CF01B1010E94AC1E609307036C
:102DE0008093080380E28093090380930A03809311
:102DF0000B032D813E812230310571F43196E8318B
:102E0000F10529F0F0931803E09317032FCA1092ED
:102E10001803109217032ACA4D815E814130510573
:102E200009F024CAE090200300911F0320911E03A3
:102E30004E2F60911C0380E00E94650789E090E0BE
:102E400090932B0380932A0380911C0390E090932E
:102E50001803809317030ACA8EE4809307038093B4
:102E6000080380E28093090389E680930A038EE6D3
:102E700080930B038D819E81019771F489E090E02E
:102E800090932B0380932A0380911C0390E09093EE
:102E9000180380931703EAC9AD81BE81129709F028
:102EA000E5C930922B0320922A038FE680930A0310
:102EB000DDC980E2809307038093080380930903B0
:102EC000E0911703F0911803CF01B1010E94AC1EED
:102ED00060930A0380930B032D813E8122303105DC
:102EE00071F43196EC33F10529F0F0931803E09377
:102EF0001703BCC91092180310921703B7C94D816C
:102F00005E814130510509F0B1C9E0902003009184
:102F10001F0320911E0340911D036E2F80E00E942D
:102F2000650710922B0310922A03A0C984E68093B0
:102F300007038FE68093080380E28093090385E509
:102F400080930A0380930B038D819E81019771F416
:102F50008BE090E090932B0380932A0380911E03D3
:102F600090E0909318038093170380C9AD81BE81D0
:102F7000129709F07BC980E190E090932B03809336
:102F80002A0374C9A0901703B09018038A2D0E94D9
:102F9000D5072D813E812230310589F43FEFA31AF8
:102FA000B30A48E0A416B10429F0B0921803A09225
:102FB00017035CC9709218036092170357C98D817B
:102FC0009E81019709F052C9C0902103E09020032F
:102FD00000911F032A2D40911D0360911C038091D5
:102FE0001B030E94650710922B0310922A033EC90F
:102FF000809117039091180381309105C9F48EE6F2
:10300000809307038093080380E28093090384E69A
:1030100080930A0380930B03AD81BE81129709F060
:103020000CC48D819E8190931803809317031EC951
:1030300082309105C1F484E68093070380930803EE
:1030400080E2809309038EE680930A0380930B034A
:103050002D813E812230310509F007C4709218039A
:103060006092170303C94D815E814230510509F01A
:10307000FCC301969093180380931703F7C884E666
:10308000809307038FE68093080380E2809309030F
:103090008EE480930A0380930B038D819E810197B8
:1030A00071F48DE090E090932B0380932A0380913C
:1030B0001F0390E09093180380931703D7C8AD8146
:1030C000BE81129709F0D2C88BE190E090932B0358
:1030D00080932A03CBC82091170330911803C901AC
:1030E000B1010E94AC1E90910B019923E1F190E295
:1030F00090930703909308039093090360930A0346
:1031000080930B034D815E8142305105B1F52F5FF5
:103110003F4F309318032093170340912003E42F6F
:10312000F0E0EE0FFF1FE25EFD4F8081918101967E
:103130002817390721F470921803609217038091C1
:103140002103837009F092C8423009F08FC8809142
:103150001703909118034D9709F088C870921803CF
:103160006092170383C8609307038093080380E28B
:103170008093090380930A03C3CF8D819E810197B9
:1031800009F074C8C0902103E09020030091170358
:1031900020911E0340911D0360911C0380911B032D
:1031A0000E94650710922B0310922A035FC884E6E1
:1031B0008093070381E48093080380E280930903EE
:1031C00084E780930A0385E480930B03AD81BE817D
:1031D000A130B105A1F48CE190E090932B03809392
:1031E0002A0380910B01882329F0B0931803A09340
:1031F00017033CC8509218034092170337C82D811B
:103200003E812230310509F031C830922B032092E3
:103210002A032CC82091170330911803C901B1016A
:103220000E94AC1E90910B019923D9F06093070383
:103230008093080380E28093090380930A038093BC
:103240000B034D815E8142305105D9F42F5F3F4F12
:103250002D30310581F030931803209317030C941F
:10326000361190E29093070390930803909309031B
:1032700060930A03E4CF70921803609217030C94D2
:1032800036118D819E81019711F00C943611C090FA
:103290002103E090170300911F0320911E0340912A
:1032A0001D0360911C0380911B030E9465078DE044
:1032B00090E090932B0380932A03AD81BE81B0935D
:1032C0001803A09317030C94361189E58093070324
:1032D00085E48093080380E28093090381E480936E
:1032E0000A0382E780930B032D813E812130310553
:1032F00069F481E190E090932B0380932A03D12C11
:10330000D0921803C09217030C9436114D815E8140
:103310004230510511F00C94361182E190E0909307
:103320002B0380932A030C94361182E380930703C6
:1033300080E38093080380E280930903C090170321
:10334000D0901803C601B1010E94AC1E60930A031D
:1033500080930B038D819E810297A9F49FEFC91A78
:10336000D90AA4E6CA16D10431F0D0921803C0924B
:1033700017030C94361184E190E090931803809326
:1033800017030C9436112D813E812130310511F047
:103390000C943611E090200300911F0320911E032E
:1033A00040911D0360911C0380911B030E946507DF
:1033B00010922B0310922A030C94361184E7809309
:1033C000070385E48093080380E2809309038EE677
:1033D00080930A0380930B034D815E814130510538
:1033E00041F483E190E090932B0380932A030C94A3
:1033F00036118D819E81029711F00C943611ADE14A
:10340000B0E0B0932B03A0932A030C94361180E212
:103410008093070380930803809309038AE28093D3
:103420000A0380910A0180930B032D813E81213094
:10343000310541F410922B0310922A030E946B086D
:103440000C9436114D815E814230510511F00C947F
:103450003611833429F486E480930A010C943611E2
:1034600083E480930A010C9436118CE48093070363
:1034700089E48093080380E28093090389E38093C1
:103480000A0388E480930B038D819E81019741F4A8
:10349000AEE1B0E0B0932B03A0932A030C94361155
:1034A0002D813E812230310511F00C94361146E118
:1034B00050E050932B0340932A030C94361180E282
:1034C00080930703809308038093090320910D01E3
:1034D00030910E01C90168E873E10E94AC1E60934F
:1034E0000A03C90164EF71E00E94AC1ECB01B10177
:1034F0000E94AC1E80930B038D819E81019731F455
:1035000010922B0310922A030C943611AD81BE81C8
:10351000129711F00C9436118091170390911803B3
:1035200001968B309105C8F490931803809317038C
:10353000209117033091180348EE53E0249FC001F7
:10354000259F900D349F900D112488579C4E909389
:103550000E0180930D010C943611109218031092F5
:103560001703E6CF8091130390911403A0911503E4
:10357000B0911603A5019401281B390B4A0B5B0B74
:10358000DA01C901883E9340A105B10588F580E5BF
:103590008093070382E78093080380E28093090306
:1035A00084E780930A0389E580930B034D815E8154
:1035B0004230510509F05AC058EE851A53E0950A79
:1035C000A108B1088092130390921403A0921503EE
:1035D000B0921603809117039091180301968830DA
:1035E0009105F0F590931803809317030C9436110E
:1035F00080911703909118038730910561F48FE44F
:103600008093070396E49093080380E28093090374
:1036100090930A03C9CF8630910571F483E48093B7
:1036200007038FE48093080380E2809309038EE40C
:1036300080930A0384E7B8CF880F991FFC01E05FED
:10364000FD4F8081918120E220930703209308039E
:1036500020930903B1010E94AC1E60930A03A4CF1A
:1036600010921803109217030C9436118D819E81CD
:103670000197A9F080912F0390913003A09131031D
:10368000B0913203881A990AAA0ABB0A95E98916E9
:1036900091E19906A104B10410F40C9436118091C3
:1036A0001703909118038730910561F410922E034F
:1036B0001092FD021092FC0210922B0310922A032A
:1036C0000C9436118630910599F4A5E4B0E0B093DE
:1036D0001001A0930F0181E080932E037092FD02F0
:1036E0006092FC0210922B0310922A030C94361164
:1036F000880F991FFC01E05FFD4F808191819093BD
:10370000100180930F0181E080932E037092FD02DF
:103710006092FC0210922B0310922A030C94361133
:1037200082E48093070381E48093080380E280931E
:1037300009038CE480930A038FE680930B030C94B7
:10374000361140E1C41647E2D406E104F104E4F482
:10375000C701B60124EF31E040E050E00E94F61EC0
:103760006A3F7105810591057CF4C701B6012FE31D
:1037700030E040E050E00E94F61E6F317105810597
:10378000910514F40C94791110920E030C947C1191
:1037900090E080E00C94E81180912F039091300329
:1037A000A0913103B0913203A7019601281B390B78
:1037B0004A0B5B0BCA01B9010E946E1D0C943E12AC
:1037C00060910D0170910E0190E080E0F5CF61E015
:1037D0008FE00E9444020E94450360E08FE00E9457
:1037E00044020E9445030C94590F893E934014F003
:1037F0000C9492103D81332311F40C94C7108091E6
:10380000220390912303892B11F00C94C110509244
:103810002D0340922C030C94D60F2D813E81213034
:10382000310511F00C943611FFC94D815E81413094
:10383000510511F00C943611E7C98D819E810197D5
:1038400011F00C94361181E080930B018FE090E031
:1038500090932B0380932A038091200390E0909310
:103860001803809317030C943611AD81BE81119714
:1038700011F00C94361110920B01E8CFF999FECF9C
:1038800092BD81BDF89A992780B50895262FF999A0
:10389000FECF1FBA92BD81BD20BD0FB6F894FA9A33
:1038A000F99A0FBE019608955058BB27AA270E9487
:1038B0006C1C0C94E61D0E94D81D38F00E94DF1D80
:1038C00020F039F49F3F19F426F40C94D51D0EF422
:1038D000E095E7FB0C94CF1DE92F0E94F71D58F3EC
:1038E000BA17620773078407950720F079F4A6F5E5
:1038F0000C94191E0EF4E0950B2EBA2FA02D0B017F
:10390000B90190010C01CA01A0011124FF27591B24
:1039100099F0593F50F4503E68F11A16F040A22F2A
:10392000232F342F4427585FF3CF4695379527959B
:10393000A795F0405395C9F77EF41F16BA0B620B9A
:10394000730B840BBAF09150A1F0FF0FBB1F661FE1
:10395000771F881FC2F70EC0BA0F621F731F841F24
:1039600048F4879577956795B795F7959E3F08F04A
:10397000B0CF9395880F08F09927EE0F979587950C
:1039800008950E94AB1D08F481E008950E94DA1C9E
:103990000C94E61D0E94DF1D58F00E94D81D40F0D7
:1039A00029F45F3F29F00C94CF1D51110C941A1E7D
:1039B0000C94D51D0E94F71D68F39923B1F355238C
:1039C00091F3951B550BBB27AA2762177307840732
:1039D00038F09F5F5F4F220F331F441FAA1FA9F3C8
:1039E00035D00E2E3AF0E0E832D091505040E695B6
:1039F000001CCAF72BD0FE2F29D0660F771F881F17
:103A0000BB1F261737074807AB07B0E809F0BB0B09
:103A1000802DBF01FF2793585F4F3AF09E3F51051D
:103A200078F00C94CF1D0C941A1E5F3FE4F3983E7F
:103A3000D4F3869577956795B795F7959F5FC9F706
:103A4000880F911D9695879597F90895E1E0660F87
:103A5000771F881FBB1F621773078407BA0720F000
:103A6000621B730B840BBA0BEE1F88F7E095089569
:103A70000E943F1D6894B1110C941A1E08950E9473
:103A8000FF1D88F09F5798F0B92F9927B751B0F0D4
:103A9000E1F0660F771F881F991F1AF0BA95C9F7D2
:103AA00014C0B13091F00E94191EB1E008950C9439
:103AB000191E672F782F8827B85F39F0B93FCCF3EC
:103AC000869577956795B395D9F73EF4909580954F
:103AD000709561957F4F8F4F9F4F0895E89409C06F
:103AE00097FB3EF490958095709561957F4F8F4F31
:103AF0009F4F9923A9F0F92F96E9BB279395F69547
:103B0000879577956795B795F111F8CFFAF4BB0FC4
:103B100011F460FF1BC06F5F7F4F8F4F9F4F16C028
:103B2000882311F096E911C0772321F09EE8872FB2
:103B3000762F05C0662371F096E8862F70E060E06E
:103B40002AF09A95660F771F881FDAF7880F9695E7
:103B5000879597F90895990F0008550FAA0BE0E88B
:103B6000FEEF16161706E807F907C0F0121613063F
:103B7000E407F50798F0621B730B840B950B39F47F
:103B80000A2661F0232B242B252B21F408950A26E5
:103B900009F4A140A6958FEF811D811D089597F925
:103BA0009F6780E870E060E008959FEF80EC0895E3
:103BB00000240A941616170618060906089500240C
:103BC0000A9412161306140605060895092E039486
:103BD000000C11F4882352F0BB0F40F4BF2B11F4FA
:103BE00060FF04C06F5F7F4F8F4F9F4F089557FD59
:103BF0009058440F551F59F05F3F71F04795880F5B
:103C000097FB991F61F09F3F79F0879508951216F1
:103C100013061406551FF2CF4695F1DF08C016169D
:103C200017061806991FF1CF86957105610508944E
:103C30000895E894BB2766277727CB0197F9089565
:103C40000E94AB1D08F48FEF08950E94381E0C945B
:103C5000E61D0E94D81D38F00E94DF1D20F095233C
:103C600011F00C94CF1D0C94D51D11240C941A1E28
:103C70000E94F71D70F3959FC1F3950F50E0551FFB
:103C8000629FF001729FBB27F00DB11D639FAA27B1
:103C9000F00DB11DAA1F649F6627B00DA11D661F00
:103CA000829F2227B00DA11D621F739FB00DA11D21
:103CB000621F839FA00D611D221F749F3327A00DDB
:103CC000611D231F849F600D211D822F762F6A2F77
:103CD00011249F5750409AF0F1F088234AF0EE0FDC
:103CE000FF1FBB1F661F771F881F91505040A9F709
:103CF0009E3F510580F00C94CF1D0C941A1E5F3F1F
:103D0000E4F3983ED4F3869577956795B795F79544
:103D1000E7959F5FC1F7FE2B880F911D96958795BC
:103D200097F90895991B79E004C0991F961708F038
:103D3000961B881F7A95C9F78095089587FB082EF2
:103D4000062687FD819567FD61950E94921E0EF4FF
:103D5000919507FC81950895AA1BBB1B51E107C0F3
:103D6000AA1FBB1FA617B70710F0A61BB70B881F0B
:103D7000991F5A95A9F780959095BC01CD0108959A
:103D800097FB072E16F4009407D077FD09D00E9408
:103D9000AC1E07FC05D03EF4909581959F4F089589
:103DA000709561957F4F0895A1E21A2EAA1BBB1B47
:103DB000FD010DC0AA1FBB1FEE1FFF1FA217B307F7
:103DC000E407F50720F0A21BB30BE40BF50B661F0D
:103DD000771F881F991F1A9469F7609570958095D1
:103DE00090959B01AC01BD01CF010895052E97FB75
:103DF0001EF400940E940D1F57FD07D00E94D41E90
:103E000007FC03D04EF40C940D1F5095409530954F
:103E100021953F4F4F4F5F4F089590958095709536
:103E200061957F4F8F4F9F4F0895EE0FFF1F0590B5
:103E3000F491E02D0994F894FFCF00409A440100DA
:103E40000300040020010188130100049D02080200
:103E500015061906880699049D0409029D0699060F
:103E60000000000000000000000000000000000052
:103E70000000000000000000000000000000000042
:103E80000000000000000000000000000000000032
:103E90000000000000000000000000000000000022
:103EA0008106000000000000000000009D020802E2
:103EB00015061906880699049D0409029D069906AF
:103EC00000000000000000000000000000008D065F
:103ED0009D06950000009504850400008C060802EC
:103EE00000000000940009028D029D02850600007A
:103EF0000000990400009C020000180200008806DF
:103F000000000000000000000000000000000000B1
:103F10009C0414041C069506850400008C0404000F
:103F200000000000000008040C041C040000000055
:103F30000404990494041C00000018000000980672
:103F400020000200400000010008010005000A00F6
:103F500014001E002D003C0000001F001D001F006B
:103F60001E001F001E001F001F001E001F001E005D
:103F70001F00000000001A01A801BB006701EC004F
:103F8000CA00DE0000000000EE05C105220697050C
:103F9000BA05A70598050D0A00457863656564654F
:103FA00064206D6178696D756D206E756D626572E6
:0C3FB000206F6620777269746573000052
:107E0000112484B714BE81FFF1D085E080938100F6
:107E1000589A82E08093C00088E18093C10086E098
:107E20008093C20080E18093C4008EE0C9D0259A7F
:107E300086E028E13EEF91E03093850020938400B6
:107E400096BBB09BFECF1D9AA8958150A9F7CC2474
:107E5000DD2488248394B5E0AB2EA1E19A2EF3E0D3
:107E6000BF2EA2D0813461F49FD0082FAFD002384A
:107E700011F0013811F484E001C083E08DD089C095
:107E8000823411F484E103C0853419F485E0A6D06E
:107E900080C0853579F488D0E82EFF2485D0082F5E
:107EA00010E0102F00270E291F29000F111F8ED060
:107EB00068016FC0863521F484E090D080E0DECF89
:107EC000843609F040C070D06FD0082F6DD080E0AC
:107ED000C81680E7D80618F4F601B7BEE895C0E0EA
:107EE000D1E062D089930C17E1F7F0E0CF16F0E70C
:107EF000DF0618F0F601B7BEE89568D007B600FCBB
:107F0000FDCFA601A0E0B1E02C9130E011968C915C
:107F1000119790E0982F8827822B932B1296FA01C5
:107F20000C0187BEE89511244E5F5F4FF1E0A03849
:107F3000BF0751F7F601A7BEE89507B600FCFDCFD5
:107F400097BEE89526C08437B1F42ED02DD0F82EF8
:107F50002BD03CD0F601EF2C8F010F5F1F4F849187
:107F60001BD0EA94F801C1F70894C11CD11CFA9403
:107F7000CF0CD11C0EC0853739F428D08EE10CD03F
:107F800085E90AD086E17ACF813511F488E018D0EE
:107F90001DD080E101D065CF982F8091C00085FF72
:107FA000FCCF9093C60008958091C00087FFFCCF5E
:107FB0008091C00084FD01C0A8958091C6000895FD
:107FC000E0E6F0E098E1908380830895EDDF803271
:107FD00019F088E0F5DFFFCF84E1DECF1F93182F83
:107FE000E3DF1150E9F7F2DF1F91089580E0E8DF49
:067FF000EE27FF270994B3
:027FFE00040479
:00000001FF
